:020000040800F2
:10000000A06F002025030008EF6E0008AF6700080E
:10001000ED6E00084B200008117900080000000078
:100020000000000000000000000000002F6F00082A
:100030005920000800000000F56E0008316F00082C
:100040003F0300083F0300083F0300083F03000888
:100050003F0300083F0300083F0300083F03000878
:100060003F0300083F0300083F0300084D2000083D
:100070003F0300083F0300083F0300083F03000858
:100080003F030008000000000D1F00083F030008A8
:100090003F0300083F0300083F0300083F03000838
:1000A000F16F00083F0300083F0300083F0300080A
:1000B0000D7000083F0300083F0300083F030008DD
:1000C0003F0300083F0300083F0300083F03000808
:1000D0003F0300083F030008057900083F030008BC
:1000E0003F0300083F0300083F0300083F030008E8
:1000F0003F0300083F0300083F0300080000000022
:10010000000000003F030008000000003F0300085B
:100110003F030008000000003F0300083F03000801
:100120003F0300083F0300083F0300083F030008A7
:100130003F03000800000000000000003F0300082B
:100140003F0300083F03000800000000000000001B
:10015000000000000000000000000000000000009F
:100160000000000000000000000000003F03000845
:100170003F03000800000000000000000000000035
:10018000000000003F030008000000000000000025
:10019000000000000000000000000000000000005F
:1001A00000000000000000003F0300083F030008BB
:1001B0003F0300083F0300083F0300080000000061
:1001C000000000003F0300080000000000000000E5
:1001D0003F0300083F03000800F002F800F092F827
:1001E0000AA090E8000C82448344AAF10107DA4592
:1001F00001D100F087F8AFF2090EBAE80F0013F052
:10020000010F18BFFB1A43F001031847ACE70000C9
:10021000CCE70000103A24BF78C878C1FAD852075A
:1002200024BF30C830C144BF04680C607047000070
:100230000023002400250026103A28BF78C1FBD8EF
:10024000520728BF30C148BF0B6070476E2900F0CD
:100250005184702900F0BD8166290DF080856529E3
:100260000DF07D8567290DF07A8561290DF079857E
:1002700003681B0A28BF41F08001692900F0FE8352
:10028000642900F0FB83752900F0F8836F2900F0E2
:100290003E85782900F08981E92900F0D984E42994
:1002A00000F0D684F52900F0D384EF2900F03B85D7
:1002B000F82900F088810368DB0928BF41F080013C
:1002C000632900F05A84732900F05F84E32901F068
:1002D0003781F32901F03C81002070471FB50DF0F4
:1002E00034FD01F08BF90400002000210DF00EF820
:1002F000401C6060002000210CF0F2FFE0601FBD98
:1003000010B510BD01F04CF91146FFF7E7FF0AF0F8
:10031000DFF901F029FA03B4FFF7F2FF03BC07F09D
:1003200080FB00000948804709480047FEE7FEE7D8
:10033000FEE7FEE7FEE7FEE7FEE7FEE7FEE7FEE795
:1003400004480549054A064B70470000D56F000870
:10035000D9010008A0690020A06F0020A06B002038
:10036000A06B0020704753EA020C00F069802DE971
:10037000F04B4FF00006002B1FBFB3FA83F503FAD2
:1003800005F424FA05F65E4012BF1643B2FA82F570
:1003900002FA05F4C5F120051EBF22FA05FC44EA65
:1003A0000C04203556EA044C4FEA144418BF641C70
:1003B0004FF000084FF00009904271EB030C39D365
:1003C000002919BFB1FA81F701FA07F6B0FA80F7F0
:1003D00000FA07F6C7F120071EBF20FA07FC46EA1D
:1003E0000C062037B6FBF4FCA7EB0507103F07F01F
:1003F0001F0BCBF120060CFA0BFB2CFA06F644BFC0
:10040000B3460026202FA4BF5E464FF0000B5BEAE8
:10041000060C08BF4FF0010B19EB0B09ABFB027C7C
:1004200048EB0608C01B06FB02CC0BFB03CC71EBB0
:100430000C01C1E70B46024641464846BDE8F08B39
:1004400013B54FF000004FF00001AFF30080BDE89E
:100450001C4070477CB51D4616460C00009001D02C
:100460002044401E074B7B442A4669460190304693
:1004700000F059FB05461CB10020694600F066FB00
:1004800028467CBDED0600000FB41CB5084B06AA3B
:100490007B4469460090059800F045FB0446002027
:1004A000694600F053FB20461CBC5DF814FB0000BD
:1004B000B906000070B5044685690068C10601D51B
:1004C000302600E02026C00707D070BDD4E9012106
:1004D00030469047206A401C20626D1EF6D570BDE4
:1004E00070B5044685690078C00707D170BDD4E9AE
:1004F000012120209047206A401C20626D1EF6D505
:1005000070BD70B50C460546012A05D028788006D6
:1005100000D5EA69002302E0012305E05B1C934259
:1005200002D2E05C0028F9D1A869E618C01AA861D7
:10053000286A184428622846FFF7BCFF04E0D5E982
:10054000012114F8010B9047B442F8D32846FFF775
:10055000C7FF70BDF0B40D460188090502D5214CD6
:100560007C4402E01F4C7C440E34002100F1240640
:1005700008E002F00F071209E75D42EA03721B0967
:100580007754491C52EA0307F3D10278002312077B
:1005900004D5702D06D009B1022311342246F0BCD7
:1005A00000F013BA01231034F8E770B504460D4685
:1005B0002146106800F000FA024629462046BDE8B0
:1005C00070400023C6E7D21D22F00703D3E90023C1
:1005D000C0E70368126843F0200303600823C36187
:1005E0000023B7E72FDD00002DE9F05F89460446C0
:1005F0004FF0000ADFF874B1FB44C0F820A0204699
:10060000E1688847002874D0252806D0D4E9012164
:100610009047206A401C2062F1E700265F46204692
:10062000E16888472028054607DB312D05D2781977
:1006300010F8200C08B10643F1E7B00701D526F009
:100640000406C4F81CA00027C4F818A02A2D09D05D
:10065000284607F0DFF938B304EB8708303DC8F8C7
:10066000185019E059F8041B204604EB87029161E9
:10067000E1688847012F054618D1E069002820DA93
:1006800026F020061DE0D8F8180000EB800005EBEE
:1006900040003038C8F818002046E1688847054611
:1006A00007F0B8F90028EED1012F0AD02E2D08D17D
:1006B0002046E16888477F1C0546022F46F0200649
:1006C000C4DBA069002803DA404246F00106A061BD
:1006D000F00701D026F010066C2D0BD0682D09D044
:1006E0004C2D39D06A2D35D0742D35D07A2D33D09C
:1006F00016E038E0E1682F4620468847B8420546B4
:1007000009D16C2F26D04FF48060E1680643204663
:100710008847054604E06C2F1AD04FF480700643DA
:100720000DB3A5F14100192802D8203546F4006622
:100730004A462946204626604E46FFF787FD80B18F
:1007400001280BD0F61D26F0070000F1080956E736
:100750004020E4E78020D8E70020D6E706F104092E
:100760004DE7284652E7206ABDE8F09FBFDC000055
:1007700010B5431C02E010F8011B71B18107FAD1DA
:100780004FF0013202C88C1A8C4314EAC211F9D01E
:10079000C01A0A0603D0C01E10BDC01A10BD0A043C
:1007A00001D0801E10BD0902FCD0401E10BD40EAE1
:1007B000010370B59B072ED14FF00136042A2AD3CE
:1007C00008C810C99D1B9D43121F15EAC61517D0F6
:1007D000D8B2E1B2401A50EA056110D198B2A1B284
:1007E000401A50EA05410AD123F07F4024F07F41AE
:1007F000401A50EA052102D1180EA0EB146070BD1A
:10080000A342DBD018BA21BA884201D9012070BDB9
:100810004FF0FF3070BD0AB9002070BD10F8013BE9
:1008200011F8014B63B1A3420AD1521E08D010F84F
:10083000013B11F8014B1BB1A34201D1521EEDD176
:10084000181B70BD10B5203AC0F00B80B1E81850ED
:10085000203AA0E81850B1E81850A0E81850BFF4AA
:10086000F5AF5FEA027C24BFB1E81850A0E8185049
:1008700044BF18C918C0BDE810405FEA827C24BF9D
:1008800051F8043B40F8043B08BF7047D20728BF2B
:1008900031F8023B48BF11F8012B28BF20F8023B7A
:1008A00048BF00F8012B704702F0FF0343EA032220
:1008B00042EA024200F044BA4FF0000200B513468B
:1008C00094469646203922BFA0E80C50A0E80C5070
:1008D000B1F12001BFF4F7AF090728BFA0E80C5021
:1008E00048BF0CC05DF804EB890028BF40F8042B1A
:1008F00008BF704748BF20F8022B11F0804F18BF87
:1009000000F8012B704700004FF0013C50F8042B19
:1009100051F8043B9A4221D1A2EB0C03934313EA12
:10092000CC1317D150F8042B51F8043B9A4215D13F
:10093000A2EB0C03934313EACC130BD150F8042B16
:1009400051F8043B9A4209D1A2EB0C03934313EAFA
:10095000CC13DBD04FF00000704700BFD01A01BAB3
:10096000B1FA81F101F0180122FA01F0CB40C1F196
:100970002001DBB2C0B2C01A2CFA01F3D11A9143A4
:1009800011EAC311E6D1704770477047704770474E
:1009900010B500F0F5F9006810BD10B5044600F080
:1009A000EFF9046010BD09684A0501D540B27047EF
:1009B000C905FCD500B2704709684A0501D5C0B227
:1009C0007047C905FCD580B270472DE9F0470D4648
:1009D00099469246044600F124080168880604D529
:1009E000E06921F01001216000E00120A84201DD52
:1009F000471B00E00027A1697A1902EB0900081AD9
:100A0000A0612078C00602D42046FFF753FD0026DF
:100A100008E0D4E901211AF806009047206A401C3A
:100A2000761C20624E45F4DB2078C0060AD52046AD
:100A3000FFF740FD06E0D4E9012130209047206A0D
:100A4000401C2062381EA7F10107F4DC07E0D4E95E
:100A5000012118F805009047206A401C2062281EDA
:100A6000A5F10105F3DC2046FFF73AFD20780006EA
:100A700002D50220BDE8F0870120FBE72DE9F04117
:100A80000646002410687529314616A510D0FFF7D8
:100A90008AFF002802DA404213A507E031688A077E
:100AA00001D512A502E0490704D511A5012401E0F2
:100AB000FFF782FF00210A2206F1240709E0B0FBBC
:100AC000F2FCB0FBF2F302FB1C0030307854184605
:100AD000491C0028F3D123462A463046BDE8F041A0
:100AE000FFF773BF000000002D0000002B00000086
:100AF0002000000011680268006A530501D50870E3
:100B00000AE0D30501D5088006E0130603D5C21715
:100B1000C1E9000200E008600120704701694A1C39
:100B200002610878704700B58FB0CDE9013100212E
:100B3000059105497944CDE9031011466846FFF750
:100B400053FD0FB000BD0000E5FFFFFF0A6802F88B
:100B5000010B0A607047D1E900239A4202D2531C6C
:100B60000B601070704710B5436913B1AFF300808C
:100B700001E0FFF7C6FC012010BD127800F124014E
:100B80000A7000224A700122EDE711684FF0FF322F
:100B9000E9E700002DE9FF5F15468A460446DFF8C5
:100BA000AC80F8440027D8E900103E46CDE900109B
:100BB00010E03AF816106A4602A800F0CDFC411C7D
:100BC00007D02178890603D5E269391891420DD8FA
:100BD0000744761C2078800602D5E069B84205DD1E
:100BE000AE42E6DB3AF816000028E2D1A069C01B4D
:100BF000A0612046FFF75EFCD8E90010CDE90010A7
:100C0000002017E03AF818106A4602A800F0A4FC89
:100C1000B0F1FF3F81460BD000250DF1080B05E038
:100C2000D4E901211BF8050090476D1C4D45F7D311
:100C300008F10100B0428046E4DB206A38442062BB
:100C40002046FFF74DFCBDE8FF9F000026D70000BF
:100C50002DE9F0418046D21D22F007020025D2E99D
:100C60000002F52915A614D0011E72F1000106DA62
:100C70000023D0EB030063EB020211A608E0D8F8D2
:100C800000108B0701D50FA602E0490701D50EA67B
:100C900001251146002408F1240704E000F074F84F
:100CA00030323A55641C50EA0102F7D12B463246E5
:100CB00021464046BDE8F041FFF787BE0000000036
:100CC0002D0000002B0000002000000030B40021A7
:100CD00000F1240408E002F00705D208303542EAAA
:100CE0004372DB086554491C52EA0305F3D10468DA
:100CF000002310A2250707D5A40600D421B1C4699A
:100D000001230DA2641EC46130BCFFF75EBE10B5A6
:100D1000044621461068FFF74FFE02462046BDE814
:100D200010400023D2E7D21D22F00701D1E90023B1
:100D3000CCE7000000000000300000004FF000028F
:100D40000429C0F0128010F0030C3FF4B7ADCCF1D1
:100D5000040CBCF1020F18BF00F8012BA8BF20F84B
:100D6000022BA1EB0C01FFF7A9BD5FEAC17C24BFF8
:100D700000F8012B00F8012B48BF00F8012B704749
:100D8000004870474069002030B5B0F10A024FEAD0
:100D9000900E71F100034EEA817EB0EB0E0061EB24
:100DA00091014FEA101E4EEA017E10EB0E0041EB5E
:100DB00011114FEA102E4EEA016E10EB0E0041EBBE
:100DC00011214FEA104E4EEA014E10EB0E0041EB9E
:100DD0001141401841F100014FEAD00040EA417052
:100DE0004FEAD10110EB80054FEA810444EA907488
:100DF00044EB01046D1944EB0404521BA3414FF072
:100E0000000348BF0A3200D530BD401C41F100014B
:100E100030BD70472DE9FF4F0C461E464FF0FF379F
:100E20008BB0D2E90001DDF860800A908A46C1F3F8
:100E30000A5505B93D46002108464FF00000BAF1B9
:100E4000000F00F4400005DA00EB80004FF4400191
:100E500001EA50004FEA9059B9F1010F00DDB9469F
:100E60000A9850EA4A000ED044F61050A5F2FF3519
:100E700045432F14B8F1000F1ED07542291E1EDD08
:100E8000C9F100021CE0B8F1010F4FF0000001D0E1
:100E9000302103E0F24305E02154401CB042FBDB6B
:100EA00030460022002121540B99C1F80880C1E985
:100EB00000200FB0BDE8F08FBD1B6D1CDEE74A4679
:100EC00000DA694206A800F0DDFB06AB93E80700F4
:100ED00003AB83E8070050460A9900F04EFC8DE80A
:100EE0000700A0F500501F3800900398002D0ADD80
:100EF00042F21F014A460844002303A903906846B2
:100F000000F0B7FE09E0A0F500504A461F38002364
:100F100003A90390684600F0C1FE8DE807000004B5
:100F2000000C03D04FF0FF30410800E01046B8F14C
:100F3000000F03D00022009215461EE0751E05D456
:100F4000FFF722FF303262556D1EF9D5B3460122FC
:100F5000084302D000227F1C04E02078302801D111
:100F600000227F1E002A099784D01DE0112D07DA88
:100F7000FFF70AFF303262556D1C50EA0102F5D1CD
:100F8000084302D00098C8B10EE00021681E05E0B9
:100F9000235C625C63542254401E491C8142F7DB8F
:100FA000AB46A81B401E0990002004F80B000B98CC
:100FB000099AC0F80880C0E9002B7AE711264FF0A3
:100FC000000857E72DE9F04F88460446D21D22F06D
:100FD000070191B0D1E90001CDE90A0106F0E5FC75
:100FE00002460B98C00F01D02D2007E02068810732
:100FF00001D52B2002E0202101EAC000032A09903C
:1010000001D0072A05DB03464146204600F0FAFAE4
:101010000BE12078800601D5E06900E00620B8F1F8
:10102000650F814606D0B8F1660F18D0B8F1670F8A
:1010300070D131E00020B9F1110F009001DB1123D4
:1010400001E009F101030AAA01A90CA8FFF7E2FED9
:10105000DDE90C70002609F10105834647E0012017
:101060004B4600904FF000470AAA01A90CA8FFF7D1
:10107000D1FEDDE90DB00C995D46002610B909F1ED
:1010800001000D18B9EB050003D4C0F1FF3609F1DA
:101090000105A5EB09002BE0B9F1010F01DA4FF0D2
:1010A00001090020B9F1110F0090484601DD11231C
:1010B00000E003460AAA01A90CA8FFF7ABFEDDE990
:1010C0000C704D4600268346207800070AD4AB45B5
:1010D00000DA5D4601A8012D04DD411911F8011C5B
:1010E000302907D04F4502DA17F1040F04DA012046
:1010F00082460FE06D1EEEE7002F02DCED1B3E4442
:1011000003E0781CA84200DD7D1CB81B00F1010A39
:101110004FF000472078000703D4AA4501DB4FF0C9
:10112000FF3A0021B7F1004F0DF143088DF843104D
:1011300024D002202B23002F01DA7F422D230A2105
:10114000021EA0F1010000DC5FB197FBF1FC97FBF0
:10115000F1F201FB1C7C17460CF1300C08F801CDB4
:10116000EEE7A8F1010003702188090501D54521AA
:1011700000E06521A0F1010800F8011C09980FA901
:10118000A1EB0807FF1D00B10120411901EBEA7036
:10119000A1693844081A401EA0612078C00602D414
:1011A0002046FFF787F9099828B1D4E90121904733
:1011B000206A401C20622078C00622D52046FFF716
:1011C00079F91EE0002E04DBB34502DD01A8805D45
:1011D00000E03020D4E901219047206A401C2062C1
:1011E000761CAAF101005FEA000A0AD100F006FAB3
:1011F000C0680168405CD4E901219047206A401C26
:101200002062281EA5F10105DCDC07E0D4E90121FC
:1012100018F8010B9047206A401C2062381EA7F185
:101220000107F3DC2046FFF75BF9032011B041E62C
:101230002DE9F04F04460D46D21D22F0070089B07B
:10124000D0E900974846394606F0AFFB0246F80F52
:1012500001D02D2307E02068810701D52B2302E070
:10126000202101EAC0038DF820300BB1012000E0FD
:101270000020032A824601D0072A04DB29462046A3
:1012800000F0C0F93FE12078800601D40D2500E090
:10129000E569C7F30A560D2D49DA00214FEA175BBD
:1012A00008464FF00000002F00F4400007DA00EB82
:1012B00080004FF4400100EBD07001EA600081151E
:1012C000012901DD4FF0FF3100224FEA850CBCF10E
:1012D000180F06D31346ACF118004FF08052C240ED
:1012E00003E04FF4801323FA0CF30CF10C0CBCF167
:1012F000200F04D3ACF1200C09FA0CF001E007FA3E
:101300000CF000294FF0004801DD18B90FE00ED1B4
:1013100040450CD319EB02095F4121B9404502D188
:101320009F4329EA0209BBEB175F00D0761C208897
:10133000000502D57B48784402E07A4878441938A1
:1013400008AA302302F80A30037C0AF10101002EBA
:101350000AF1020A53546A4602DC4FF0300101E000
:101360004FF031014FF001088DF8001002D0A6F2C5
:10137000FF3603E059EA470100D06B4E002D02DC36
:101380002178090704D54FF002082E218DF80110AD
:10139000C44600210BE0C7F303433F01C35C491C73
:1013A0006D1E02F80830052908F1010801DA002D48
:1013B000F1DC00210CE000EB1973491C1B786D1E59
:1013C000082902F808304FEA091908F1010801DA82
:1013D000002DF0DC21688B0602D516E0A8F101088B
:1013E000E04505DD02EB080313F8013C302BF5D096
:1013F000B8F1000F09DD02EB080313F8013C2E2BB6
:1014000003D1090701D4A8F10108002D05DD3E2113
:1014100002F808106D1E08F10108407C002E02F849
:10142000080008F1010804DA2D20764202F80800CD
:1014300002E02B2002F808000A214FF47A7086425D
:1014400008F101080BDB96FBF0F3303302F80830AB
:1014500096FBF0F308F1010800FB136601E0642E2F
:101460000CDB642096FBF0F3303302F8083096FB77
:10147000F0F308F1010800FB136601E00A2E06DB19
:1014800096FBF1F0303002F8080008F1010896FBF5
:10149000F1F001FB1060303002F80800A16908F19A
:1014A000010808EB050202EB0A00081AA061207887
:1014B000C00602D42046FEF7FDFF216A08AE01EB0C
:1014C0000A00206204E0D4E9012116F8010B9047DC
:1014D000BAF1010AF7D22078C00602D52046FEF7FD
:1014E000E9FF6E4609E016F8010B3E280FD0D4E95B
:1014F00001219047206A401C2062B8F10108F2D215
:101500002046FEF7EDFF09B00320BDE8F08F206A0A
:101510002844206203E0D4E90121302090476D1E69
:10152000EBD3F8E7ADCF000002FCFFFF10B5436935
:1015300013B1AFF3008001E0FFF72CFB012010BDD9
:10154000128800F1240182840022C2840122EDE786
:1015500011684FF0FF32E9E770B516460C460546B4
:1015600000F044F8036893F80101012806D0FF2C2D
:101570000FD8185D68B101202C7070BDD3F8070139
:101580003246214603F2071303442846BDE8704063
:1015900018474FF0FF3070BD004870474069002089
:1015A0007546FFF7F9FFAE4605006946534620F041
:1015B0000700854618B020B5FEF7C2FEBDE8204002
:1015C0004FF000064FF000074FF000084FF0000BFF
:1015D00021F00701AC46ACE8C009ACE8C009ACE8B2
:1015E000C009ACE8C0098D467047000010B500F096
:1015F00005F8001D10BD00BF15BD00000048704774
:10160000606900202DE9F0411F4604460326016869
:10161000072A01F4006004DB08B116A505E016A551
:1016200003E008B115A500E015A521F01000206029
:10163000A069C01EA0610FB1401EA0612046FEF748
:1016400039FF4FB1D4E9012138469047206A401C48
:101650002062C01C206206E0206AFAE7D4E901217A
:1016600015F8010B9047761EF8D22046FEF738FF9A
:10167000BDE8F0814E414E006E616E00494E46005D
:10168000696E66002DE9F047814616468AB03548F6
:1016900078440DC88DE80D0032487844801C03ACB6
:1016A0000DC884E80D0041F69B300844372190FBBB
:1016B000F1F290FBF1F5A5F1800501FB12041B3C52
:1016C00002D56442012000E00020DFF898A08046A7
:1016D0000027FA44AAF1BE0A0EE0E0070AD032461B
:1016E000684607EB470101230AEB810100F0D6FAB7
:1016F0008DE8070064107F1C002CEED1194F7F4449
:10170000AE3F19E0E80715D007EB04100DF1180AF9
:1017100090E80E008AE80E00C068F04201D19819E6
:1017200008903246012306A903A800F0B7FA03ABDC
:1017300083E807006D10641C002DE3D14FF0010316
:1017400032466946B8F1000F03A802D000F091FAC2
:1017500001E000F0A3FAC9E90001C9F808200AB0C5
:10176000BDE8F087E4CC000010B50446AFF300807C
:101770002046BDE81040FEF7CEBD5FEA400C08BF32
:1017800091F0000F4FEA8C234FEAC12243EA5151F6
:101790004FEA1C5018BF00F5F0404FEA300018BF68
:1017A00041F000415FEA6C5C00F02980BCF1FF3F32
:1017B00008BF40F080407047130C06BF12044FF082
:1017C000100C4FF0000C130E04BF12020CF1080CA9
:1017D000130F04BF12010CF1040C930F04BF92000D
:1017E0000CF1020CD30F04BF52000CF1010C114696
:1017F0004FF00002A0F11F00A0EB0C00704711F0A9
:10180000004F08BF704731F000413FF4D5AF0B0CDB
:1018100006BF09044FF0100C4FF0000C0B0E04BF74
:1018200009020CF1080C0B0F04BF09010CF1040CA8
:101830008B0F04BF89000CF1020CCB0F04BF4900D1
:101840000CF1010CCCF12003A0EB0C0022FA03F305
:1018500002FA0CF241EA030100F10100704720F0A6
:101860007F4C80EA030023F07F47ACEB070303F5CE
:101870007C5300F0004003F1FF032DE980494FEA5B
:10188000154B09B44FEA144325EA0B4E24EA0348EA
:101890000FF2042606EB132749083E785FEA32026E
:1018A00003FB0667C7F5000707FB06F64FEA543748
:1018B0004FEAD64606F1020607FB066CCCF1005C47
:1018C0004FEA1C472CEA074C07FB06F40CFB06F515
:1018D00004EB15464FEA961634BF00204FF0004047
:1018E0004FEAD13706FB07FC4FEA1C4C0CFB0BF709
:1018F000D21B03FB0CF761EB07010CFB0EF7B0EBFF
:10190000074072EB17420CFB08F734BFA2EB07420B
:10191000B2EB074261EB17414FEA0C444FEA9107E3
:1019200006FB07FC4FEA1C4C0CFB0BF7B0EBC74067
:1019300072EB573203FB0CF734BFA2EBC742B2EB9A
:10194000C74261EB57310CFB0EF7B0EBC70072EBEF
:1019500057720CFB08F734BFA2EBC702B2EBC70209
:1019600061EB5771039F4FEA816141EA921104EBE9
:10197000CC044FEAD1374FEA826206FB07FC42EA09
:1019800090124FEA80604FEA1C4C0CFB0BF7D21B05
:1019900003FB0CF761EB07010CFB0EF7B0EB074004
:1019A00072EB17420CFB08F734BFA2EB0742B2EB15
:1019B000074261EB17414FEA8C554FEA910704EB60
:1019C0009C2406FB07FC4FEA1C4C0CFB0BF7B0EB0E
:1019D000C74072EB573203FB0CF734BFA2EBC74290
:1019E000B2EBC74261EB57310CFB0EF7B0EBC7000F
:1019F00072EB57720CFB08F734BFA2EBC702B2EBD5
:101A0000C70261EB577115EB4C254FEA816141EA42
:101A100092114FEA82624FEAD13742EA901206FBF6
:101A200007FC44F100044FEA80604FEA1C4C0CFBB9
:101A30000BF7D21B03FB0CF761EB07010CFB0EF756
:101A4000B0EB074072EB17420CFB08F734BFA2EB78
:101A50000742B2EB074261EB174115EB1C154FEA49
:101A6000813141EA92414FEA823242EA90424FEAA2
:101A700080304FEA0C7644F1000448EA03434EEA12
:101A80000B484FF0000EB2EB080C71EB030724BFBC
:101A9000624639464EEB0E0E4FF0000B00185241D5
:101AA00049414BEB0B0BB2EB080C71EB03077BF1DD
:101AB000000B24BF624639464EEB0E0E4FF0000B72
:101AC0000018524149414BEB0B0BB2EB080C71EB88
:101AD00003077BF1000B24BF624639464EEB0E0E26
:101AE00051EA020718BF46F0010616EB0E7655F1D3
:101AF000000254F1000103D5BDE88901BDE800886A
:101B0000BDE88901BDE80048B619524141EB010129
:101B1000A3F10103704780807F7E7D7C7B7A79789A
:101B2000777676757473727171706F6E6E6D6C6CA2
:101B30006B6A6A6968686766666564646363626144
:101B40006160605F5F5E5E5D5D5C5C5B5B5A5A59C5
:101B50005958585757565655555554545353525231
:101B60005251515050504F4F4F4E4E4D4D4D4C4C89
:101B70004C4B4B4B4A4A4A494949484848474747D2
:101B8000474646464545454444444443434343420F
:101B9000424242414141002B9C4630D477002BD039
:101BA0001CB54FEA370703B44FF010004FF0100197
:101BB000BAF1000F06D0BCF1000FDCBF40F0080006
:101BC00040F008014FF000000FBCBDE810400BF1E1
:101BD000010BBBF1010F08BF5FEA170722BF12F12B
:101BE000010211F101014FF0004143F1000300F047
:101BF000004043EA00007047F9D35708D0E746EAAF
:101C0000064613F1400F4FEA16461FDD13F1200F71
:101C1000DFBF16430A46002120335B42BED0C3F12A
:101C2000200746EA064602FA07F74FEA164646EA52
:101C30000706C3F1200722FA03F201FA07F721FA97
:101C400003F14FF0000342EA0702A7E746EA020663
:101C500046EA06464FEA164646EA0106BCBF46EA91
:101C60000646360C4FF000034FF000024FF0000123
:101C700094E72DE9804C9A46934670B491E8380079
:101C800007C831EA400C48BF34EA430C03D5FFF7DC
:101C9000E6FDFFF780FFF0BCBDE8008C2DE9804C2D
:101CA0009A46934670B491E8380007C810F0804F08
:101CB00008BF13F0804F03D100F005F8FFF76BFF6A
:101CC000F0BCBDE8008C20F07F4780EA030023F0E1
:101CD0007F4C07EB0C03A3F57C5300F00040A3F10D
:101CE000FE0392F0000F00F0B38095F0000F00F0BB
:101CF00077802DE901494FEA11404FEA144621EA65
:101D0000004800FB06FC24EA064708FB06F607FB32
:101D100008F800FB07F718EB06484CEB164C4FEAA7
:101D2000124B18EB07484FEA15464CEB174022EAD6
:101D30000B4E0BFB06FC25EA06470EFB06F607FBDF
:101D40000EFE0BFB07F71EEB064E4CEB164C4FF04E
:101D500000061EEB074E4CEB174B18EB0B0840F13F
:101D6000000018EB0E0B58EB000840F100008F1A32
:101D70004FF000013CBFC943661B14BFB5EB040C18
:101D800000213CBFC943F61B4FEA17444EEA8E0EB2
:101D900027EA04454FEA1C4704FB07622CEA074C7C
:101DA00005FB07F70CFB05F604FB0CFC16EB0746DE
:101DB00042EB174216EB0C4642EB1C421BEB0606AD
:101DC00058EB0202414146EA9E0601D5BDE8018971
:101DD000B619524141EB0101A3F10103BDE80189AC
:101DE0004FEA14454FEA114724EA054621EA074C19
:101DF00005FB07F406FB07F70CFB06F105FB0CFCE3
:101E000011EB074144EB17444FEA124711EB0C4129
:101E100044EB1C4422EA074C05FB07F206FB07F7DC
:101E20000CFB06F605FB0CFC16EB074642EB1742D3
:101E300016EB0C4642EB1C456A1854F1000148BFF2
:101E40007047B619524141EB0101A3F101037047FC
:101E500095F0000F37D04FEA11424FEA144721EABC
:101E6000024624EA074C02FB07F106FB07F70CFBCE
:101E700006F402FB0CFC14EB074441EB17414FEA5C
:101E8000154714EB0C4441EB1C4125EA074C02FBBF
:101E900007F506FB07F70CFB06F602FB0CFC16EB3E
:101EA000074645EB174516EB0C4645EB1C4212194D
:101EB00051F1000148BF7047B619524141EB010191
:101EC000A3F1010370474FEA14454FEA114724EA92
:101ED000054621EA074C05FB07F106FB07F70CFB5B
:101EE00006F24FF0000605FB0CFC12EB074241EB3B
:101EF000174112EB0C4251EB1C4148BF704792183E
:101F000041EB0101A3F101037047000010B5044843
:101F100000F0ECFFBDE81040024800F0E7BF000011
:101F2000D00000203C01002010B50146806AC26D3F
:101F300012F0500F06D0C26D12F0100F2FD000F02B
:101F4000D4FF10BDC16D41F40071C16501680A681C
:101F500012F0080F10D0CA6812F4406F04BFC968AD
:101F600011F4005F18D1C16D21F48071C165C16D9C
:101F700011F4805F10D10BE0C96811F0020F0BD192
:101F8000C16D21F48071C165C16D11F4805F03D111
:101F9000C16D41F00101C16500F070FF10BD406DE1
:101FA000426BBDE810400846104710B5806AC16D0D
:101FB00041F04001C165016E41F00401016600F08D
:101FC00094FF10BD10B5806A00F08EFF10BD70B593
:101FD00004460068816811F0010F34D181686FF305
:101FE0009E1109BB816821F03F0121F0004141F0C1
:101FF0000101816001F040FF05462068006810F093
:10200000010F20D12068816811F0010F07D181688C
:1020100021F03F0121F0004141F00101816001F018
:102020002BFF401B022809D9E06D40F01000E0654D
:10203000206E40F001002066012070BD206800681D
:1020400010F0010FDED0002070BDFEE7014801F066
:102050003ABB0000A8010020704772B6FEE70000FE
:1020600070B5064601F008FF154C0546206910F4CE
:10207000803F0AD001F000FF401BB04201D903208D
:1020800070BD206910F4803FF4D120694CF2FA3120
:1020900008400CD00B494A6802434A60002109B14C
:1020A000A169A161002818BF2061012070BD2069CD
:1020B00010F0010F1CBF01202061002070BD000046
:1020C0000020024010000020704700002DE9F007BA
:1020D00082B00023009390F858409C461A46012C89
:1020E00001BF022002B0BDE8F0077047012480F86C
:1020F00058404669FD4D002E1CBF0E6A012E02D0CD
:10210000876EDFB129E04A68092A3BD18A6A4FF419
:102110007856002A04BF0A6806EA524207D00F68C0
:1021200002F07C0206EA57463243CE6A3243066822
:10213000F76C3D401543F564426623E0C0E919C6DB
:102140008A6A002A04BF0A6A521E06D00E6A02F08A
:102150007C02761E3243CE6A32430E680F79C6F394
:10216000846607F01F07BE403243866E761E866681
:10217000476E47EA0202426604D10668F76C3D40AA
:102180002A43F2640268956815F0080F0AD191F8A5
:102190002550B5B1D56891F8266025F4401545EA7B
:1021A0004655D560026895689668C5F38005C6F304
:1021B000C00655EA06074FF004054FF007060CD09D
:1021C0007DE091F8265091F824606D0545EA0655AA
:1021D000D66826F440163543E3E78F6A002F1CBF0C
:1021E000CF6A002F91F8257073D0012F1CBFD768DC
:1021F00027F0007777D0D76091F83020012A79D086
:102200000268176927F0020717618A68B2F1004F68
:102210007DD0D1F80080076805EAD8594F44D7F837
:102220001490C8F3045806FA08FA29EA0A0902FACF
:1022300008F249EA02027A610268576927F000470A
:10224000576102684F69D2F80C80C8F3C1084FEAA1
:10225000480807FA08F80F69042F72D002EB8702CA
:10226000D1F80090176EDFF888A209F0F84907EA64
:102270000A0749EA080847EA080747F000471766CF
:10228000D0F800800A698F6908EB8202D2F860807A
:1022900028F0807848EA070717660F7FD0F800809B
:1022A0000A69012F0CBF4FF00077002708EB82026C
:1022B000D2F8608028F0007848EA070717660268BD
:1022C000976817F0010F40F07181C9E001E00AE062
:1022D00010E0012FD7680EBF47F0007727F0007796
:1022E000D76089D187E7C26D42F02002C265012321
:1022F00082E70CE0D1E90D2717430268D2F810807D
:1023000028F4FF7848F0020847EA08077CE70F68DE
:10231000026805EAD7594A444FF00008D2F81490F1
:10232000C7F3045706FA07FA29EA0A0908FA07F771
:1023300049EA070757610268576947F000477FE796
:10234000FFE7176E00277F037F0B7CD0176E07F027
:10235000F84797FAA7F7B7FA87F80F68C7F3120993
:10236000B9F1000F0EBFC7F3846797FAA7F7B7FA62
:1023700087F7B84503D1176E27F000471766026844
:10238000576E0027121D7F037F0B176E07F0F8476B
:102390000EBF4FEA976897FAA7F7B7FA87F80F6862
:1023A000C7F31209B9F1000F0EBFC7F3846797FA9C
:1023B000A7F7B7FA87F7B84503D1176E27F000479C
:1023C00017660268976E002708327F037F0B176E2F
:1023D00007F0F8470EBF4FEA976897FAA7F7B7FAE2
:1023E00087F80F68C7F31209B9F1000F0EBFC7F3E2
:1023F000846797FAA7F7B7FA87F7B84503D1176E3E
:1024000027F0004717660268D76E00270C327F035B
:102410007F0B176E07F0F8470EBF4FEA976897FAE1
:10242000A7F7B7FA87F80F68C7F31209B9F1000FD9
:102430000EBFC7F3846797FAA7F7B7FA87F7B845CF
:1024400008BF176E00E005E008BF27F000477FF4E3
:1024500036AF33E7176E07F0F8474FEA97687CE727
:1024600091F80C800F68D2F8B090C7F3120A29EAED
:102470000A09DFF880A008F018082AFA08F808EA24
:10248000070749EA0707C2F8B070CA68A2F1804797
:10249000B7F5FE077ED10A68076812EA0A081ABF74
:1024A00092FAA2F8B8FA88F8C2F3846808F1010831
:1024B00008F01F08B8F1090FC2F3120832D8B8F1BA
:1024C000000F1ABF92FAA2F8B8FA88F8C2F384682B
:1024D00008F1010808F01F0804FA08F80EBFC2F35B
:1024E000846492FAA2F4B4FA84F405E00040100483
:1024F00000F0FF03FFFF070004F1010404F01F04D4
:1025000048EA84640EBFC2F3846292FAA2F2B2FA7D
:1025100082F202F1010202F01F0202EB420244EADF
:10252000025230E0B8F1000F0EBFC2F3846892FA95
:10253000A2F8B8FA88F808F1010808F01F0804FAB0
:1025400008F80EBFC2F3846492FAA2F4B4FA84F4D9
:1025500004F1010404F01F0448EA84640EBFC2F3CE
:10256000846292FAA2F2B2FA82F202F1010202F05D
:102570001F02DFF8288102EB420208EB025244EA14
:10258000020242F0007205EAD2543C44D1F80880BD
:10259000656900E00AE0C2F3045206FA02F625EA91
:1025A000060508FA02F245EA020262610C683C493B
:1025B0000C4267D04FF0A041D1F8081304F17055D8
:1025C00001F0E072374915F55F051ABF364DAC4290
:1025D00012F4000F11D0354D04F1605616F52E0699
:1025E00008BF12F0807F38D004F1505616F5F80677
:1025F00008BF12F4800F3BD044E00468B4F1A04F50
:1026000040D18C6842F4000224F0E07422438A60D6
:102610002749284A0968B1FBF2F101EB4101890021
:10262000009101912ED0B1F1004F32D20029D8BFD4
:10263000002105DD11F0010102D0009A521E009226
:10264000019A491C521C91421CDA009C891C641E90
:10265000641E00949142F8DB14E00468AC4211D08F
:102660008C6842F0807224F0E07422438A6009E0B2
:102670000468AC4206D08C6842F4800224F0E07416
:1026800022438A6080F858C002B01846BDE8F007BF
:1026900070470099491E0091FCD1F3E7000020FE2D
:1026A00000000880000300501000C090000100509E
:1026B00030000020400D030070B5264884B000684B
:1026C000016811F0200F04BF04B070BD202101602B
:1026D000214CA068401CA06001281CBF04B070BD44
:1026E00000251E4E3068456209211A4800F03AF86C
:1026F000ADF8000009211A4800F034F8ADF80200E6
:1027000040F20F11164800F02DF8ADF8040040F229
:102710001521134800F026F8ADF8060040F21B31F1
:102720000F4800F01FF8ADF8080040F20F110948FB
:1027300000F018F8ADF80A006946606806F0EAF99A
:10274000606805F071F93068406A2080A56004B0C7
:1027500070BD0000D00000204C000020A00300202D
:102760003C0100200068A1F580710F3904BFD0F84A
:1027700084007047B1F5837F04BFD0F888007047AC
:10278000B1F5037F14BFD0F88000D0F88C007047FB
:102790007047000070B504464948806800F01F0586
:1027A0002068816811F0080F21D1C168C06C01F068
:1027B000004110F4C07F08BF002912D094F85800DF
:1027C000012814D0012084F858002046FFF7FFFBB1
:1027D00001004FF0000218BF84F8582009D00846C5
:1027E00070BDE06D40F02000E065012070BD02206A
:1027F00070BDE06D10F4807F08BF226603D0206EAC
:1028000020F008002066E06D20F0010020F4005068
:1028100040F48050E0652B4B206898420CBF4FF08D
:10282000A04C8446844518BF002D05D1D4F85CC067
:102830002CF4801CC4F85CC04FF0600CC0F800C0E1
:1028400084F858202068C26812F4001F03D0426840
:1028500042F480624260A06908282068426807D07C
:1028600022F0400242602068426842F0200206E006
:1028700022F0200242602068426842F0400242603A
:10288000206898420CBF4FF0A0420246824218BF17
:10289000002D08D0062D18BF072D04D0E06D40F4A0
:1028A0008010E0659BE7C26812F0007F97D18268D4
:1028B00022F03F0222F0004242F0080282608EE7DE
:1028C00000030050000100507047704790F85820F6
:1028D0004FF0000C012A04BF0220704770B49BB077
:1028E000012280F8582002680024B2F1A04F0AD0DB
:1028F000C16D41F02001C16580F858401BB04FF018
:10290000010070BC7047274B00939B689268C3F32B
:10291000800312F0040F08BF002B0BD0C16D41F0F3
:102920002001C1654FF0010C80F858401BB0604693
:1029300070BC70471C4A0D684FF0A043FDB195680C
:1029400090F8386025F4604545EA46354E6845EA1A
:10295000060595609D68D3F8083145EA030313F036
:10296000010FE1D10B68896843EA0101936823F004
:102970001F0323F4706341EA03019160D4E7916877
:1029800021F4604191609968D3F8083141EA03016C
:1029900011F0010F02BF916821F01F0121F4706155
:1029A000C2D1EAE700010050000300502DE9F00712
:1029B00085B00023019390F858209C46012A01BF5E
:1029C000022005B0BDE8F0077047012480F85840A8
:1029D0000268956815F0040F0BD0C16D41F020011D
:1029E000C165012380F858C005B01846BDE8F0075E
:1029F0007047D1E900650C2707EA95173A44176B31
:102A000005F01F054FF01F0808FA05F8C6F38466A5
:102A100027EA080706FA05F53D431563026895683D
:102A20009668C5F38005C6F3C00655EA06074FF061
:102A300004054FF0070658D18F68B7F1004F5BD0FF
:102A4000D1F8008005EAD8594A44D2F81490C8F366
:102A5000045806FA08FA29EA0A0907FA08F749EABF
:102A6000070757610268576927F0004757610268F6
:102A70004F69D2F80C80C8F3C1084FEA480807FA3A
:102A800008F80F69042F4FD002EB8702D1F80090AD
:102A9000176EDFF8C4A309F0F84907EA0A0749EA04
:102AA000080847EA080747F000471766D0F8008093
:102AB0000A698F6908EB8202D2F8608028F080787A
:102AC00048EA070717660F7F0268D1F81080012FC8
:102AD0000CBF4FF00077002702EB8802D2F860802D
:102AE00028F0007848EA070717660268976817F029
:102AF000010F40F039819FE00F684FF0000805EAB0
:102B0000D7594A44D2F81490C7F3045706FA07FA83
:102B100029EA0A0908FA07F749EA0707576102682C
:102B2000576947F00047A1E7176E00277F037F0B27
:102B3000176E07F0F8471ABF97FAA7F7B7FA87F8A2
:102B40004FEA97680F68C7F31209B9F1000F0EBF7B
:102B5000C7F3846797FAA7F7B7FA87F7B84503D1A1
:102B6000176E27F0004717660268576E0027121D80
:102B70007F037F0B176E07F0F8470EBF4FEA976889
:102B800097FAA7F7B7FA87F80F68C7F31209B9F1F0
:102B9000000F0EBFC7F3846797FAA7F7B7FA87F756
:102BA000B84503D1176E27F0004717660268976E85
:102BB000002708327F037F0B176E07F0F8470EBF20
:102BC0004FEA976897FAA7F7B7FA87F80F68C7F33D
:102BD0001209B9F1000F0EBFC7F3846797FAA7F780
:102BE000B7FA87F7B84503D1176E27F00047176685
:102BF0000268D76E00270C327F037F0B176E07F039
:102C0000F8470EBF4FEA976897FAA7F7B7FA87F821
:102C10000F68C7F31209B9F1000F0EBFC7F384673D
:102C200097FAA7F7B7FA87F7B84504BF176E27F0EA
:102C300000477FF45AAF57E791F80C800F68D2F83D
:102C4000B090C7F3120A29EA0A09DFF810A208F0C7
:102C500018082AFA08F808EA070749EA0707C2F835
:102C6000B070CA68A2F18047B7F5FE077CD10A6848
:102C7000D0F8008012EA0A071ABF92FAA2F7B7FA50
:102C800087F7C2F384677F1C07F01F07092FC2F381
:102C900012072AD8002F1ABF92FAA2F7B7FA87F7BD
:102CA000C2F3846707F1010707F01F0704FA07F76B
:102CB0000EBFC2F3846492FAA2F4B4FA84F404F16D
:102CC000010404F01F0447EA84640EBFC2F3846267
:102CD00092FAA2F2B2FA82F202F1010202F01F02AB
:102CE00002EB420244EA02522EE0002F0EBFC2F372
:102CF000846792FAA2F7B7FA87F707F1010707F09E
:102D00001F0704FA07F70EBFC2F3846492FAA2F415
:102D1000B4FA84F404F1010404F01F0447EA846463
:102D20000EBFC2F3846292FAA2F2B2FA82F202F108
:102D3000010202F01F024A4F02EB420207EB02526D
:102D400044EA020242F0007205EAD25444448F6819
:102D50006569C2F3045206FA02F625EA060507FA87
:102D600002F245EA020262610C683E490C423FF4FD
:102D700039AE4FF0A041D1F8081304F1705501F0BD
:102D8000E072394915F55F051ABF384DAC4212F4AF
:102D9000000F1DD0364D04F1605616F52E0608BF03
:102DA00012F0807F47D004F1505616F5F80608BFA0
:102DB00012F4800F7FF416AE0468AC423FF412AEFA
:102DC0008C6842F4800224F0E07422438A6009E6B1
:102DD0000468B4F1A04F7FF405AE8C6842F40002A1
:102DE00024F0E07422438A602249234A0968B1FB37
:102DF000F2F101EB41018900019100913FF4F2AD44
:102E0000B1F1004F23D20029D8BF002105DD11F018
:102E1000010102D0019A521E0192009A491C521CD3
:102E20009142BFF6DFAD019C891C641E641E0194B3
:102E30009142F8DBD6E50468AC423FF4D3AD8C6830
:102E400042F0807224F0E07422438A60CAE501995E
:102E5000491E0191FCD1C5E500F0FF03FFFF07000B
:102E6000000020FE00000880000300501000C09009
:102E70000001005030000020400D0300144900689C
:102E80000968884218BF70471248018800EE101A7E
:102E90001449B8EE401A9FED100A4969C1EE000AC4
:102EA0009FED0E1A60EE810A9FED0D1AC0EE811A99
:102EB000C1EDA31A8088032200EE900A0448F8EEC0
:102EC000600A80EE801A81EDD01A024900F02EBB14
:102ED000D00000204400002000F07F4533335340F1
:102EE000ED2BC03D4C000020704770472DE9F041AC
:102EF0000446006806684568A548806816F0020F19
:102F000000F01F0718BF15F0020F0DD0E06D10F094
:102F1000100F03D1E06D40F40060E0652046FFF73C
:102F2000D3F8216802200860DFF8688216F0040FE9
:102F300018BF15F0040F04D0E06D10F0100F0BD186
:102F400006E016F0080F18BF15F0080FF4D136E0B0
:102F5000E06D40F40070E0652068C16811F4406FD6
:102F600027D1404514BF01464FF0A041814218BF10
:102F7000002F0AD0052F18BF092F06D040450CBFDF
:102F80004FF0A0410146C96800E0C16811F4005F3C
:102F90000FD1016811F0080F0BD0816811F0040FF8
:102FA00018D0E06D40F01000E065206E40F00100A8
:102FB00020662046FFF762FF21680C20086016F0AB
:102FC000200F18BF15F0200F15D0E06D10F0100F76
:102FD0001CD117E0416821F00C014160E06D20F444
:102FE0008070E065E06D10F4805FE2D1E06D40F04C
:102FF0000100E065DDE716F0400F18BF15F0400F47
:10300000E3D146E0E06D40F40050E0652068C16C1B
:1030100011F4C07F0CBF01230023C16811F4406F7D
:103020000CBF0122002240450CBF4FF0A0410146D9
:10303000814218BF002F0AD0062F18BF072F06D0D5
:1030400040450CBF4FF0A0410146C96800E0C1688F
:1030500033B911F0007F16D1AAB111F4005F12D17B
:10306000026812F0400F0ED011F4001F0BD18168DE
:1030700011F0080F50D0E06D40F01000E065206EB8
:1030800040F0010020662046FFF716FB2168602013
:10309000086016F0800F18BF15F0800F09D0E06DA2
:1030A00040F48030E065204600F094F921688020EB
:1030B000086016F4807F18BF15F4807F0AD0E06D99
:1030C00040F40030E0652046FFF7FEFB21684FF436
:1030D0008070086016F4007F18BF15F4007F0AD0D6
:1030E000E06D40F48020E0652046FFF7EEFB2168AC
:1030F0004FF40070086016F0100F18BF15F0100F95
:103100002ED0E06BF0B1C7B14FF0A040D0F808036B
:1031100010F4604F21D015E0416821F0600141605A
:10312000E06D20F48050E065E06D10F4807FAAD15E
:10313000E06D40F00100E065A5E72068C06810F090
:10314000010F0AD0E06D40F48060E065206E40F031
:10315000020020662046FFF7C8FE216810200860A4
:1031600016F4806F14BF15F4806FBDE8F081E06D38
:1031700040F48040E065206E40F008002066216841
:103180004FF4806008602046BDE8F041FFF700BBC7
:10319000000300500001005070B584B04FF00005EE
:1031A00004002E46029502BF012004B070BDE06D00
:1031B00028B9204600F010F9266684F85860206887
:1031C0008168C1F3407129B1816821F03F0121F08C
:1031D0002041816020688168C1F3007149BB81682A
:1031E00021F03F0121F0004141F08051816074489D
:1031F00074490068B0FBF1F002900090C8B1B0F1E2
:10320000004F80F0D7800028D8BF002005DD10F0E7
:10321000010002D00299491E02910099401C491CEC
:10322000884206DA029A801C521E521E029288427E
:10323000F8DB20688168C1F3007141B9E16D41F0AC
:103240001001E165216E41F00101216601258168CF
:10325000E26DC1F3800112F0100F08BF002908D001
:10326000E06D40F01000E0654FF0010504B0284625
:1032700070BDE16D21F4807141F00201E16580686B
:1032800010F0010F11D14FF0A0408168D0F8080173
:1032900041EA000010F0010F07D14B4861688268D5
:1032A00022F47C1242EA01018160E168E06B627FF6
:1032B00040EA0100A16841EA423140EA010094F885
:1032C000241040EA0140012904D1218D3F4A02EB3C
:1032D00041410843E16A21B101F47871226B08434E
:1032E00010432168CA683A4B1A401043C8602068EE
:1032F0000169626B21F040611143016120688168BE
:103300008268C1F38001C2F3C00211432FD1217F33
:1033100094F83820890341EA4201C26822F002028F
:1033200022F480421143C1602069002820680169AD
:103330000AD041F4803101612068D0F8C0102269C0
:103340006FF30D01114307E021F480310161206822
:10335000D0F8C0106FF30D01C0F8C01094F8400011
:1033600001280CD02068016921F001010161606928
:1033700001282068016B21F00F0113D10FE0D4E97F
:1033800011010843D4E91312114340EA01022068F5
:1033900001696FF38A01114341F00101E6E7226AF6
:1033A000521E11430163E06D20F0020040F0010065
:1033B000E0655BE70298401E0290FCD139E700000F
:1033C00030000020400D0300000300500000FEFF0D
:1033D0000740F0FF7047000070B586B000254D4BE8
:1033E00000950195029503950495196806460068B5
:1033F0004A1C03244849B0F1A04F0AD0A0F1A04CC8
:10340000BCF5807C1CBF06B070BD1A60012A57D184
:103410004EE01A60012A07D1C86C40F40050C8641D
:10342000C86C00F400500590C86C40F00100C864FE
:10343000C86C00F001000590C86C40F00200C86440
:10344000C86C694600F0020005900120CDE9000437
:103450004FF0904000F0EAFB4FF4B040CDE900049B
:10346000694602952D4800F0E1FB2E4C2C48206067
:103470000520C4E901058020C4E9035040006061D3
:103480008000C4E9060580002062204600F08AF929
:10349000002818BFFEF7E1FD7465002211461220D6
:1034A000A66200F051FD122000F03EFD06B070BD96
:1034B000C86C40F40050C864C86C00F4005005901B
:1034C000C86C40F00100C864C86C00F001000590B1
:1034D000C86C40F00400C864C86C102600F00400FA
:1034E0000590CDE9006469464FF0904000F09EFBE6
:1034F000009669460C48CDE9014500F097FB002293
:103500001146122000F020FD122000F00DFD06B043
:1035100070BD0000000000200010024000040048C0
:1035200008000240A8010020000800482DE9F041F1
:1035300004463C4817468846806800F01F0520680E
:10354000806810F0040F6AD194F85800012866D002
:103550000120002684F85800002D18BF052D06D044
:10356000092D1EBF012084F85860BDE8F081204677
:10357000FEF72DFD00281CBF84F85860BDE8F081DF
:10358000E06D20F0010020F4606040F48070E065A0
:103590002068A0F1A041B1F580710CBF4FF0A041AF
:1035A0000146814218BF002D03D1E06D20F4801048
:1035B000E065E06D10F4805F08BF266603D0206EE2
:1035C00020F006002066616D1748C862616D1748DB
:1035D0000863616D1648486321684FF01C0008605D
:1035E00084F858602068416841F01001416020680B
:1035F000C16841F00101C16020683B4600F1400113
:103600004246606D00F062F921688A6822F03F024C
:1036100022F0004242F004028A60BDE8F0810220FC
:10362000BDE8F08100030050291F0008C51F0008F5
:10363000AB1F000810B590F8252000240121234677
:10364000022A07D00422C26380F8251080F82430B3
:10365000012436E00268D2F800C02CF00E0CC2F84B
:1036600000C00268D2F800C02CF0010CC2F800C003
:10367000826CD2F800C02CF4807CC2F800C090F8B4
:103680004420D0F840C002F01F0201FA02F2CCF848
:103690000420D0E9132CC2F804C0426D4AB1D2F81C
:1036A00000C02CF4807CC2F800C0D0E9162CC2F80F
:1036B00004C080F8251080F82430816B002918BFE1
:1036C0008847204610BDF0B4016CD1F800C00168F5
:1036D0000B6890F8442002F01F04042202FA04F55B
:1036E00015EA0C0F18BF13F0040F14D00B6813F079
:1036F000200F03D10B6823F004030B6090F84410F3
:1037000001F01F0102FA01F1026C5160016B002906
:1037100046D1F0BC7047022606FA04F212EA0C0FFA
:103720004FF000054FF0010218BF13F0020F17D041
:103730000B6813F0200F05D10B6823F00A030B6010
:1037400080F8252090F84410026C01F01F0106FA61
:1037500001F1516080F82450C16A09BBF0BC704788
:10376000082606FA04F414EA0C0F12BF13F0080F2F
:10377000F0BC70470B6823F00E030B6090F8441008
:10378000036C01F01F0102FA01F15960C26380F875
:10379000252080F82450416B002904BFF0BC7047FD
:1037A000F0BC084770B4002802BF012070BC70470D
:1037B000DFF8ECC001683B4A614508D23A4B0B4444
:1037C000A2FB03431B099B004364384B07E0384BC3
:1037D0000B44A2FB03431B099B004364354B03646A
:1037E000022380F825300B68D0E902452C43D0E94C
:1037F000045635432C4385696FF30E132C43C5697A
:103800002C43056A2C4323430B600368634534BF94
:1038100029492A49DBB2083BA2FB0332436C23F05F
:1038200003030B442649C0E91231C2F304110122FB
:1038300002FA01F10165D0F808C00021BCF5804F03
:1038400008BF416090F804C0C3F800C0D0E9133C41
:10385000C3F804C04368A3F1010CBCF1030F14D8F2
:10386000DFF860C0DBB20CEB830C5B1E03F01F03C0
:10387000154C02FA03F3C365C0E915C4CCF8001077
:10388000D0E9163CC3F804C002E041658165C1651A
:10389000C16380F8252080F8241070BC0020704798
:1038A00008040240CDCCCCCCF8FFFDBF00000240A4
:1038B000F8FBFDBF0004024000080240200802405F
:1038C00080080240FC0802404009024070B490F8B1
:1038D00024404FF0000C012C02BF022070BC704746
:1038E000012480F8244090F825600025012E1CBF9B
:1038F00080F824504FF0020C02D070BC6046704734
:10390000022680F82560C56305682E6826F001064A
:103910002E60D0E913566E60456D002D1CBFD0E9B6
:1039200016566E6090F8445005F01F05AC40056CCB
:103930006C60046863608368102B036803BF9A603F
:103940000268D16099601CBF0168CA60016B0029E0
:1039500001680A6818BF42F00E0206D122F0040284
:103960000A6001680A6842F00A020A60816C0A680B
:1039700012F4803F03D00A6842F480720A60416DFD
:1039800019B10A6842F480720A600068016841F067
:1039900001010160B1E7000070B5044600F06CFA67
:1039A0000546B4F1FF3F02D004484068044400F0EB
:1039B00063FA401BA042FAD370BD0000040000204F
:1039C0002DE9F047504F064689463878012804BF54
:1039D0000220BDE8F08701243C704FF47A70FEF7B6
:1039E0003FFB4FF0000800287ED1C7F80480474D08
:1039F000296811F4007F29680ED021F40071296034
:103A0000296811F4806F08BF3C7711D0296821F430
:103A10008061296003210AE011F4806F08BF87F8F4
:103A20001C8005D0296821F4806129600221397742
:103A30003168012923D04FF0FF31C9F80010D6E9D1
:103A400002412144A14235D9686920F4FC71E0B2F9
:103A500041EAC0006861686940F002006861686915
:103A600040F4803068614FF47A70FEF7F9FA6969C2
:103A700021F4FD716961B8B1C9F800401AE03079EC
:103A800010F0010F03D0686940F0040068616869B4
:103A900040F4803068614FF47A70FEF7E1FA6969AA
:103AA00021F00401696105E0D6E902121144641CA9
:103AB000A142C9D8397F012918BF03290BD12A682F
:103AC00042F400622A602A6822F400622A602A68AE
:103AD00042F400722A60022918BF03290DD1296817
:103AE00041F48051296000E009E0296821F4805107
:103AF0002960296841F48061296087F81C8087F873
:103B00000080BDE8F0870000100000200020024087
:103B1000054901204A6942F000424A61496911F0B1
:103B2000004F18BF00207047002002402DE9F047E9
:103B3000304E0546904630789A468946012804BFA3
:103B40000220BDE8F087012030704FF47A70FEF754
:103B500087FA0027002849D17760274C25B1012D2D
:103B600018BF022D11D033E0606940F001006061A0
:103B7000C9F80080BFF36F8F4FF001054FF47A70E2
:103B8000C9F804A0FEF76CFA2DE0606940F48020CB
:103B90006061EFF3108072B6D8F80010C9F8001019
:103BA000D8F80430C9F8043008F1040209F104011E
:103BB0005FF01F03D2F804C0C1F804C052F808CF68
:103BC00041F808CF5B1EF5D180F31088022D04D098
:103BD0004FF47A70FEF744FA08E04FF480254FF472
:103BE0007A70FEF73DFA6169A94361613770BDE8FB
:103BF000F08700001000002000200240084900204B
:103C00004A6912F0004F08BF7047064A8A60064AA8
:103C10008A60496911F0004F18BF01207047000009
:103C20000020024023016745AB89EFCD0B680022DD
:103C3000002B08BF70472DE9F84F01260325864C5D
:103C40000F2700BF0B6806FA02F813EA080300F01A
:103C5000FC80D1F804C0BCF1010F18BFBCF1020F09
:103C600005D0BCF1110F18BFBCF1120F1DD1D0F857
:103C700008904FEA420C05FA0CFA29EA0A09D1F831
:103C80000CA00AFA0CFC4CEA090CC0F808C0D0F8E9
:103C900004C02CEA080C91F80480C8F3001808FA54
:103CA00002F848EA0C0CC0F804C0D0F80C904FEAB7
:103CB000420CD1F808A005FA0CF829EA08090AFA1A
:103CC0000CFA4AEA0909C0F80C90D1F80490B9F14D
:103CD000020F18BFB9F1120F15D14FEAD20900EB4C
:103CE000890ADAF820B04FEA42794FEAD96907FA2F
:103CF00009FE2BEA0E0BD1F810E00EFA09F949EA99
:103D00000B09CAF82090D0F8009029EA080891F829
:103D1000049009F0030909FA0CFC4CEA080CC0F8FD
:103D200000C0D1F804C01CF0805F7CD0D4F860C023
:103D30004CF0010CC4F860C0D4F860C00CF0010C69
:103D4000CDF800C022F0030C0CF1804C0CF5803C47
:103D5000DCF808804FEA82794FEA197907FA09FA04
:103D600028EA0A08B0F1904F08BF4FF0000A28D0A7
:103D7000A0F1904ABAF5806A08BF4FF0010A20D03E
:103D8000A0F1904ABAF5006A08BF4FF0020A18D0B5
:103D9000A0F1904ABAF5406A08BF4FF0030A10D06C
:103DA000A0F1904ABAF5805A08BF4FF0040A08D033
:103DB000A0F1904ABAF5A05A0CBF4FF0050A4FF097
:103DC000060A0AFA09F949EA0808CCF80880DFF877
:103DD0008C80D8F800C0D1F804902CEA030C19F4B8
:103DE000803F18BF4CEA030CC8F800C0DFF87080B1
:103DF000D8F800C0D1F804902CEA030C19F4003F65
:103E000018BF4CEA030CC8F800C0DFF85880D8F897
:103E100000C0D1F804902CEA030C19F4801F18BFDD
:103E20004CEA030C00E010E0C8F800C0DFF838806E
:103E3000D8F800C0D1F804902CEA030C19F4001F44
:103E400018BF4CEA030CC8F800C00B68521CD340E2
:103E50007FF4F8AEBDE8F88F001002400004014086
:103E600004040140080401400C040140002A14BF6E
:103E700081618162704700000148806870470000DE
:103E80000400002002488168426811448160704744
:103E90000400002010B50024032000F087F8002063
:103EA00000F008F8002814BF012400F025F820468F
:103EB00010BD000070B50E4E05460024706898B124
:103EC0004FF47A71B1FBF0F00A490968B1FBF0F0E8
:103ED00000F008FF40B9102D06D200222946501EDE
:103EE00000F032F8356000E00124204670BD00008B
:103EF00004000020300000200A4882B0016E41F02A
:103F000001010166016E01F001010091816D41F036
:103F100080518165806D00F08050009002B000F00B
:103F200097B90000001002400028B8BF704700F0A9
:103F30001F01012202FA01F14009800000F1E02096
:103F4000C0F8001170470000174B10B41B68C3F392
:103F50000223C3F1070CBCF1040F88BF4FF0040C1F
:103F60001C1D072C34BF0023DB1E012404FA0CFCAB
:103F7000ACF1010C0CEA0101994004FA03F35B1E59
:103F80001A40114300284FEA0111A1BF00F1E020BF
:103F900080F8001410BC704700F00F0000F1E02022
:103FA00080F8141D10BC70470CED00E0074900F0CC
:103FB00007000A684FF6FF031A4042EA002040F06B
:103FC000FD7040F080600860704700000CED00E07C
:103FD00038B504004FF000051FBF94F83A000528DB
:103FE00094F83A00022804BF012038BD3148016E20
:103FF00041F001010166006E00F00100009094F8AC
:104000003A00002804BF002084F83900204600F060
:1040100055F8A1682848402918BF602921680A6816
:10402000E36A22F0100242EA03020A60D4E90112B4
:1040300041EA020122D0D4E9032342EA030241EA21
:104040000201227D012A0CBF4FF48072002211432D
:10405000626A1143A26A1143228E41EAC24194F876
:10406000342041EA026221680B681840104308605E
:104070002068816911F0004F13D108E0237D226987
:10408000012B0CBF4FF4807300231A43DFE7D4E900
:1040900006121143226A836923F03F031A43114336
:1040A000816194F83A00002804BF012084F83A00A6
:1040B000284638BD00100240113E00E000B587B030
:1040C0000021009101910291039104911F4B02681C
:1040D0001F4803219A420ED1C26C42F00102C26411
:1040E000C06C00F0010005900A20CDE9000169468E
:1040F0004FF0904026E0174B9A4211D1C26C42F02B
:104100000102C264C06C00F001000590A020CDE95E
:10411000000169464FF09040FFF788FD07B000BDF1
:104120000D4B9A421CBF07B000BDC26C42F00202A8
:10413000C264C06C00F0020005900520CDE90001CA
:1041400069460648FFF772FD07B000BD0003014055
:10415000001002400403014008030140000400482D
:10416000002100281CBF90F83A20052A03D090F8BF
:104170003A20012A02D001210846704702681368DC
:1041800043F001031360042280F83A20F4E70000B2
:104190002C4932222C4B09684A432C4950B1B0F5C6
:1041A000007F08682BD020F4C06040F48060086075
:1041B00000207047086800F4C060B0F5806FD1F847
:1041C000800020F4807002D0C1F88000F0E7C1F8D0
:1041D0008000086820F4C06040F400700860B2FB02
:1041E000F3F000F101004A6912F4806F1CBF00284F
:1041F000401EF8D1486910F4806F20D1D8E700F450
:10420000C060B0F5806FD1F8800040F48070DBD1E1
:10421000C1F88000086820F4C06040F400700860B5
:10422000B2FBF3F000F101004A6912F4806F1CBF89
:104230000028401EF8D1486910F4806FB8D04FF0C4
:10424000030070473000002040420F000070004023
:104250000248816841F480418160704700700040ED
:104260002DE9F843044600680027AC4D10F4002FF8
:104270006DD0A86D4FF0000810F0805F09D1A86DD7
:1042800040F08050A865A86D4FF0010800F0805004
:104290000090DFF88C92D9F8000040F48070C9F8E3
:1042A0000000FFF7E9FD0646D9F8000010F4807F12
:1042B0000AD100BFFFF7E0FD801B022831D8D9F8F2
:1042C000000010F4807FF5D0D5F8900010F4407015
:1042D0001CBF216C814211D0D5F89000D5F8901008
:1042E00020F4407041F48031C5F89010D5F890105A
:1042F00021F48031C5F89010C5F8900010F0010F3E
:1043000016D0FFF7B9FD0646D5F8900010F0020F61
:1043100008BF41F288390BD1FFF7AEFD801B48453D
:1043200001D903270CE0D5F8900010F0020FF3D06C
:10433000D5F89000216C20F440700843C5F8900037
:10434000B8F1000F03D0A86D20F08050A865207848
:1043500010F0010F07D0D5F88800616820F0030045
:104360000843C5F88800207810F0020F07D0D5F870
:104370008800A16820F00C000843C5F88800207868
:1043800010F0040F07D0D5F88800E16820F0300065
:104390000843C5F88800207810F0080F07D0D5F83A
:1043A0008800216920F0C0000843C5F88800207803
:1043B00010F0200F07D0D5F88800616920F4406024
:1043C0000843C5F88800207810F0400F07D0D5F8D2
:1043D0008800A16920F440500843C5F8880020787F
:1043E00010F0800F07D0D5F88800E16920F4404034
:1043F0000843C5F88800208810F4807F07D0D5F8DE
:104400008800216A20F440300843C5F888002088DD
:1044100010F4007F07D0D5F88800616A20F44020AE
:104420000843C5F88800208810F4806F0FD0D5F8B5
:104430008800A16A20F440100843C5F88800A06AEB
:10444000B0F5801F03D1E86840F48010E860208850
:1044500010F4006F0FD0D5F88800E16A20F4400016
:104460000843C5F88800E06AB0F5800F03D1E8681A
:1044700040F48010E860208810F4805F0FD0D5F8F9
:104480008800216B20F040700843C5F88800206B3D
:10449000B0F1807F03D1E86840F48010E8602088A4
:1044A00010F4005F0FD0D5F88800616B20F04060F9
:1044B0000843C5F88800606BB0F1006F03D1E8686D
:1044C00040F48010E860208810F4804F0FD0D5F8B9
:1044D0008800A16B20F040600843C5F88800A06BFD
:1044E000B0F1006F03D1E86840F48010E8602088E4
:1044F00010F4004F0FD0D5F88800E16B20F0405049
:104500000843C5F88800E06BB0F1805F03D1E8682C
:1045100040F48030E8603846BDE8F883001002407F
:1045200000700040704700002DE9F0470E4605007E
:104530004FF000087ED0764F386800F00F008642BA
:1045400009D9386820F00F0030433860386800F02F
:104550000F00B0426ED129686E4C11F0010F41F28C
:10456000883A66D06868DFF8B091032806D0022840
:10457000206832D010F4806F5CD031E0206810F0F9
:10458000007F57D0E06800F00302E068C0F303103A
:10459000401C032A19D0614AB2FBF0F0E268C2F372
:1045A00006225043E268C2F34162521C5200B0FB43
:1045B000F2F0484520D9A06810F0F00F14D011F0A7
:1045C000020F19D0A86878B116E0554AB2FBF0F096
:1045D000E268C2F306225043E4E710F4003F60D0E3
:1045E00000F0D2F8484507D9A06820F0F00040F06C
:1045F0008000A0604FF08008A068696820F0030088
:104600000843A060FFF738FC8146A068696800F0A5
:104610000C00B0EB810F0CD0FFF72EFCA0EB0900D3
:1046200050453BD8A068696800F00C00B0EB810FE2
:10463000F2D100E035E0286810F0020F34D010F01D
:10464000040F03D0A06840F4E060A060287810F068
:10465000080F05D0A06820F4605040F4E060A0602E
:10466000A068A96820F0F0000843A060386800F056
:104670000F00B04225D9386820F00F003043386071
:10468000FFF7FAFB8046386800F00F00B04218D000
:10469000FFF7F2FBA0EB080050450DD90320BDE861
:1046A000F0870120BDE8F087B8F1800F04BFA06853
:1046B00020F0F000DAD1D8E7386800F00F00B042FF
:1046C000E6D1287810F0040F05D0A068E96820F43E
:1046D000E0600843A060287810F0080F06D0A068BA
:1046E000296920F4605040EAC100A06000F04CF855
:1046F000A1680C4AC1F30311515C01F01F01C840CD
:104700000949086009480068BDE8F047FFF7D2BBD7
:10471000002002400010024000B4C4040024F40051
:1047200000127A007EDD0008300000200400002026
:104730000248016841F40021016070470010024006
:104740000548064900688968054AC1F30221515CA1
:1047500001F01F01C84070473000002000100240E7
:104760008EDD00080548064900688968054AC1F3DE
:10477000C221515C01F01F01C84070473000002089
:10478000001002408EDD00081849886800F00C0215
:104790001748042A08BF70478A6802F00C03154ABC
:1047A000082B04BF104670478B684FF00C0C3CEA96
:1047B00003031CBF00207047CB6803F0030CCB68D9
:1047C000C3F303135B1CBCF1030F14BFB0FBF3F086
:1047D000B2FBF3F0CA68C968C2F306225043C1F3C2
:1047E0004161491C4900B0FBF1F0704700100240E4
:1047F0000024F40000127A0010B5064CE06910F4B1
:10480000807F08BF10BDFFF78DFE4FF480702062DF
:1048100010BD000000100240002804BF01207047B6
:104820002DE9F84305460078FF4F10F0010F55D0F1
:10483000B868F96800F00C0001F003010C2802D000
:10484000082820D001E003291DD06868B0F5803F1A
:1048500022D0B0F5A02F38680CBF40F4802020F49F
:104860008030386038680CBF40F4803020F48020FD
:104870003860686800B3FFF7FFFA0446386810F440
:10488000003F0ED02AE0386810F4003F26D0686858
:10489000002800F0208221E0386840F48030386041
:1048A000E7E7FFF7E9FA001B642800F28481386823
:1048B00010F4003FF5D011E0FFF7DEFA0446386847
:1048C00010F4003F0AD000BFFFF7D6FA001B64289F
:1048D00000F27181386810F4003FF5D1287810F0AB
:1048E000020F58D0B86800F00C01F8680C2900F0ED
:1048F000030002D0042911D001E002280ED0E8689C
:104900000028386833D040F480703860FFF7B4FA7C
:104910000446386810F4806F17D020E0386810F42F
:10492000806F03D0E868002800F0D5817868297C82
:1049300020F0FE4040EA01607860BC480068FFF764
:10494000B9FA002840F0C78125E0FFF795FA001B6F
:10495000022800F23081386810F4806FF5D0786852
:10496000297C20F0FE4040EA0160786013E020F4EA
:1049700080703860FFF780FA0446386810F4806F62
:1049800009D000BFFFF778FA001B02287ED83868EC
:1049900010F4806FF6D1287810F0080F32D06869D3
:1049A0000028D7F8940016D040F00100C7F8940012
:1049B000FFF762FA0446D7F8940010F0020F21D1F5
:1049C000FFF75AFA001B022860D8D7F8940010F0BD
:1049D000020FF5D016E020F00100C7F89400FFF7B1
:1049E0004BFA0446D7F8940010F0020F0AD000BF2B
:1049F000FFF742FA001B022848D8D7F8940010F0BD
:104A0000020FF5D1287810F0040F78D0B86D4FF070
:104A1000000810F0805F09D1B86D40F08050B86593
:104A2000B86D4FF0010800F080500090804E306863
:104A300010F4807F13D1306840F480703060FFF74D
:104A40001BFA0446306810F4807F08D1FFF714FA8F
:104A5000001B02281AD8306810F4807FF6D0A868AE
:104A6000012821D00528D7F890000CBF40F00400A1
:104A700020F00100C7F89000D7F890000CBF40F07C
:104A8000010020F00400C7F8900000E093E0A8685F
:104A900041F28836D0B1FFF7EFF90446D7F890001D
:104AA00010F0020F07D023E0D7F8900040F001008B
:104AB000C7F89000E9E7FFF7DFF9001BB0427AD8AA
:104AC000D7F8900010F0020FF5D011E0FFF7D4F9FD
:104AD0000446D7F8900010F0020F09D0FFF7CCF988
:104AE000001BB04267D8D7F8900010F0020FF5D144
:104AF000B8F1000F03D0B86D20F08050B865287869
:104B000010F0200F32D0A8690028D7F8980016D0EE
:104B100040F00100C7F89800FFF7AEF90446D7F857
:104B2000980010F0020F21D1FFF7A6F9001B022810
:104B300041D8D7F8980010F0020FF5D016E020F019
:104B40000100C7F89800FFF797F90446D7F89800D6
:104B500010F0020F0AD000BFFFF78EF9001B0228E9
:104B600029D8D7F8980010F0020FF5D1E869E8B31A
:104B7000B9683C460C2232EA01017BD00228206849
:104B800020F08070206019D0E06820F00300E06021
:104B9000E06820F4881020F08070E060FFF76CF986
:104BA0000546206810F0007F20D000BFFFF764F9B1
:104BB000401B022859D90320BDE8F883FFF75CF9B0
:104BC0000646206810F0007F09D000BFFFF754F9B7
:104BD000801B0228EFD8206810F0007FF6D1D5E9BD
:104BE00008016FF00F0202EB011100E076E00843CC
:104BF000298E5204490802EB4151AA6A41EA022176
:104C0000084395F834104FF07E42490802EB4161A9
:104C1000084395F82C1040EAC160E168054A11404C
:104C20000843E060206807E0001002400400002014
:104C3000007000400C809F0140F080702060E068B0
:104C400040F08070E060FFF717F90546206810F02B
:104C5000007F43D1FFF710F9401B0228ABD8206832
:104C600010F0007FF6D039E004E0206810F0007FFB
:104C70009CD133E0012808BFBDE8F883E0682A6AC8
:104C800000F00301914226D1696A00F0F0020901A7
:104C9000103991421FD1AA6A00F4FE41B1EB022FF4
:104CA00019D195F82C2000F07841B1EBC26F12D1E8
:104CB000298E00F4C00249084905A1F5001191426E
:104CC00009D195F8341000F0C06049084906A1F1F7
:104CD0000071814202D00120BDE8F8830020BDE8C8
:104CE000F8830000411EB1F1807F24BF012070478E
:104CF0004FF0E0204161054AF02182F8141D0021A7
:104D00008161072101610020704700000FE000E091
:104D1000704770477047000090F83C20012A04BF9C
:104D20000220704730B4012280F83C20CA688B68AA
:104D300022F440721A434B6822F480621A430B68D3
:104D400022F400621A430B6922F480521A434B6921
:104D500022F400521A430B6B22F480421A430B8B4D
:104D600022F4702242EA0342DFF860C00368184C64
:104D7000634518BFA34204D1CD6922F0805242EAB4
:104D80000502634518BFA34217D10D8D22F47002AE
:104D900042EA05520D6A22F0807242EA05024D6A2B
:104DA00022F0007242EA0502634518BFA34204D113
:104DB000C96A22F0005242EA01025A644FF000012F
:104DC00080F83C1030BC084670470000002C0140C1
:104DD0000034014070470068416D41F40031416585
:104DE000002070477047704790F83C20012A04BFAC
:104DF00002207047F0B44FF0010C80F83CC0022252
:104E000080F83D200268536894681B4D1B4EAA42EF
:104E100018BFB24204D14F6823F4700347EA03037A
:104E200023F070030F6823F0007347EA0303536015
:104E30000268AA4218BFB2F1804F10D0A2F180439D
:104E4000B3F580631CBFA2F18043B3F5006306D0C5
:104E5000B2421CBFA2F18043B3F5A03304D18968EC
:104E600024F080031943916080F83DC0002180F850
:104E70003C10F0BC08467047002C01400034014053
:104E8000022361B1042944D008294AD090F8472070
:104E9000012A08BF80F8473008D00120704790F8F9
:104EA0004420012A08BF80F84430F6D101F01F03E6
:104EB000026804219940136A8B431362136A1943F1
:104EC000116201684A6C42F400424A640068A0F131
:104ED0008041B1F5963118BFB0F1804F29D0A0F1D3
:104EE0008041B1F580611CBFA0F18041B1F5006146
:104EF0001FD0A0F18041B1F59A311CBFA0F18041D3
:104F0000B1F5A03115D0016841F001010160002028
:104F1000704790F84520012A08BF80F84530BCD181
:104F2000C4E790F84620012A08BF80F84630B4D183
:104F3000BCE78168034A1140062918BFB1F5803FDC
:104F4000E5D0E0E70700010030B40268002301F07B
:104F50001F0C0424156A04FA0CF425EA04041462F4
:104F6000146A03FA0CF3234313620268D2F820C0D8
:104F700041F211131CEA030F44F2444C04BF146ABB
:104F800014EA0C0F03D1546C24F4004454640268F6
:104F9000146A1C4204BF136A13EA0C0F03D113688E
:104FA00023F0010313600122002908BF80F8442088
:104FB0000AD0042908BF80F8452005D008290CBF75
:104FC00080F8462080F84720002030BC70477047AA
:104FD000002804BF0120704710B5044690F83D003A
:104FE00028B9002084F83C00204600F023F8022075
:104FF00084F83D00211D206802F00EF8012084F89D
:10500000480084F83E0084F83F0084F8400084F8AB
:10501000410084F8420084F8430084F8440084F896
:10502000450084F8460084F8470084F83D000020DD
:1050300010BD000000B587B00021009101910291E0
:105040000391049101683348A1F18042B2F5963290
:1050500018D0B1F1804F36D0A1F18042B2F5A03224
:105060001FD0A1F18042B2F5A2321CBF07B000BD33
:10507000016E41F400310166006E00F400300590CD
:1050800007B000BD016E41F400610166006E0022B0
:1050900000F40060059011461820FEF755FF182017
:1050A00033E0016E41F480310166006E002200F4AD
:1050B0008030059011461820FEF746FF1820FEF7B5
:1050C00033FF07B000BD816D41F001018165816D45
:1050D00001F001010591C16C41F00101C164C06C96
:1050E000694600F0010005904FF400400090022056
:1050F0000190012004904FF09040FEF797FD0022B0
:1051000011461C20FEF720FF1C20FEF70DFF07B004
:1051100000BD00000010024090F83D1001291CBFA6
:1051200001207047022180F83D100068A0F1804105
:10513000B1F5963118BFB0F1804F19D0A0F1804180
:10514000B1F580611CBFA0F18041B1F500610FD0C5
:10515000A0F18041B1F59A311CBFA0F18041B1F5B9
:10516000A03105D0016841F00101016000207047C5
:105170008168044A1140062918BFB1F5803FF5D077
:10518000F0E700000700010090F83D1001291CBF66
:1051900001207047022180F83D100168CA6842F082
:1051A0000102CA600068A0F18041B1F5963118BFD4
:1051B000B0F1804F19D0A0F18041B1F580611CBFE2
:1051C000A0F18041B1F500610FD0A0F18041B1F5AF
:1051D0009A311CBFA0F18041B1F5A03105D0016822
:1051E00041F001010160002070478168034A1140CD
:1051F000062918BFB1F5803FF5D0F0E707000100A0
:1052000090F83C20012A0DBF0220012380F83C3099
:10521000704730B4022280F83D200268D2F808C0FE
:105220002CF0770C2CF4441C2CF47F4CC2F808C0F2
:105230000A68702A27D00DDC12F00F0F4BD14FEA0D
:10524000221CBCF1070F46D2DFE80CF0A3A3A3A3F6
:1052500085466500594CA2EB040CA2427AD009DCC9
:10526000B2F5805F37D0B2F5005F20D0B2F1101FE9
:1052700070D09AE0BCF1100F1CBFBCF1200FBCF144
:10528000500F28D185E00268D1F804C08C68C96845
:1052900095684CEA012125F47F4541EA040141EA81
:1052A0000501916001688A6842F0770212E00268A5
:1052B000D1F804C08C68C96895684CEA012125F4CE
:1052C0007F4541EA040141EA0501916001688A686D
:1052D00042F480428A6068E00268D1F804C0C9687C
:1052E000146A156A25F001051562956924F00A040F
:1052F00025F0F00545EA011144EA0C0C9161C2F871
:1053000020C001688A6822F0700222F4401242F044
:1053100057028A6049E00268D1F804C0C968146A7B
:1053200024F0100414629469156A24F4704444EA69
:10533000013125F0A00444EA0C1C9161C2F820C0A0
:1053400001688A6822F0700222F4401242F067027B
:105350008A602AE01DE00268D1F804C0CC68116AB6
:10536000156A25F001051562956921F00A0125F0FD
:10537000F00545EA041441EA0C01946111620168E8
:105380008A6822F0700222F4401242F047028A60DA
:105390000BE00168D1F808C02CF0700C2CF4401C14
:1053A0004CEA020242F007028A6080F83D304FF07A
:1053B000000180F83C1030BC084670472000100007
:1053C00070472DE9F00190F83C30012B02BF02201C
:1053D000BDE8F0017047012380F83C304FF0F00C3D
:1053E000002A36D04FF47043042A78D0082A026885
:1053F00074D0D1E90054D1F80CC0166A26F4805656
:105400001662D769166A27F4407747EA042403EA4C
:105410000C3324F4704423434FF4204426F4204CEE
:1054200004EA053444EA0C0CD361C2F820C00268D7
:10543000D36923F44063D3610268D369896843EA7E
:105440000121D161002180F83C10BDE8F00108463F
:1054500070470268D1E90057CC68136A23F0010352
:1054600013629369166AA2F18048B8F5963818BF9E
:10547000B2F1804F15D0A2F18048B8F580681CBF0A
:10548000A2F18048B8F500680BD0A2F18048B8F5C9
:105490009A381EBFA2F18048B8F5A03843F0010346
:1054A00002D123F003033B430CEA041C23F0F00376
:1054B0004CEA030326F00A0C05F00A0444EA0C0C3B
:1054C0009361C2F820C00268936923F00C039361D2
:1054D000026893698968194329E000E029E00268BD
:1054E000D1E90054D1F80CC0166A26F010061662F5
:1054F0009769166A27F4407747EA042403EA0C33D5
:1055000024F470442343A02426F0A00C04EA0514DC
:1055100044EA0C0C9361C2F820C00268936923F43A
:105520004063936102689369896843EA012191614C
:1055300088E7D1E90054CB68166A26F480761662B3
:10554000D769166A27F003073C430CEA031324F0DB
:10555000F00423434FF4206426F4206C04EA05246D
:1055600044EA0C0CD361C2F820C00268D36923F06E
:105570000C03D3610268D3698968194361E7002885
:1055800004BF0120704710B5044690F83D0028B9CB
:10559000002084F83C00204600F022F8022084F825
:1055A0003D00211D206801F037FD012084F84800EE
:1055B00084F83E0084F83F0084F8400084F84100FD
:1055C00084F8420084F8430084F8440084F84500DD
:1055D00084F8460084F8470084F83D00002010BDA0
:1055E00070470000002904BF90F83E2090F8443036
:1055F0001AD0042904BF90F83F2090F8453013D00A
:10560000082904BF90F8402090F846300CD00C29AF
:1056100008BF90F8412005D010290CBF90F8422017
:1056200090F8432090F84730012A0EBF012B01204B
:1056300070474FF00202002904BF80F83E2080F836
:1056400044201AD0042904BF80F83F2080F8452068
:1056500013D0082904BF80F8402080F846200CD0E1
:105660000C2908BF80F8412005D010290CBF80F814
:10567000422080F8432080F8472001F01F03026891
:1056800001219940136A8B431362136A1943116213
:105690000068A0F18041B1F5963118BFB0F1804F9C
:1056A00019D0A0F18041B1F580611CBFA0F180410B
:1056B000B1F500610FD0A0F18041B1F59A311CBF66
:1056C000A0F18041B1F5A03105D0016841F00101A0
:1056D0000160002070478168034A1140062918BF05
:1056E000B1F5803FF5D0F0E70700010070B5044642
:1056F000006801694FF0000511F0020F1CBFC1687E
:1057000011F0020F13D06FF0020101610120207728
:105710002068806910F0030F204602D0FFF750FE8A
:1057200004E000F039F9204600F01CFB25772068E2
:10573000016911F0040F1CBFC16811F0040F13D0F0
:105740006FF004010161022020772068806910F465
:10575000407F204602D0FFF733FE04E000F01CF942
:10576000204600F0FFFA25772068016911F0080F44
:105770001CBFC16811F0080F13D06FF00801016160
:10578000042020772068C06910F0030F204602D063
:10579000FFF716FE04E000F0FFF8204600F0E2FA02
:1057A00025772068016911F0100F1CBFC16811F046
:1057B000100F13D06FF010010161082020772068CE
:1057C000C06910F4407F204602D0FFF7F9FD04E0E5
:1057D00000F0E2F8204600F0C5FA2577206801695C
:1057E00011F0010F1CBFC16811F0010F05D06FF05F
:1057F00001010161204600F0ADFB2068016911F054
:10580000800F1CBFC16811F0800F05D06FF08001C0
:1058100001612046FFF77DFA2068016911F4807F5D
:105820001CBFC16811F0800F05D06FF48071016159
:105830002046FFF76DFA2068016911F0400F1CBF88
:10584000C16811F0400F05D06FF0400101612046A2
:1058500000F0E1FB2068016911F0200F1CBFC16856
:1058600011F0200F05D06FF0200101612046FFF7F5
:1058700051FA2068016911F4801F1CBFC16811F43E
:10588000801F05D06FF4801101612046FFF7AAFA4E
:105890002068016911F4001F1CBFC16811F4001FCA
:1058A00005D06FF4001101612046FFF793FA2068DC
:1058B000016911F4800F1CBFC16811F4800F05D07D
:1058C0006FF4800101612046FFF78DFA20680169BD
:1058D00011F4000F1ABFC16811F4000F70BD6FF40E
:1058E000000101612046BDE87040FFF770BB000079
:1058F00070B586B00024009401940294039404943B
:105900000068A0F18041B1F596311CBF06B070BDB2
:105910001E48C16C41F00401C164C16C01F0040176
:105920000591C16C41F00201C164C16C01F002013A
:105930000591C16C41F00101C164C06C022500F009
:10594000010005904FF40050CDE90005042669469A
:1059500004960F48FEF76AF9A8030090CDE90154B8
:10596000CDE9034669460B48FEF760F94FF4B8509D
:105970000090CDE901540620CDE9034069464FF07F
:105980009040FEF753F906B070BD000000100240D1
:105990000008004800040048704700002DE9F04767
:1059A000054690F83C000C4601280DBF022001205E
:1059B00085F83C00BDE8F087DFF830C3CC4ECD4F12
:1059C000CD49CE4B0C2A00F0C48006DC6AB1042A13
:1059D0005ED0082A71D000F083B9102A00F0068149
:1059E000142A00F0408100F07BB92868026A22F096
:1059F00001020262026AD0F80480D0F81890D4F84C
:105A000000A029F0730929F480394AEA0909D4F879
:105A100008A022F002024AEA0202884218BF984215
:105A200004D060451CBFB042B84207D1D4F80CA0E6
:105A300022F008024AEA020222F00402884218BF59
:105A4000984204D060451CBFB042B84207D1636998
:105A500028F4407143EA0101A36943EA0108C0F850
:105A60000480C0F818906168416302622868816907
:105A700041F0080181612868816921F00401816198
:105A800028688169226941EA0201816100F028B930
:105A90002146286801F01AFB2868816941F40061F9
:105AA00081612868816921F4806181612868816948
:105AB000226941EA0221E8E7FFE72868026A22F446
:105AC00080720262026AD0F80480D0F81C90D4F888
:105AD00000A029F0730929F480394AEA0909D4F8A9
:105AE00008A022F4007242EA0A22884218BF9842B3
:105AF00007D1D4F80CA022F4006242EA0A2222F470
:105B00008062884218BF984204D060451CBFB042F2
:105B1000B84207D1636928F4405141EA0311A369EF
:105B200041EA0318C0F80480C0F81C906168C163A2
:105B300002622868C16941F00801C1612868C16931
:105B400021F00401C1612868C169226941EA0201AA
:105B50004AE02868026A22F480520262026AD0F89F
:105B60000480D0F81C90D4F800A029F4E64929F06C
:105B7000807949EA0A29D4F808A022F4005242EABE
:105B80000A32884218BF984207D1D4F80CA022F4F8
:105B9000004242EA0A3222F48042884218BF984208
:105BA00004D060451CBFB042B84207D1636928F4F5
:105BB000404141EA8311A36941EA8318C0F8048097
:105BC000C0F81C906168016402622868C16941F4F0
:105BD0000061C1612868C16921F48061C1612868E0
:105BE000C169226941EA0221C16179E02868026A3B
:105BF00022F480320262D0F820904268D0F85080BF
:105C0000D4F800A028F0700828F480384AEA080880
:105C1000B4F808A029F4003949EA0A49884218BFB3
:105C2000984204D060451CBFB042B84204D122F46F
:105C30008031626941EA02224260C0F850806168A6
:105C40008164C0F820902868016D41F00801016569
:105C50002868016D21F0040101652868016D226941
:105C600041EA02013BE02868026A22F480120262E3
:105C7000D0F820904268D0F85080D4F800A028F4E2
:105C8000E04828F0807848EA0A28B4F808A029F407
:105C9000001949EA0A59884218BF984204D0604561
:105CA0001CBFB042B84204D122F48021626941EAAB
:105CB00082224260C0F850806168C164C0F82090C0
:105CC0002868016D41F4006101652868016D21F4C7
:105CD000806101652868016D226941EA0221016540
:105CE0004FF0000085F83C00BDE8F087004001401F
:105CF0000044014000480140002C014000340140B4
:105D0000002804BF0120704710B5044690F83D00FC
:105D100028B9002084F83C00204600F022F8022038
:105D200084F83D00211D206801F076F9012084F8F7
:105D3000480084F83E0084F83F0084F8400084F86E
:105D4000410084F8420084F8430084F8440084F859
:105D5000450084F8460084F8470084F83D000020A0
:105D600010BD704770470000022381B1042916D08E
:105D700008291CD00C2922D0102928D090F84320C3
:105D8000012A08BF80F8433028D00120704790F8DE
:105D90003E20012A08BF80F83E30F6D11EE090F880
:105DA0003F20012A08BF80F83F30EED116E090F87E
:105DB0004020012A08BF80F84030E6D10EE090F87C
:105DC0004120012A08BF80F84130DED106E090F87A
:105DD0004220012A08BF80F84230D6D110B401F029
:105DE0001F03026801219940136A8B431362136AEF
:105DF000194311621E4B0168DFF878C01E4A9942B0
:105E000018BF61450AD091421FBFA1F18044B4F58B
:105E1000A234A1F18044B4F5A43403D14C6C44F411
:105E200000444C640068984218BFB0F1804F0DD018
:105E3000A0F18041B1F580611CBFA0F18041B1F5B6
:105E4000006103D0604518BF904208D181680B4AB9
:105E500001EA0201062918BFB1F5803F03D00168AD
:105E600041F00101016010BC4FF0000070470000DC
:105E7000002C0140003401400040014007000100B7
:105E800070B4026801F01F040123166A4FF0000C81
:105E900003FA04F526EA05051562156A0CFA04FCF6
:105EA00045EA0C0CC2F820C0026841F2111CA2F1B4
:105EB000804544F24444B5F596351CBFA2F18045B7
:105EC000B5F59A350DD0A2F18045B5F5A0351FBFC7
:105ED000A2F18045B5F5A235A2F18045B5F5A4350E
:105EE0000AD1156A15EA0C0F04BF156A254203D1C1
:105EF000556C25F4004555640268156A15EA0C0FC7
:105F000004BFD2F820C01CEA040F05D1D2F800C0AB
:105F10002CF0010CC2F800C0002908BF80F83E3008
:105F200014D0042908BF80F83F300FD0082908BFDB
:105F300080F840300AD00C2908BF80F8413005D0E5
:105F400010290CBF80F8423080F84330002070BC2C
:105F50007047000010B51649164C2DED028B0268F3
:105F600009688A4203D14A6BA261896BE1611249D7
:105F70000068096888421CBFBDEC028B10BD9FED14
:105F80000F8AE068B0EE480A06F0AEFCB0EE480AB0
:105F9000E06803F055FF20690528D8BF401C03DDE9
:105FA000E06804F0E9F800202061BDEC028B10BD30
:105FB000080300204C000020540300206F12833A95
:105FC00070B5044690F83C00012804BF022070BD63
:105FD000012584F83C50022084F83D00204601F061
:105FE000BDF801004FF0000005D084F83D5084F862
:105FF0003C00012070BD2168CA6822F04002CA60DE
:106000002168CA6822F48042CA6084F83D5084F84E
:106010003C00002070BD704790F87C10012904BF3F
:1060200002207047012180F87C102421C0F88010E4
:1060300001680A680B6823F001030B6022F000512D
:1060400000224266036819602021C0F8801080F8A1
:106050007C2010467047000090F87C10012904BF96
:106060000220704710B4012185B080F87C102422F2
:10607000C0F8802002681368D2F800C02CF0010C30
:10608000C2F800C043F000524B07436603681A6031
:106090001BA3D3E90023CDE900231BA3D3E90023ED
:1060A000CDE90223426E002A04BFA0F86A10A0F8CE
:1060B00068101AD0026891689268C1F34261520F69
:1060C0001DF802C04FEACC040DF1080C1CF80220A8
:1060D000B4FBF2F4A0F86A401DF801201CF801108E
:1060E000D200B2FBF1F2A0F868202021C0F88010A5
:1060F000002180F87C1005B0084610BC70470000F5
:106100000101010307010000080402040801010164
:106110007047000090F87C20012A04BF02207047DD
:1061200030B4012384B080F87C302422C0F8802071
:106130000268D2F800C0146824F0010414600268F8
:10614000946824F06064214391601B49D1E90021E7
:10615000CDE90021194AD2E90012CDE90212416EBF
:10616000002904BFA0F86A30A0F8683016D0016892
:106170008A688968C2F34262490F1DF80140E50050
:1061800002AC615CB5FBF1F5A0F86A501DF8021095
:10619000A25CC900B1FBF2F2A0F868200168C1F866
:1061A00000C02021C0F88010002180F87C1004B0CD
:1061B000084630BC70470000006100080861000814
:1061C00090F87C20012A04BF0220704730B40123DC
:1061D00084B080F87C302422C0F880200268D2F895
:1061E00000C0146824F0010414600268946824F06C
:1061F0006044214391601B49D1E90021CDE9002190
:10620000194AD2E90012CDE90212416E002904BFF9
:10621000A0F86A30A0F8683016D001688A688968EA
:10622000C2F34262490F1DF80140E50002AC615C17
:10623000B5FBF1F5A0F86A501DF80210A25CC90088
:10624000B1FBF2F2A0F868200168C1F800C020217B
:10625000C0F88010002180F87C1004B0084630BCE3
:10626000704700000061000808610008704770472F
:10627000704700002DE9F04103680446D8691968A9
:106280009A6840F60F0C10EA0C0F4FF000054FF023
:1062900020060FD110F0200F7ED001F0200C02F06C
:1062A00080575CEA070C77D0E16E002908BFBDE893
:1062B000F081C8E0DFF8E8C17A4F02EA0C0C0F4029
:1062C0005CEA070768D010F0010F18BF11F4807F57
:1062D00007D001271F62D4F8883043F00103C4F8C7
:1062E000883010F0020F18BF12F0010F08D0276895
:1062F00002233B62D4F8883043F00403C4F88830AA
:1063000010F0040F18BF12F0010F08D02768042303
:106310003B62D4F8883043F00203C4F8883010F0B0
:10632000080F1CBF01F0200353EA0C030AD0D4F875
:1063300000C00823CCF82030D4F8883043F008039C
:10634000C4F8883010F4006F18BF11F0806F0BD0C4
:10635000D4F800C04FF40063CCF82030D4F8883073
:1063600043F02003C4F88830D4F88830002B08BFED
:10637000BDE8F08110F0200F09D001F0200002F0FC
:10638000805108431FBFE16E002920468847D4F89A
:1063900088102068826800E038E012F0400F08BFE3
:1063A00011F0280F2BD0016821F490710160206852
:1063B000816821F0010121F080518160C4F884607E
:1063C000E5662068816811F0400F13D0816821F0E4
:1063D00040018160A06F68B133498163A06FFDF710
:1063E00029F9002808BFBDE8F081A06F816BBDE8E6
:1063F000F04108472046FFF73BFFBDE8F08120460B
:10640000FFF736FFC4F88850BDE8F08110F4801F14
:1064100018BF12F4800F07D04FF480101862204686
:10642000BDE8F041FFF723BF10F0800F0FD001F05F
:10643000800C02F400025CEA020208D0216F0029FD
:1064400008BFBDE8F0812046BDE8F041084710F0E4
:10645000400F18BF11F0400F0BD01968204621F0F3
:1064600040011960C4F88060256700F09FF9BDE81D
:10647000F08110F4000F18BF11F0804F04D02046B7
:10648000BDE8F041FFF7F2BE10F0807F14BF11F0BD
:10649000004FBDE8F0812046BDE8F041FFF738BE6F
:1064A000010000102001000491730008002804BFBF
:1064B0000120704710B50446D0F8800028B90020AC
:1064C00084F87C00204600F029F82420C4F88000DD
:1064D0002068016821F001010160204601F072F896
:1064E000012808BF10BDA06A00281CBF204600F08C
:1064F000B1FE2068416821F49041416020688168C4
:1065000021F02A0181602068016841F001010160E9
:106510002046BDE8104000F00ABF000000B587B07B
:106520000021009101910291039104910068A0F172
:106530008041B1F588411CBF07B000BD1248816D94
:1065400041F400318165816D01F400310591C16C28
:1065500041F00201C164C06C694600F00200059080
:106560001820009002200190072004900748FDF7B2
:106570005DFB00220F212620FDF7E6FC2620FDF71B
:10658000D3FC07B000BD000000100240000400482A
:1065900010B4D0F88430202B7AD1002911BF002A02
:1065A000012010BC704790F87C30012B70D0012383
:1065B00080F87C308165A0F85C20A0F85E20002186
:1065C000C16683684FF0FF0CB3F5805F19D07F245C
:1065D000F3B1B3F1805F18BFA0F860101DD000BF09
:1065E000C0F888102223C0F884300368D3F808C0AC
:1065F0004CF0010CC3F808C0436EB3F1005F35D115
:1066000016E00369002B08BF40F2FF1302D109E036
:10661000036953B9A0F860C0E2E70369002B18BF13
:106620003F2302D0A0F86030DAE7A0F86040D7E757
:10663000B0F86830934219D88268B2F5805F05BF20
:106640000269002A144A154AC26680F87C10016863
:106650000A6842F480720A600068816841F08051E3
:10666000C0F8081010BC4FF0000070478268B2F507
:10667000805F05BF0269002A094A0A4AC26680F89B
:106680007C100068016841F490710160EAE7FFE75F
:1066900010BC4FF002007047157500080574000823
:1066A000B5740008A573000810B50068A0F180411A
:1066B000B1F5884118BF10BD012205490548FFF713
:1066C00067FF03480178BDE81040034804F062BD4D
:1066D000C0000020EC030020C06500202DE9F84335
:1066E0000446D0F880001F4615460E4620285AD191
:1066F000002E12BF002D0120BDE8F88394F87C0025
:10670000012850D0012084F87C004FF00009C4F823
:1067100088902120C4F88000FDF7AEFBA4F8545007
:106720008046A4F85650A068B0F5805F03BF20698A
:1067300000280025354618BF002684F87C90B4F860
:106740005600C0B143464FF000024FF08001204692
:10675000009701F077F8B0B9C5B1216815F8010BC1
:10676000C1F82800B4F85600401EA4F85600B4F84A
:1067700056000028E6D143460022402120460097DB
:1067800001F060F848B10320BDE8F88336F8020B49
:106790002168C0F308008862E4E72020C4F8800084
:1067A0000020BDE8F8830220BDE8F8837047FEE7CB
:1067B00070B59CB000241A94189419940194029412
:1067C00003940094049406940794089405940994FF
:1067D0000B940C940D9447480A940E9410941194C1
:1067E000129413941494159416944FF0A041179496
:1067F00001604FF44031C0E9011404258561012195
:10680000C460C0E90441047741770321016280F844
:1068100024404FF4B861C1622902016380F8384016
:106820008900C16380F84040FCF7B6FC002818BF1F
:10683000FBF713FC18A92F481894FCF747F8002819
:1068400018BFFBF70AFC2C4800907F26092003960E
:10685000CDE90104CDE904540220089084200A9077
:106860008DF8244080208DF825400B908DF826402F
:106870008DF8304069461F48FBF728FC002818BFF8
:10688000FBF7EBFB1D48009040F20F1001906946AA
:106890001848FBF71BFC002818BFFBF7DEFB184865
:1068A000109006201396CDE91104CDE9145410A9D7
:1068B0001048FCF77BF8002818BFFBF7CEFB114807
:1068C00010900C20119010A90A48FCF76FF80028CE
:1068D00018BFFBF7C2FB0C4810901220119010A9B2
:1068E0000448FCF763F8002818BFFBF7B6FB1CB0A0
:1068F00070BD0000D0000020002090B60040C03ADB
:10690000020030042000F0140008302E30B58FB0A3
:10691000002400940194029403940494384805944C
:1069200006940794089409940A940B940C940D947B
:1069300032490E9401604FF44031C0E9011404253E
:1069400085610121C460C0E9044104774477016294
:1069500080F8244080F838400903C16380F8404043
:10696000FCF71AFC002818BFFBF777FB25480090BE
:106970000920CDE901047F200594CDE90305842099
:106980000A908DF8244080208DF825400B900895C2
:106990008DF826408DF8304069461948FBF796FB84
:1069A000002818BFFBF759FB1748009040F20F1062
:1069B000019069461248FBF789FB002818BFFBF7D6
:1069C0004CFB1248009040F21520019069460C489B
:1069D000FBF77CFB002818BFFBF73FFB0C4800903F
:1069E00040F21B30019069460548FBF76FFB002819
:1069F00018BFFBF732FB0FB030BD000000010050A4
:106A00003C010020000029C300008CCB000052474D
:106A10002000F0140D4808B5816C41F00401816438
:106A2000816C01F004010091816C41F001018164ED
:106A3000806C002200F00100009011460B20FDF751
:106A400083FABDE808400B20FDF76EBA0010024043
:106A500030B587B000242048009401940294039438
:106A60000494C16C41F00401C164C16C01F00401E3
:106A70000591C16C41F02001C164C16C01F020019D
:106A80000591C16C41F00101C164C16C01F00101CB
:106A90000591C16C41F00201C164C06C0F4D00F062
:106AA00002000590002240212846FDF7DFF94FF44F
:106AB0000050CDE90004694609480294FDF7B6F894
:106AC00001214020CDE90214CDE9000169462846A4
:106AD000FDF7ACF807B030BD0010024000080048D8
:106AE000000400480E4810B50C4901608021416047
:106AF000402181600021012201610275520442623D
:106B000081614FF44042C0E90A21FDF761FA002893
:106B100008BF10BDBDE81040FBF79FBA000301405D
:106B2000080200200E4810B50C4901608021416028
:106B300040218160002101220161027552044262FC
:106B400081614FF44042C0E90A21FDF741FA002873
:106B500008BF10BDBDE81040FBF77FBA0403014039
:106B6000440200200E4810B50C49016080214160AC
:106B700040218160002101220161027552044262BC
:106B800081614FF44042C0E90A21FDF721FA002853
:106B900008BF10BDBDE81040FBF75FBA0803014015
:106BA0008002002000B587B000211A4800910191B1
:106BB0000291039104910591154A06910260A92260
:106BC000C0E9012140F2E732C0E90321416181615E
:106BD000FEF7FEF9002818BFFBF73FFA4FF480508C
:106BE000009069460B48FEF70BFB002818BFFBF727
:106BF00034FA202004908020069004A90548FEF76E
:106C0000F3F8002818BFFBF728FA07B000BD000012
:106C100000400140540300200C4810B50A490160AF
:106C2000A921416000214FF6FF72C0E90212016103
:106C300041618161FEF7CCF9002808BF10BDBDE8B5
:106C40001040FBF70ABA000000440140A0030020F6
:106C500010B59CB0002419941A941B9418941494A1
:106C6000159416940094019402940394049405944A
:106C7000069407940894099449480A940B940C9438
:106C80000D940E940F9410941194129443491394FC
:106C9000016003214160202181604FF47A71C0E9D5
:106CA000031444618461FEF793F9002818BFFBF7D1
:106CB000D4F94FF48050189018A93948FEF7A0FA7B
:106CC000002818BFFBF7C9F93548FFF719F8002865
:106CD00018BFFBF7C2F97020CDE9140414A930489D
:106CE0001694FEF781F8002818BFFBF7B6F960206C
:106CF000CDE9000404200294CDE90340059400226C
:106D0000694627480694FEF749FE002818BFFBF79E
:106D1000A4F90422694622480194FEF73FFE0028A8
:106D200018BFFBF79AF9082269461D480194FEF73F
:106D300035FE002818BFFBF790F94FF46170CDE9DC
:106D400001040C22694616480394FEF727FE00282A
:106D500018BFFBF782F91248FEF73DF80794282088
:106D60000894CDE909404FF40050CDE90B400D9453
:106D700000030E94CDE90F40C012CDE9124007A9DF
:106D800011940748FDF7C8FF002818BFFBF765F905
:106D90000348FEF7ADFD1CB010BD0000002C014003
:106DA000BC02002010B592B000240A940B940C94FD
:106DB0000D940594069431480494079408940F9414
:106DC00010940E940094019402944FF08041039427
:106DD0000160A921C0E9011446F2A811C0E9031419
:106DE0008461FEF7F5F8002818BFFBF736F94FF479
:106DF00080500A900AA92148FEF702FA002818BF1D
:106E0000FBF72BF91D48FEF7BAFB002818BFFBF76C
:106E100024F9042004905020CDE9050404A9174862
:106E20000894FFF7CDF8002818BFFBF716F90E9469
:106E30000EA912481094FDF7D7FF002818BFFBF7E2
:106E40000CF90120CDE900400294002269460B486C
:106E50000394FEF7B6FA002818BFFBF7FEF80220ED
:106E600000900190042269460448FEF7AAFA00281F
:106E700018BFFBF7F2F812B010BD000008030020A5
:106E8000194810B5174901604FF4E1314160002104
:106E900081600C22C160C0E904128161C16101629C
:106EA00041628162FFF702FB002818BFFBF7D5F8AB
:106EB00000210D48FFF784F9002818BFFBF7CDF833
:106EC00000210948FFF726F9002818BFFBF7C5F88D
:106ED0000548FFF7A1F8002808BF10BDBDE8104025
:106EE000FBF7BBB800440040EC030020FEE7FDF7D1
:106EF00083FCFEE77047002A08BF704712F00103C9
:106F000003D050F801CB81F800C0934228BF7047EE
:106F100010B450F801CB01F803C050F801CBCC18E5
:106F20009B1C84F801C09342F3D310BC7047704798
:106F3000FCF7A8BF30B5A5B00024009401940294DA
:106F400003940494059406940794089409940A946D
:106F50000B940C940D941F9420942194229444211A
:106F60000EA82394F9F7A8FC0020FDF711F90120E1
:106F700000900004019002200325CDE9070555216A
:106F8000CDE909010821CDE90B100D906846FDF708
:106F900043FC08B172B6FEE70F20CDE920541F90E4
:106FA000229404211FA82394FDF7BEFA08B172B6FB
:106FB000FEE748F202000E9000071D9010940EA804
:106FC000FDF74EF908B172B6FEE7FDF7B1FB25B04B
:106FD00030BD00000448016841F4700101600349BC
:106FE0004FF000600860704788ED00E008ED00E0B9
:106FF00010B50448FEF77AFBBDE810400248FEF7E2
:1070000075BB0000BC020020540300200148FEF7BD
:107010006DBB0000080300202DE9F0010268244B3D
:10702000244DDFF89480DFF894C0984218BFB0F187
:10703000804F04D0A8421CBF4045604504D14C6835
:1070400022F0700244EA02021D4C1E4E1E4F98426E
:1070500018BFB0F1804F0BD0A84218BF404507D0F1
:10706000604518BFA04203D0B04218BFB84204D157
:10707000CD6822F4407245EA02024D6922F0800296
:1070800042EA050202608A68C2620A688262984225
:1070900018BF604504D0A0421CBFB042B84201D125
:1070A000096901634FF001014161BDE8F0017047DA
:1070B000002C014000040040000800400034014062
:1070C00000400140004401400048014070B4026AA1
:1070D00022F010020262026A4368D0F818C00C68FD
:1070E0002CF4E64C2CF0807C4CEA042C8C6822F0CA
:1070F000200242EA0412174C174DA04218BFA842C2
:1071000006D1CE6822F0800242EA061222F0400246
:10711000A04218BFA8420DD0A0F18044B4F5A0341D
:107120001FBFA0F18044B4F5A234A0F18044B4F5AF
:10713000A43407D14C6923F4406343EA84038C6987
:1071400043EA84034360C0F818C04968816302625F
:1071500070BC7047002C0140003401400268936805
:10716000D1F804C023F0700323F440134CEA030366
:1071700023F00703D1F800C023F480334CEA030363
:1071800093604A68602A4CD006DC302A5DDD402AD4
:1071900015D0502A2ED058E02D4B934255DD702A41
:1071A00053D10068D1E90223D1F810C0816842EAC6
:1071B0000C2221F47F411A431143816045E00A68A3
:1071C000052A12BFB2F1011F012070470268136A3D
:1071D000D2F820C02CF0010CC2F820C00268D2F80E
:1071E00018C009692CF0F00C4CEA0111916100689B
:1071F00003622AE000688A680969036AD0F820C03F
:107200002CF0010CC0F820C0D0F818C023F00A03FD
:107210002CF0F00C4CEA011143EA02028161026297
:1072200013E000688A680969036A23F010030362A7
:107230008369D0F820C023F4704343EA01312CF075
:10724000A00343EA0212816102624FF0000070471E
:107250003000100090F8281011F0010F06D00168DE
:107260004A68C36A22F400321A434A6090F8281030
:1072700011F0020F06D001684A68036B22F48032D5
:107280001A434A6090F8281011F0040F06D00168E4
:107290004A68436B22F480221A434A6090F828100F
:1072A00011F0080F06D001684A68836B22F400428F
:1072B0001A434A6090F8281011F0100F06D00168A8
:1072C0008A68C36B22F480521A438A6090F82810AF
:1072D00011F0200F06D001688A68036C22F4005276
:1072E0001A438A6090F8281011F0400F11D00168FD
:1072F0004A68436C22F480121A434A60416CB1F52B
:10730000801F06D101684A68836C22F4C0021A43C8
:107310004A6090F8281011F0800F08BF704701688C
:107320004A68C06C22F40022104348607047F8B5E8
:1073300000250446C0F88850FCF79EFD07462068EB
:1073400000686FF07E4610F0080F08D03B46002220
:107350004FF400112046009600F074FA68B92068D6
:10736000006810F0040F0AD03B4600224FF4800161
:107370002046009600F066FA08B10320F8BD2020F0
:10738000C4F88000C4F8840084F87C500020F8BD64
:1073900010B5806A0021A0F85E10A0F85610FEF724
:1073A00067FF10BD10B5B0F86020D0F884300168D8
:1073B000222B04D0886940F00800886110BD496A1A
:1073C000836D11401980816D891C8165B0F85E1054
:1073D000491EA0F85E10B0F85E10002918BF10BD5D
:1073E00001680A6822F490720A6001688A6822F0D3
:1073F00001028A602021C0F884100021C166FFF7D5
:1074000053F910BD2DE9F0410446B0F86060D0F8A2
:107410008400222806D02068816941F0080181613A
:10742000BDE8F081B4F86850002D1CBF00274FF074
:10743000200825D02068406AA16D30400880A06DEA
:10744000801CA065B4F85E00401EA4F85E00B4F88D
:107450005E0088B92068016821F4807101602068AD
:10746000816821F0010121F080518160C4F884809D
:107470002046E766FFF718F9681E05042D0CD9D1E0
:10748000B4F85E0000281CBFB4F86810814298BFB1
:10749000BDE8F0812068816821F080518160044856
:1074A000E0662068016841F020010160BDE8F081DC
:1074B000A573000810B5B0F86020D0F884300168DA
:1074C000222B04D0886940F00800886110BD496A09
:1074D0001140826D1170816D491C8165B0F85E109C
:1074E000491EA0F85E10B0F85E10002918BF10BD4C
:1074F00001680A6822F490720A6001688A6822F0C2
:1075000001028A602021C0F884100021C166FFF7C3
:10751000CBF810BD2DE9F0410446B0F86060D0F81A
:107520008400222806D02068816941F00801816129
:10753000BDE8F081B4F86850002D1CBF00274FF063
:10754000200825D02068406AA16D30400870A06DE9
:10755000401CA065B4F85E00401EA4F85E00B4F8BC
:107560005E0088B92068016821F48071016020689C
:10757000816821F0010121F080518160C4F884808C
:107580002046E766FFF790F8681E05042D0CD9D158
:10759000B4F85E0000281CBFB4F86810814298BFA0
:1075A000BDE8F0812068816821F080518160044845
:1075B000E0662068016841F020010160BDE8F081CB
:1075C000B57400082DE9F041044600682269A168FD
:1075D000D4F81CC011436269002542EA0C02114331
:1075E000626E924B11430268DFF844C202EA0C0259
:1075F0001143016020684168E26821F44051114361
:1076000041602168A06999421CBF226A10438A68C0
:1076100022F4306222F06E42104388602068C16A12
:10762000626A21F00F011143C16222688148A2F110
:107630008041B1F59C312FD0A2F18041B1F5884154
:1076400038D0A2F18041B1F590413FD0A2F1804104
:10765000B1F5984147D09A420DD1D0F8880010F486
:1076600040604DD0B0F5806F4ED0B0F5006F49D07E
:10767000B0F5406F42D010216F48704F00269A42FB
:107680006CD179B3022947D0042942D0082908BF18
:107690004FF4004040D0B8E0D0F8880010F003006C
:1076A00008BF0121E8D001282ED002282AD00328C3
:1076B00024D0E0E7D0F8880010F00C0020D0042897
:1076C00022D008281ED00C2818D0D4E7D0F8880083
:1076D00010F0300014D0102816D0202812D03028F6
:1076E0000CD0C8E712E0D0F8880010F0C00007D036
:1076F000402809D0802805D0C028BCD10821BBE78C
:107700000021B9E70221B7E70421B5E7FDF718F832
:1077100001E0FDF739F898B3616A37F8112067681E
:10772000B0FBF2F107EB47038B4298BFB1EB073F89
:107730006BD800231946F8F716FE090241EA1061DA
:1077400002027808101871413A460023F8F70BFE40
:107750003B4AA0F54071914257D85BE0E2694FF691
:10776000EF78B2F5004F08D009294ED2DFE801F0DA
:1077700035383E4D3B4D4D4D4F00092945D200E077
:1077800044E0DFE801F005080E420B4242422700C8
:10779000FCF7D6FF04E0FCF7E5FF01E0FCF7F4FF9F
:1077A000A0B3616A37F81110B0FBF1F041006068D6
:1077B00001EB5001B1FBF0F080B2A0F110014145A6
:1077C00023D84FF6F0710140C0F34200084321680E
:1077D000C86021E04FF40040E3E7FCF7B1FF04E0AC
:1077E000FCF7C0FF01E0FCF7CFFF78B1616A37F822
:1077F0001110B0FBF1F1606801EB5001B1FBF0F04A
:1078000080B2A0F11001414504D9012504E04FF4F4
:107810000040EBE72168C8600120A4F86A00A4F8E2
:107820006800E66628462667BDE8F08100800040D3
:10783000F369FFCF001002400024F40066DD000869
:10784000FFFC0F002DE9F04704460068089D9A46AA
:10785000C0691746884631EA00000CBF01200020AD
:10786000B84204BF4FF00009202647D1B5F1FF3FD1
:107870003BD0FCF701FBA0EB0A00A84222D80DB3D5
:107880002068016811F0040F1CBFC06910F4006F7C
:107890002BD021684FF4006008622068016821F451
:1078A000D07101602068816821F001018160C4F815
:1078B0008060C4F88460C4F8886084F87C900320F9
:1078C000BDE8F0872068016821F4D071016020686C
:1078D000816821F001018160C4F88060C4F884608F
:1078E00084F87C900320BDE8F0872068C06938EAFE
:1078F00000000CBF01200020B842B7D00020BDE836
:10790000F08700000148FEF7B5BC0000EC03002042
:10791000FEE700002DE9F04186B0002490460E46B7
:1079200005460494B2F5006F25D8FCF767F91948AD
:10793000816941F0404181614CF2FA310161A5F168
:107940000060C0F3C72001270094CDE9017004A9AD
:1079500068460397FCF734F8002804BF002407EBBF
:10796000D80708D106EBC4002946D0E9002300203F
:10797000FCF7DCF818B106B00120BDE8F081641C0A
:107980000835A742EED2FCF7C3F806B00020BDE8E8
:10799000F081000000200240C9B241EA012141EA21
:1079A0000141016041600172704703B401984100D8
:1079B000009850EAC12018BF04204A0D18BF40F0BB
:1079C000010040F2FF72B2EB515F08BF40F00200CD
:1079D000012808BF052002B0704710B52DED028BBD
:1079E000B1EEC08A18EE100A20F00040C0F1FF404E
:1079F000C00F0AD010EE100A20F00040C0F1FF4086
:107A0000C00F04BF0120F8F7C8FFB0EE480ABDEC74
:107A1000028B10BD30380A2801D2012070470020A7
:107A2000704770470000000010B504462DED0A8B2A
:107A300082B090F844039FEDFE8A01280FD184EDB7
:107A4000B38A84EDB48A84EDB78A84EDB68A84ED76
:107A5000B98A84EDBA8A84EDAF8A84EDB08A204673
:107A600002F036F994EDB10AB0EE001A84EDB30AD3
:107A7000D4EDB20A00EE810ADFEDEE8A20EE280A8C
:107A800084EDB40A94F84C02002804BF94F844032F
:107A9000002806D19FEDE80A204684ED900A01F007
:107AA0005FFA204602F038FE94F84D029FEDE3AAFB
:107AB000F7EE00AA10B104282BD092E094F83C0312
:107AC00090B194ED190AD4ED970A94ED6D1A04F172
:107AD000640000EE810A84ED190A05F04FFB94ED75
:107AE000190A84EDB50A7CE094F85C0040B194ED8D
:107AF000180A04F5357084EDB50A05F03FFB70E017
:107B000094EDA90A04F5357084EDB50A05F036FB4D
:107B100067E0D4ED100A9FEDCA0A20EE800AB0EEAD
:107B2000C01A94ED7E0AB4EEC01AF1EE10FAC4BF8A
:107B300084ED228AB0EE481A07DC94ED221AD4EDC7
:107B4000971A31EE211A84ED221AD4ED7F1AB4EE81
:107B5000E11AF1EE10FA3CBF94EDA91A84ED241A53
:107B600094ED261AB5EEC01AF1EE10FA1CBF94ED92
:107B7000240A84EDB50A30D1C0EE8A1A94EDA92A00
:107B800094ED241AF0EEE10ADFEDAE1AD4ED072AE7
:107B900060EE211AF5EEC02AF1EE10FA09D030EEAF
:107BA000210AF4EEC00AF1EE10FAC8BF84ED078A8C
:107BB00008E030EE610AB4EEE00AF1EE10FAC8BF58
:107BC000C4ED07AA94ED070AB5EEC00AF1EE10FA6B
:107BD00008BFB0EE421A84EDB51A04F5357005F011
:107BE000CDFA94F844039FED98BA9FED999B012834
:107BF0007DD194ED990ADFED98BA94ED9A1A20EEB2
:107C00002B0ADFED960AD4ED9B1A01EE600A01EE15
:107C1000E00A84EDC90A21EE280A01EEE80A84EDA3
:107C2000CA0A94EDB50A05F0C3F8F0EE400A94EDE7
:107C3000B50AF0EE608A05F0FDF894EDC91AD4EDAE
:107C4000CA1A61EE28CA21EEA8CA40EE21CA00EE87
:107C500041CA94EDC40AB4EE400AF1EE10FA1CBF1A
:107C6000B0EE490AF0EE690A05D110EE100A05F0EF
:107C7000FBFF41EC100B51EC100B05F05DFB08EE27
:107C8000900AC4EDC48A94EDC30AB4EE400AF1EE42
:107C900010FA1CBFB0EE490AF0EE690A05D110EEE9
:107CA000100A05F0E1FF41EC100B51EC100B05F050
:107CB00043FB78EEEC0A00EE100A40EECB8A70EE41
:107CC0004C0A00EECB0AC4EDC48A84EDC30AC4EDAD
:107CD000C58A84EDC60AD4EDA30A60EEAB0A88EE2D
:107CE000A01A84EDC71A80EE201A84EDC81A94ED0C
:107CF000B70AD4EDB60A20EE000A00EEA00AF0EEB4
:107D0000400AB1EEE00AB4EE400AF1EE10FA1CBFF0
:107D1000B0EE600AFFF761FE84ED150A94EDC70A24
:107D2000D4EDC80A20EE000A00EEA00AF0EE400AE8
:107D3000B1EEE00AB4EE400AF1EE10FA1CBFB0EE6C
:107D4000600AFFF74AFED4EDC30AF5EEC00AF1EE71
:107D500010FA34BF4FF0FF30012000EE900AF8EE29
:107D6000E00A60EE200A9FED3E1A80EE810A84ED63
:107D7000090AB4EE400AF1EE10FA1CBFB0EE490A4F
:107D8000F0EE690A05D110EE100A05F06DFF41EC26
:107D9000100B51EC100B05F0CFFA6062D4ED0F0A16
:107DA00094EDB50A05F0B0F88DED000ADFED2D0A6F
:107DB0009FED2D0A684605F069FA94ED970ADDED0E
:107DC000000A9FED2A1AC0EE808A94ED100A70EE28
:107DD000680A00EEC10A84ED100AB4EE400AF1EE22
:107DE00010FA1CBFB0EE490AF0EE690A05D110EE98
:107DF000100A05F039FF41EC100B51EC100B05F0A7
:107E00009BFA206494ED110A70EE680A00EECB0A2A
:107E100084ED110AB4EE400AF1EE10FA05D110EE2D
:107E2000100A05F021FF41EC190B51EC190B1FE072
:107E3000000000003ACD133F3333733F5077D63DF7
:107E4000EBC91841CDCC4C3DCDCC4C3E00000000E0
:107E50000000000000000000ABAA2A3FABAAAA3E27
:107E6000D7B35D3F920A863F920A86BF0AD7233C6A
:107E700005F062FA606494EDB50A204684ED0F0ABD
:107E800002F036FDD4EDB58AD4ED000AB0EE680AF2
:107E900005F03AF8F0EE400AC4ED008A80EE8A0A56
:107EA000D4ED060A04F1180030EE800A84ED060ACB
:107EB000D4ED7D0A94ED7C0A05F0E8F994F84C02C3
:107EC000042894F84D0204D0042808BF84ED268AC3
:107ED00003E0042808BFC4ED26AA94ED971AD4ED58
:107EE000060A94ED050A204601F00AFF94F84403BF
:107EF00000281EBF02B0BDEC0A8B10BD204602B0A8
:107F0000BDEC0A8BBDE8104000F00ABA2DE9F0473D
:107F10001E4C02202DED020B8AB094F84C9284F88E
:107F20004C02F6EE000A9FED1A0A0AA805F0AEF917
:107F3000204604F09BFB08AB01AA0A219DED0A0A2A
:107F4000204601F02DFC10EE10AA089805F08CFEDA
:107F500007468846019805F087FE05460E465046BE
:107F600005F082FE02AA002382E8E301094802210B
:107F70000090094AC81E02F067FB204604F096FBF9
:107F800084F84C920CB0BDE8F08700007804002023
:107F9000CDCC4C3E9BDE000800E6000810B5A4B036
:107FA0000A4C0B4890226946FEF7A5FF90226946CD
:107FB00004F5E070F8F746FC064802210090002323
:107FC00005A2C81E02F040FB24B010BD78040020BA
:107FD00000F001084ADF00081B5B33336D5728258A
:107FE00064292025733A1B5B33396D20436F6E661D
:107FF00069672052656164210D0A000008B50B49CC
:108000000B489022FFF786FC0A494FF000030091CD
:1080100028B1012108A2881E02F016FB08BD02212A
:1080200010A2C81E02F010FB08BD00003806002098
:1080300000F001083ADF00081B5B33316D4528254D
:1080400064292025733A1B5B33396D20436F6E66BC
:10805000696720736176696E67204641494C4544E3
:108060000D0A00001B5B33336D572825642920253A
:10807000733A1B5B33396D20436F6E66696720531B
:1080800041564544210D0A0008B512490022124B01
:10809000012815D0022818BF08BD042081F84D0220
:1080A0009FED0E0A81ED130A81ED120A81F85C2022
:1080B0000093014600230AA2401F02F0C5FA08BD42
:1080C00081F84D220093042100230EA2481F02F0E4
:1080D000BBFA08BD78040020BCDE000800000000E8
:1080E0001B5B33346D44282564292025733A1B5BC0
:1080F00033396D204D3120484649204F4E210D0A1D
:10810000000000001B5B33346D44282564292025C2
:10811000733A1B5B33396D204D3120484649204F5F
:108120004646210D0A00000010B50E4C2DED020B45
:1081300084B0DFED0D0A9FED0D0A04A805F0A6F846
:108140000498C4F8FC0205F08FFDCDE9020108484F
:1081500004210090002307A2481F02F075FA06B020
:1081600010BD00007804002000504347005043C772
:10817000ABDE00081B5B33346D44282564292025C1
:10818000733A1B5B33396D204D31205350454544C4
:108190002073657420746F3A256C660D0A00000028
:1081A000084908B5002081F85000084604F05EFA3E
:1081B000054802210090002304A2C81E02F044FAE0
:1081C00008BD000078040020DBDE00081B5B3333B1
:1081D0006D57282564292025733A1B5B33396D20A0
:1081E0006D6F746F72207374617274210D0A0000D8
:1081F000084908B5002081F85000084604F056FAF6
:10820000054802210090002304A2C81E02F01CFAB7
:1082100008BD000078040020CCDE00081B5B33336F
:108220006D57282564292025733A1B5B33396D204F
:108230006D6F746F722073746F70210D0A000000EF
:1082400030B51A4D1A4C2DED028BB0EE408A18EE67
:10825000100A85B0A0F17E50B0F1327F18EE100AFE
:108260000ED905F001FDCDE902010121002311A283
:108270000094881E02F0E8F905B0BDEC028B30BD19
:1082800005F0F2FCCDE902010221002316A20094C0
:10829000C81E02F0D9F905B0B0EE480ABDEC028B59
:1082A0002846BDE8304000F0A3BC00007804002060
:1082B000EBDE00081B5B33316D4528256429202542
:1082C000733A1B5B33396D20696E70757420706F63
:1082D000776572206C6F7373204552524F52203A6B
:1082E00020256C660D0A00001B5B33336D57282573
:1082F00064292025733A1B5B33396D2073746172D6
:1083000074696E6720544553542120504F5745528D
:10831000204C4F535320495320256C660D0A000012
:108320002DE9F04F04462DED0A8B85B000F5197745
:1083300000F5E07600F1700590ED100ADFEDFE0A21
:1083400060EE200A9FEDFD1A80EE810AB0EEC08A31
:1083500090ED270AB5EEC00AF1EE10FA29D194F893
:108360004C02042825D094F84D02042804BF94F848
:108370005C0000281FD1B06B05F076FC41EC100BBF
:1083800094F82000002814BF9FEDED1B9FEDEE1B1D
:1083900053EC112B51EC100B05F048FA41EC190B82
:1083A00018EE100A05F060FC53EC192B05F002FAE8
:1083B00001D2012000E00020687384F820009FEDC6
:1083C000E4BA50B194ED280AD4ED810AB4EEE00A83
:1083D000F1EE10FA38BF84EDAFBA04F5357004F051
:1083E000CDFE94EDB50A04F0E3FCF0EE409A94ED76
:1083F000B50A04F01FFDF0EE408A96ED200A94EDD8
:10840000B41AB7EE008AB0EEC09A94EDB30A60EEEB
:10841000290AB0EE680A40EE010AC4EDB70A94EDED
:10842000B40A94EDB31A60EE290AB0EE680A40EE81
:10843000410AC4EDB60A94EDB90AD4EDB70A94ED39
:10844000B81A70EE600A94EDB90A01EE600A84ED84
:10845000B90A94EDBA0AD4EDB60A94EDB81A70EEE2
:10846000600A94EDBA0A01EE600A84EDBA0A94ED4E
:10847000C50AD4EDC50A9FEDB8ABB4EE600AF1EEC3
:1084800010FA1CBFB0EE4A0AF0EE6A0A07D194ED6A
:10849000C50A10EE100A05F0E7FB41EC100B51EC99
:1084A000100B04F049FF00EE100A84EDC50A94EDAC
:1084B000C60AD4EDC60AB4EE600AF1EE10FA07D18E
:1084C00094EDC60A10EE100A05F0CEFB41EC1A0B33
:1084D00051EC1A0B04F030FF00EE100A19EE100AEE
:1084E00084EDC60AD4ED090ADFF8749280EE890A99
:1084F0004845B0EEC00AB8BFB0EE480AD6ED210A32
:10850000F4EEC00AF1EE10FA11D296ED222AF7EE3F
:10851000001AB7EE001A04F023FED6ED220AB0EEE0
:10852000408AF4EEC00AF1EE10FA00F3DF8294ED17
:10853000B00AD4EDB70AD4EDC51AB0EE4BAA30EEAE
:10854000601A94EDAF0AD4EDB60A70EE600A96EDAB
:108550001E0A21EE002A42EE081AC4EDC41AD4ED18
:10856000C61A40EE801AC4EDC31A96ED1F0A94EDA8
:10857000972A60EE081A21EE822AD4EDC51A41EE40
:10858000021AC4EDC51AD4ED971A94EDC61A21EE5D
:10859000800A00EE801AB0EE4A0AF0EE400AB0EE11
:1085A000408A84EDC61A94F86002B7EE081A28B122
:1085B00001281AD0022800F031821CE094EDB60A9E
:1085C000D4ED960AD4EDB71A94ED962A60EE200AFF
:1085D00096ED020A61EE821A60EE800A21EE800AB0
:1085E00060EE810A20EE010A05E0D4ED961A96EDC0
:1085F000032A21EE828AD4EDC41A71EEE00A30EE2D
:10860000080AC4EDC40AD4EDC30A30EE800A84ED32
:10861000C30A29EE010A9FED53BAD7ED0A0A94ED79
:10862000C49A20EE0B0A04F5447060EE20AAB1EE65
:108630006A0AF0EE6A0AF0EE40BA04F027FED4EDC2
:10864000C40A94EDC50A70EEC90A30EE200A84ED22
:10865000C50A2AEEAA0AD4EDC40A94EDC41AB0EEF3
:10866000409A00EEC10AF0EE400AB1EEE00AB4EE24
:10867000400AF1EE10FA1CBFB0EE600AFFF7ADF948
:1086800094EDC3CAF0EE400AB1EE400A04F543701F
:1086900004F0FCFDD4EDC30A94EDC60A04F5457060
:1086A00070EECC0A30EE200AF0EE6A0A84EDC60ABB
:1086B000B0EE6B0A04F0EAFD94EDC50AD4EDC50AEC
:1086C00000EE609AB1EEC90AB4EE400AF1EE10FA7B
:1086D0001CBFB0EE490AFFF780F970EE480AB1EE10
:1086E000400A04F5467030EE480A04F0CFFD04F568
:1086F0004371B0EE6A0A081D04F068FDD4EDA30AC8
:108700009FED199A94EDC40A60EE890A80EE201A52
:1087100084EDC71AD4EDA30A94EDC30A60EE890A6A
:1087200080EE201A84EDC81A94EDC70A20EE292A9B
:1087300094EDC80A1AE0000000007042DB0FC94047
:10874000000000000000F83F333333333333F33F8E
:108750000000000000000000000000000000000019
:108760000AD7233CD7B35D3FABAA2A3F08EEC02A05
:1087700094EDC80A60EE292A94EDC70A48EE802AD3
:1087800094EDB00A20EE291A94EDAF0A08EEC01A53
:1087900094EDAF0A60EE291A94EDB00AB5EEC01A56
:1087A00048EE801ABEEE000A21EE000AF0EE400A02
:1087B00001EECB0A41EE8B0AF1EE10FA34BF4FF016
:1087C000FF30012001EE100AF5EEC00AB8EEC11A22
:1087D00021EE091AF1EE10FA34BF4FF0FF300120FC
:1087E00001EE900AB8EEE13ADFEDC21AB5EEC00A2A
:1087F00003EE611AF1EE10FA34BF4FF0FF300120A2
:1088000003EE100AF5EEC00AB8EEC33A03EE611AA1
:10881000F1EE10FA34BF4FF0FF30012000EE900A65
:10882000F8EEE00ADFEDB41AB5EEC00A60EEA10A78
:10883000F1EE10FA34BF4FF0FF30012000EE100AC5
:10884000B8EEC00A40EE610A94ED970ADFEDAB1A6C
:10885000DFF8ACA204F54E7820EE210AD4ED941A8C
:1088600020EE210A21EE001A20EE800A72EE41AAC3
:1088700032EEC08A97ED0A0A00276AEE890A60EE96
:10888000800AC4EDC90A68EE090A20EE800A84ED68
:10889000CA0A94EDC90AD4EDCA0A20EE290A08EEE4
:1088A000A00A84EDC40A94EDCA0AD4EDC90A20EEE8
:1088B000290A08EEE00A84EDC30A687B00287DD00F
:1088C000CDED01AA8DED028AD5ED071A94EDB60A19
:1088D000F0EE000A94ED751A31EEA02AB0EEC00A4F
:1088E000F0EE4A0A04F03CFC8DED030A94EDA30A75
:1088F00020EE090ADFED830A03A820EE200A04F027
:10890000DBFC2A7C8048002A2A8FD4EDB30A00EBD6
:1089100082037E4993ED000A4FF0010B20EE200AFE
:108920007BD001EB820394EDB41AD3ED000A05EB82
:10893000820200EEC10AD5ED050A30EE600A82ED32
:10894000300A10EE102A4A4514DDDDED030AB6EEBA
:10895000001A2A8F60EE810A96ED011A05EB820259
:1089600041EE400A94ED941A21EE000A80EE801A3E
:1089700082ED0F1A2A8F521C92B22A87202A24BF16
:108980002F8785F80EB02A8FDDED030A00EB8200F9
:1089900090ED000A20EE200AD4EDA30A20EE891AF9
:1089A000C0EE010A9DED010A30EE800A8DED010A4C
:1089B000288F01EB800090ED000A00E07AE0DDED09
:1089C000030A20EE200AD4EDA30A20EE891AC0EE95
:1089D000010A9DED020A30EE600A00BF8DED020A29
:1089E0009FED4B0A02A901A804F0F0FB287C0028A7
:1089F0000CBF012000202874CDF80080DAF80000B8
:108A000004F16C039A1E911EDDED020A9DED010A30
:108A100003F06CFE84F86EB051E018E094EDB60AF5
:108A2000D4ED960AD4ED961A20EE200AD4ED720AFF
:108A300020EE200A60EE010A94EDB70A20EE210A2A
:108A4000D4ED721A20EE210A20EE010ACDE501EBE9
:108A5000820294EDB41AD2ED000A00EEC10A85ED4F
:108A6000050A2A8FDDED030A00EB820090ED000A73
:108A700020EE200AD4EDA30A20EE891AC0EE010AE6
:108A80009DED010A30EE600A8DED010A288FDDEDC3
:108A9000030A01EB800090ED000A20EE200AD4EDDD
:108AA000A30A20EE891AC0EE010A9DED020A30EEFB
:108AB000800A93E72F87AF732F7485ED05AACDF851
:108AC0000080DAF8000004F54D731A1F111FF0EE54
:108AD000480AB0EE6A0A03F009FE05B02046BDEC74
:108AE0000A8BBDE8F04F01F037BB00BFB0EE608AE3
:108AF0001DE50000ABAAAA3E3ACD133FBD3786352F
:108B00002C2C01406666663F5CDF00085CE00008D4
:108B10000C9E523F4A889FED300A01EE102ADFED8D
:108B20002F0A8A88B8EE411ADFED2D2A21EE001AAD
:108B300061EE201A01EE102AB8EE411A21EE001A59
:108B400021EE202AB0EE001A80ED9F1A31EEC13AD4
:108B500032EE411AC3EE221A81EE222ADFED212ADB
:108B600081EEA21AC2EE221A80ED9D1AC0ED9E1A65
:108B700071EE811AF1EE611AC0ED9C1ACA8802EEFC
:108B8000102A0A894989B8EE422A03EE101A22EE09
:108B9000002AB8EE433A62EE202A02EE102AB8EE1E
:108BA000422A22EE002A23EE000A22EE202A60EE5C
:108BB000200A9FED0D0A62EE802A22EE002A20EEA6
:108BC000800AC0ED992A80ED9A2A80ED9B0AC0EDBB
:108BD000B11A80EDB21A7047000080393333534028
:108BE000713D1241A69B443B4B76B1400000000012
:108BF0002DE9F04F04462DED088B91B000F5E0799A
:108C00004FF0FF30F0EE408A0D904FF45371204644
:108C1000F7F752FE204601F0FBF9204603F026FD4F
:108C20004FF0000B84F84DB2022684F84C6201200C
:108C300084F83C0384F85C00DFED910A4FF47A700D
:108C4000C9ED1E0AF7EE000AC9ED1F0AFAF7A4FEE5
:108C50009FED8C8A09AB8DED018A8DED088A8DED33
:108C6000098A08AA01A9B0EE681ADFED870AB2EEF8
:108C7000040A204600F088FE8DED0E8A8DED0F8AE5
:108C8000CDF840B0DDED090AB0EE041A10AB80EE6D
:108C9000810A0FAA0EA99DED082ADDED011A9FEDAC
:108CA0007B1ADFED7B0A204600F076FB10983C280B
:108CB000C4BF9DED0F0A8DED0E0A9DED090A89EDE9
:108CC000050A9DED010A89ED010ADDED080AC9EDED
:108CD000020A9FED701AD4ED731A04F5E0759FED4A
:108CE0006E8B9FED6F9B9FED70AB60EE01BA21EE36
:108CF000A10A20EE81BA10EE100A04F0B5FF41EC93
:108D0000100B51EC1A0B53EC102B04F0FBFB04F08E
:108D100013FB00EE100A85ED1EBAC5ED1FBADFED9C
:108D2000640A4FF47A7020EE200A85ED040AFAF7FF
:108D300033FE84F84C62204603F098FC0CAB0BAA7F
:108D400064219FED5C0A204600F02AFD204603F0D6
:108D5000ADFC099804F088FF05460E46089804F01B
:108D600083FF9FED551B53EC112B04F05FFD07466D
:108D70008846019804F078FF53EC182B04F056FD58
:108D8000DFF83CA10DF1080CCDF800A08CE88301C0
:108D9000CDE90656042100234AA2481F01F054FCE5
:108DA000D9F80C0004F060FF53EC182B04F03EFDE2
:108DB000CDE90201042100234EA2CDF800A0481FF6
:108DC00001F042FCD9F8100004F04EFF53EC192BCF
:108DD00004F02CFD07468846D9F87C0004F044FFD7
:108DE00005460E46D9F8780004F03EFF0DF1080C58
:108DF000CDF800A08CE8E3010421002349A2481F1C
:108E000001F022FC53490C98884215DB04F02CFF3A
:108E100005460E460B9804F027FF02AFCDF800A0E0
:108E200087E86300042100234B4A481F01F00CFC33
:108E3000042084F84D0213E004F016FF05460E46A8
:108E40000B9804F011FF02AFCDF800A087E8630093
:108E500004210023414A481F01F0F6FB84F84DB27B
:108E6000012084F84C02204603F020FC41F28830B7
:108E7000FAF792FD0D9811B0BDEC088BBDE8F08FAC
:108E80006F12033A000000000000F0420000E144CD
:108E90009A99993E00007A440000000000408F40FB
:108EA0008DEDB5A0F7C6B03EFCA9F1D24D62503FA2
:108EB00000247449CDCC4C3E0000000080842E413B
:108EC00074DE00081B5B33346D442825642920259B
:108ED000733A1B5B33396D20723A256C662C6C3A01
:108EE000256C662C696D61783A256C660D0A0D0A51
:108EF000000000001B5B33346D44282564292025C5
:108F0000733A1B5B33396D206D6F746F725F666CE3
:108F100075785F6C696E6B6167653A256C660D0AE2
:108F20000D0A00001B5B33346D442825642920257D
:108F3000733A1B5B33396D206B703A256C662C6B72
:108F4000693A256C662C6761696E3A256C660D0A74
:108F50000D0A00009A99993F18E4000890E3000870
:108F600030B504462DED028B81B090ED0A0A90EDEC
:108F7000091A00F5E075F0EEC00AF0EEC11A9FED97
:108F8000422A71EEC21AF4EEE10AF1EE10FA18D399
:108F9000D4EDC30AF5EEC00AF1EE10FA34BF4FF07B
:108FA000FF30012000EE900AD4EDB61AF8EEE00A88
:108FB00060EEA10AD5ED051AF4EEE10AF1EE10FA21
:108FC00050D2D4EDA31AB7EE002A30EE410AC2EE19
:108FD000210A95ED061AD4ED971A21EE001A21EE1A
:108FE000208A95ED071A21EE211A21EE001A94ED40
:108FF0000E0A01EE200A84ED0E0AB4EE400AF1EEEC
:1090000010FA18BF9FED220B05D110EE100A04F0E4
:109010002BFE41EC100B51EC100B04F08DF9A0630A
:10902000F7EE000ABFEE000A04F1380004F02EF952
:1090300094ED0E0AF7EE000A684630EE080A8DED50
:10904000000ABFEE000A04F021F995ED050ADDEDF6
:10905000000A20EE200A00BF84EDAF0A01B0BDEC8B
:10906000028B30BDDFED0C0AB5EEC00AC4ED0E0A6E
:1090700085ED200AF1EE10FA95ED050AD8BFB1EEA4
:10908000400AE9E700000000CDCC4C3D00000000A4
:1090900000000000000000000000000010B52348A0
:1090A000FBF75EF82248FBF75BF82248FBF758F81D
:1090B0002148FCF731F800211F48FCF755FE042138
:1090C0001D48FCF751FE08211B48FCF74DFE0C2102
:1090D0001948FCF749FE00211748FBF7D1FE04218F
:1090E0001548FBF7CDFE08211348FBF7C9FE1348CE
:1090F000F9F750FB1248F9F74DFB1248FCF744F81A
:109100001148FCF741F8032210490C48FAF70EFA0F
:109110000F48FCF739F800210D48FCF763FABDE869
:10912000104004210A48FCF75DBA00000802002044
:109130004402002080020020BC020020D000002059
:109140003C01002054030020A00300204400002024
:109150000803002010B500F05DFEFFF79FFF0E4AE8
:10916000506800F055FF506800219FED0C0A80F810
:10917000C01192685170117080EDBF0A012280F811
:109180004C229FED070A80F84D1280ED050ABDE8DC
:10919000104003F08BBA00003400002000409C45D2
:1091A000000000002DE9F04FDFF88CA1F6EE000A78
:1091B00091B09AEDD00A30EE600ADFED600A20EE41
:1091C000200A8AED050A9AF85000002818BF5C4C66
:1091D0003DD0C0B201281CD19AED9C1ADAED9D0A4F
:1091E0009AED9E0AB0EEC11AF0EEE00AB0EEC00AA7
:1091F00071EE200A30EE800A10EE100A04F034FD01
:10920000CDE90201012100234E4A0094881E01F09D
:109210001BFA9AF85000022806D100234A4A01217D
:10922000C01E009401F010FA9AF85000032806D1ED
:109230000023464A0121001F009401F005FA4FF473
:10924000FA70FAF7A9FB9AF850000028C1D1DFF8AC
:1092500000B1DBF80C003228DCBF401CCBF80C005E
:1092600063DD9AF85C0001280BD19AF844030028CA
:1092700058D1334802210090002336A2C81E01F0C5
:10928000E3F99AF8440300284CD1DAF8240004F0FA
:10929000EBFC06460F46DAF8280004F0E5FCDAEDB0
:1092A000960A9FED391A8046894680EE810A10EEB3
:1092B000100A04F0D9FCCDE90401DAF8F40204F054
:1092C000D3FCCDE90201DAF8D80204F0CDFCCDE9F7
:1092D0000001DAF8BC0204F0C7FC04460D46DAF8D7
:1092E0008C0204F0C1FC294A1288CDF83080CDE907
:1092F0000F72CDE90D96DDE90423CDE90A23DDE9FE
:109300000223CDE90823DDE9002302AE86E833001D
:109310000B48CDE906230090042100231C4A481F76
:1093200001F092F90021CBF80C1011B00120BDE83A
:10933000F04FFAF731BB000078040020000016431C
:109340008DDE000818E500088CE50008A0E40008A0
:10935000340000201B5B33336D57282564292025FA
:10936000733A1B5B33396D204F50454E204C4F4FA5
:10937000502053455155454E5420454E4741474591
:109380004421210D0A0000005077D63D4C000020FA
:1093900048E60008000000002DE9FF4F4FF0000BE9
:1093A0002DED060B044600F5E07592460E462DEDB8
:1093B000108BF0EE409A81B0B7EE009AB0EE42FA10
:1093C000F0EE41EAB0EE60EAD9469FEDE50A80F89A
:1093D0004DB280ED8E0A80ED8F9A032084F86002F2
:1093E0004FF47A70FAF7D8FAD846DFEDDEAA47468E
:1093F000B0EE6A8A9FEDDCAADFEDDCBA68EE2B8A5C
:1094000000EE107AC4EDB0AA0120B8EEC00A60EEFA
:10941000290A80EE8A0A84EDAF0A84ED6E8AC4EDD3
:109420006D8AFAF7B9FA7F1CC82FE9DBB0EE6ABA89
:10943000B0EE6AAA5FF0000794ED090A3AEE09AAB5
:109440000120B0EEC00A70EE2AAAFAF7A5FA7F1C36
:10945000B7F57A7FF0DB8AEE8A0AF0EE4B8A8DED63
:10946000000A9FEDC3CB43F698279FEDC3DB78E05E
:109470001EEE900A04F0F8FB53EC1C2B04F042F8AB
:1094800041EC1A0B18EE100A04F0EEFB53EC1A2B09
:1094900003F084FF03F050FF08EE100A84EDB0BA29
:1094A000C4EDAF9A28EE2B0A84ED6E8A022084ED7B
:1094B0006D0A08F10108FAF76FFAF4EEE8FAF1EE36
:1094C00010FAC8BFF0EE6F8A474504DCBFEE000A11
:1094D00086ED000A4FE0B8F57A6F3DDD18EE900A90
:1094E00004F0C2FB53EC1D2B04F0A0F941EC1A0B65
:1094F0001FEE900A04F0B8FB53EC1A2B04F05AF953
:1095000009D2B8EE000A86ED000A4FF47A70FAF735
:1095100043FA00F01DB99DED000A10EE100A04F0A8
:10952000A3FB9FED971B53EC112B04F07FF941EC4B
:109530001A0B1EEE100A04F097FB53EC1A2B04F0E2
:1095400039F909D2B8EE080A86ED000A4FF47A70AC
:10955000FAF722FA00F0FCB818EE100A8A4988429D
:1095600009DA94ED090AF0EEC0FAF4EECEFAF1EE63
:1095700010FAFFF47DAF4FF47A70FAF70DFAB845A0
:1095800080F2E680F0EE4B8A0027F0EE689AB0EEAB
:1095900068AAF0EE68AAB0EE68CA41F2883800BF47
:1095A00094EDC30A78EE898A012070EE299A94ED31
:1095B000C40A30EE0AAA94EDB60A70EE2AAA94ED17
:1095C000B70A30EE0CCAFAF7E7F97F1C4745E7DB2C
:1095D000CAEE280A89EEA80A68EE2B9A8AEEA89AA3
:1095E00020EE000A00EEA00AF1EEC00A8CEE28AAD6
:1095F000F4EE600AF1EE10FA0CBFB0EE600AFEF76E
:10960000ECF910EE107A69EE090A4AEE0A0AB1EE98
:10961000E00AB4EE400AF1EE10FA1CBFB0EE600AA8
:10962000FEF7DBF910EE108A1FEE100A04F01CFBA7
:1096300041EC180B404604F017FB9FED55CB53EC63
:109640001C2B04F0F3F853EC182B04F0EFF841EC6A
:109650001A0B19EE900A04F007FB41EC190B404677
:1096600004F002FB9DED140A41EC180B10EE100AF9
:1096700004F0FAFA53EC1C2B04F0D8F853EC182B36
:1096800004F0D4F841EC180B384604F0EDFA53EC32
:10969000182B04F0FFF953EC192B03F033FF53ECB4
:1096A0001A2B04F0F7F903F047FE30609DED140A21
:1096B000DFED390A85ED010A85ED02FA96ED000A23
:1096C0004FF4FA7085ED030A96ED000A20EE000AC9
:1096D00080EE801A85ED041AFAF75EF9204602F052
:1096E000E5FF84F83C9384F85C900520FAF754F980
:1096F00000252A4FF0EE4BCA2E4644F6206800BFE4
:1097000094ED090AD4ED110AB0EEC00A10EE100A69
:1097100087420CDA94EDC30A01206D1C80EE201AFA
:1097200071EE2CCAFAF738F9761C4645E8DB002DB5
:10973000D8BF8AED00BA07DD00EE105AB8EEC00AB5
:10974000CCEE800ACAED000A1A984FF0010B0560B2
:1097500001B05846BDEC108B0AB0BDE8F08F000098
:109760006F12033A00000000000048435077D63DD6
:109770000000000000408F40666666666666E63F51
:109780009A9999999999F13F00803B460000000011
:10979000555555555555E53F0000FA430AD7A33DA9
:1097A0002DE9FF4F05462DED020B00F170049046A8
:1097B0002DED0C8B87B0F7EE00AA0F46B0EE40DA25
:1097C0000026C0ED27AA90F87E0040B96420FAF781
:1097D000E3F8761C642EDCBFA07B0028F6D09FED5A
:1097E0005E8A4FF00006002FB0EE48AAB0EE489A0D
:1097F000F0EE489AF0EE488A75DDDFED58DADFF8D2
:109800006091DFF860A1DFF860B19FED59BB00BF48
:109810004FF4A27105F17000F7F74EF8C4ED0BAAF2
:1098200095EDA30A012020EE0D0A20EE2D0A84ED0D
:10983000070AC4F808B0C4E9009AFAF7ADF88DED4C
:10984000008A8DED018A8DED028A8DED038A8DED02
:10985000048A8DED058A236801AA694604F13C005B
:109860009847A36803AA02A904F13C00984723681B
:1098700005AA04A904F1C00098479DED000A3AEE3C
:1098800000AA9DED020A60EE000A9DED030A40EE7B
:10989000000AB1EEE00AB4EE400AF1EE10FA1CBF85
:1098A000B0EE600AFEF799F810EE100A04F0DCF949
:1098B00053EC1B2B03F0BAFF41EC1C0B19EE100A02
:1098C00004F0D2F953EC1C2B03F068FD03F034FDD7
:1098D0009DED040A78EEAA8A09EE100A79EE809AC4
:1098E000761CBE4294DBB8F1000F03D089EEA80AC3
:1098F00088ED000A9FED20BB9FED21CB189888B121
:1099000089EE280A10EE100A04F0AEF953EC1B2B76
:1099100003F08CFF53EC1C2B03F088FF03F00CFDCD
:10992000189908608AEE280A84ED0B8A10EE100A56
:1099300004F09AF953EC1B2B03F078FF53EC1C2B2B
:1099400003F074FF03F0F8FC07B000EE100ABDEC62
:109950000C8B06B0BDE8F08F00000000ABAA2A3FD8
:1099600051CF000899CF00083DD00008000000004A
:1099700000000000000000400000000080842E4134
:10998000555555555555E53F2DE9F04F1E462DEDE2
:109990000C8B81B017460D46B0EE41AAF0EE60AADE
:1099A000B0EE408A04469FED6A9BDFED6BCA00F57E
:1099B000E078C0EDB0CAC0EDAFCA032084F8600201
:1099C0009FED660A84ED8E0AB7EE000A84ED8F0AD9
:1099D0009FED630A18EE100ACAEE808A04F044F97B
:1099E00053EC192B03F022FF41EC1B0B18EE900AED
:1099F00004F03AF953EC1B2B03F0DCFE0BD218EE0B
:109A0000100A04F031F953EC192B03F00FFF03F0A7
:109A100093FC08EE900AB0EE6C8AB7EE08CAF4EE3A
:109A2000EA8AF1EE10FA38BF9FED4FBB28D2002230
:109A30000A21B0EE680A204600F0A2F8B0EE40DA43
:109A4000B0EE688A1AEE100A04F00EF953EC1B2BE4
:109A500003F058FD28EEA80A41EC190B20EE0D0A80
:109A600010EE100A04F000F953EC192B03F0DCFFA0
:109A700006D968EE8C8AF4EEE8AAF1EE10FAD6DC8C
:109A800000226421B0EE480A204600F079F885ED06
:109A9000000A88ED010AF0EE488A4FF00009C4ED93
:109AA000AFCA9FED338ADFF8CCB04FF00A0AC84640
:109AB000CDED00CA00236A460521B0EE480A2046D3
:109AC000FFF76EFE9DED000AB0EE489AB4EEE80A8C
:109AD000F1EE10FA05DA28EE0C8A18EE100A584555
:109AE000E8DBC820F9F758FF43464A465146B0EE36
:109AF000490A2046FFF754FE10EE104A4FF47A70E0
:109B0000F9F74AFF204604F0AFF89FED1B1B53EC1A
:109B1000112B03F08BFE03F00FFC386095ED000A6B
:109B2000CAEE000AB1EEE00AB4EE400AF1EE10FA15
:109B30001CBFB0EE600AFDF750FF86ED000A01B0D1
:109B40000120BDEC0C8BBDE8F08F00000000000090
:109B50009A9999999999F13F000000006F12033A80
:109B60000000484200000000000000000000084023
:109B70000AD7A33CCDCC4C3E8DEDB5A0F7C6B03E88
:109B80002DE9F04104462DED048B012017460E46C9
:109B9000B0EE408A84F85C009FED479A022084ED85
:109BA000189A84EDB09A84EDAF9A84F84C02F0EEE6
:109BB000C88ADFED429A424D0BE000BFC8EEA90A09
:109BC000B0EE480A04F52F7003F042FB0120F9F7CC
:109BD000E3FE94EDAF0A30EE480AB0EEC00A10EE94
:109BE000100AA842EADA4FF4FA70F9F7D5FEB0EE9F
:109BF000498A0025F0EE488A002E30D90120F9F775
:109C0000CBFE94EDB70AD4EDB60A20EE000A00EEC2
:109C1000A00AF1EEC00AF4EE600AF1EE10FA03D0E9
:109C2000FDF7DBFEF0EE400A94EDC40A70EEA88A60
:109C300060EE000A94EDC30A40EE000AB1EEE00ABD
:109C4000B4EE400AF1EE10FA1CBFB0EE600AFDF768
:109C5000C4FE30EE088A681C85B2B542CED300EE51
:109C6000105A84EDAF9A4FF47A70B8EE400AC8EEFD
:109C7000809A00EE105AB8EE400AC8EE008AF9F752
:109C80008BFE002F1CBF204602F010FD88EEA90AB3
:109C900010EE100A03F0E8FF9FED0B1B53EC112BA5
:109CA00003F0C4FD03F048FBBDEC048B00EE100A8A
:109CB000BDE8F08100000000000000000000FA4351
:109CC0006F12833A00000000555555555555E53F34
:109CD00090F86E10012918BF7047002180F86E10AF
:109CE000B0F8682005490B685A630B68B0F86A2021
:109CF0009A630968B0F86C00C8637047BC02002022
:109D000030B504462DED048B00F5E07583B090F876
:109D10004C029FED3E8AB0EE419A04281FBF84EDAD
:109D2000018A84ED028A03B0BDEC048B18BF30BDFC
:109D300070EE608A95ED080AB0EE481ADFED340A3D
:109D400060EE289AB0EE680A03F0CAF960EE280ABD
:109D500095ED090A20EE091A94ED010A00EE810A38
:109D600084ED010A94ED030A70EE090AC4ED030ABA
:109D700094ED020AB4EE680AF1EE10FA08BFB0EEF4
:109D8000480A09D0D5ED0A1A38EEC00A84ED038AD4
:109D900081EEA01A21EE000A94ED049AD5ED0B0A8B
:109DA000684639EE400A00EEC09AB7EE000A84ED2C
:109DB000049ACDED009A03F07FFA9DED000AF7EECC
:109DC000000A201DB0EEC00A30EEC00A03F074FA9B
:109DD000C4ED028A94ED010AF7EE000A01A830EE04
:109DE000290A30EE090A8DED010ABFEE000A03F0E0
:109DF0004DFA95ED050ADDED010A20EE200A84ED0D
:109E0000AF0A03B0BDEC048B30BD000000000000C1
:109E10000000C84210B5A4B0064C0748902269461D
:109E2000FDF769F89022694604F5E070F6F70AFD3F
:109E300024B010BD7804002000F0010800000000EC
:109E400030B504462DED048B00F5E07581B090F837
:109E50004C02B0EE409A9FED648A012867D194F8D5
:109E60004403012863D095ED1D0AB5EEC00AF1EE5A
:109E700010FADCBF94EDBF0A84EDBD0A09DD95ED53
:109E80001D0A04F53D7060EE090A94EDBF0A03F067
:109E9000DFF9D4ED960A9FED551A80EE810A84ED24
:109EA000950AD4EDBD0A70EEC08A95ED180A20EE31
:109EB000280ADFED4F0A94EDBC1AD5ED191A20EEF1
:109EC000200A38EEC11A684621EE211AD5ED1B1A78
:109ED00021EE201AD4EDBE0A30EEC11A41EEC10ABD
:109EE000C4EDBE0AC4EDBC8A30EE200AD4EDBB0A34
:109EF00030EE200AF7EE000A8DED000ABFEE000AF0
:109F000003F0C4F994EDBD0A3A49B0EEC00A10EE70
:109F1000100A884215DC94F84D02042818BF84ED1D
:109F2000BB8A0ED095F87000002851D132E084ED44
:109F3000BD8A84EDBB8A84EDBC8A01B0BDEC048B84
:109F400030BDB0EE481ADFED2C0AB0EE680A03F01F
:109F5000C7F8D5ED1A0A20EE280A60EE890A20EE2D
:109F6000200A10EE100A03F07FFE9FED251B53EC34
:109F7000112B03F05BFC41EC190BD4F8EC0203F05D
:109F800073FE53EC192B03F009FA03F0D5F9C4F86A
:109F9000EC02C7E794F84D02042819D01A49D4F806
:109FA0005402884208DD9DED000AB5EEC00AF1EECC
:109FB00010FA38BF8DED008A1449884208D99DED0A
:109FC000000AB5EEC00AF1EE10FAC8BF8DED008AA6
:109FD00095ED050ADDED000A20EE200A84EDAF0ABA
:109FE00001B0BDEC048B30BD000000005077D63DC1
:109FF000CDCC4C3D00007A4400007A4400000000C3
:10A000009A9999999999A93F0000A0410000A0C18F
:10A010009FED3C0AF6EE000A80ED880A80ED890A81
:10A020009FED390A012180ED8A0AC0ED8B0ADFED30
:10A03000370A9FED381AC0ED8D0ADFED350A80F83A
:10A040003012C0ED780A80ED7A1A80ED790A9FED22
:10A05000320A80ED7B0A9FED310A80ED7C0A9FED8C
:10A06000300A80ED7D0AB3EE040A80ED760A9FED9A
:10A070002D0A80ED770A9FED2C0A80ED7E0AB1EE65
:10A08000000A80ED800A9FED290AC0ED7F0A80ED6D
:10A09000810A9FED270A80ED820A9FED260A80ED56
:10A0A000830A80ED840A80ED850A80ED860A9FEDA3
:10A0B000220A80ED870A9FED210A80F8601280ED68
:10A0C000900A9FED1F0A002180ED910A9FED1D0A65
:10A0D00080ED920A9FED1C0A80ED940A9FED1B0A09
:10A0E000C0EDB80A80ED970A9FED190A80EDAD0A20
:10A0F0009FED180A80EDAE0A80F87D1080F891126D
:10A10000704700006F12833B6F12033A00504347C1
:10A110006F12833A6F12033BCDCC4C3F000048C313
:10A12000000048430000C8430080BB440000824256
:10A13000CDCC4C3DCDCCCC3D0000FA443333733F05
:10A140006666663FCDCC4C3ECDDEA5464B8D453890
:10A1500000007A4500409C470649D0F82C230B6844
:10A160005A630B68D0F830239A630968D0F8340337
:10A17000C8637047BC02002030B504462DED068B45
:10A1800000F1700500F5247100F5E07089B090EDE4
:10A19000100A834A85ED070A2A60824A6A60824A69
:10A1A000AA6094ED100ADFED810A20EE200AD0EDBE
:10A1B0000E0AB0EEC00AF4EEC00AF1EE10FA3CBF8F
:10A1C00091ED050A85ED080AA87B002801BF91EDF5
:10A1D000050A85ED080A09B0BDEC068B08BF30BD45
:10A1E00004AA03A905F13C0002F0D6FEAB6806AA5A
:10A1F00005A905F13C0098479DED040ADDED030A31
:10A2000020EE000A00EEA00AF1EEC00AF4EE600AA9
:10A21000F1EE10FA18BFFDF7E0FBDDED030A9DED4E
:10A22000040A02F059FDB1EE400A10EE100A03F0E4
:10A230001BFD9FED5F1B53EC112B03F0AFF803F0F8
:10A240007BF8029002A802F099FF9DED060ADDED71
:10A25000050A20EE000A00EEA00AF1EEC00AF4EEB4
:10A26000600AF1EE10FA18BFFDF7B7FBDDED050A45
:10A270009DED060A02F030FDFEEE000AB7EE009AF0
:10A2800020EE208AD4ED940AB3EE001A89EE200A5B
:10A29000D4ED960A60EE810A00EE808AD5ED080AB8
:10A2A000DFED459A38EE290AF0EE408A02F02CFEE6
:10A2B000B0EE40AAD5ED080AB0EE480A02F024FE3E
:10A2C000F0EE400AB0EECA0AF0EEE00AB4EEE00AA0
:10A2D000F1EE10FA38BFB0EE688A94ED280AD4ED9A
:10A2E000810AB4EEE00AF1EE10FA16D230EE090A55
:10A2F00084ED280ADDED020AB0EE480A02F004FE01
:10A30000B0EEC00A10EE100A2C49884205DD94ED2B
:10A31000290A30EE090A84ED290AD4ED280A94EDC1
:10A32000810AF4EEC00AF1EE10FA10DBB6EE001A64
:10A33000D4ED290A20EE010AF4EEC00AF1EE10FA7B
:10A34000A8BF38EE298A9FED1E0A84ED290AB0EED7
:10A35000480A02F02DFDD4ED730A20EE200A84EDA8
:10A36000A70AB0EE480A02F065FDD4ED730A05F1C4
:10A37000200020EE200A84EDA80A85ED088A02F06C
:10A38000FDFE9DED020A05F1240085ED090A02F0AB
:10A39000F5FE09B0BDEC068B30BD000000000000EA
:10A3A00051CF000899CF00083DD00008EBC91841F3
:10A3B000797878F86391FD3FDB0F4940DB0FC93FA7
:10A3C000000000002DE9F74F82B017000E464FF055
:10A3D000000404BF05B0BDE8F08F0B464EA200217B
:10A3E0000097029800F030F926F00F05711BC8198C
:10A3F0000F3020F00F0A504A0021029800F024F993
:10A40000BAF1000F12BF06EB070B05B0BDE8F08FE5
:10A41000DFF828812A4608EB040049A1F6F734F852
:10A42000044400274FF02009E819B04228BF8345B3
:10A4300009D8601C08F8049008F80090A01CE41CDF
:10A4400008F8009006E0EA5D08EB040041A1F6F789
:10A450001BF804447F1C102FE6DB7C2008F8040066
:10A46000601CA41C08F800900027E819B04228BF1F
:10A47000834598BF08F804900FD9EA5DA2F1200047
:10A480005E2884BF2E2008F8040006D808EB0400DC
:10A4900032A1F5F7F9FF044400E0641C7F1C102F83
:10A4A000E3DB7C2008F80400601C0D2108F8001094
:10A4B000A01C0A2108F80010E11C02984FF00008C7
:10A4C0000FFA81F9B0F1FF3F04BF0024244F10D0F0
:10A4D00000281CBF0179002903D0026849461748AB
:10A4E000904700241035BAF1100A91D105B0BDE8AB
:10A4F000F08F57F8240000281CBF0179002906D0EE
:10A500004179414503D3026849460C489047601C95
:10A5100004B2052CEDDBE4E76D656D6F7279206F99
:10A5200066203078253038782C2073697A653A2097
:10A5300025643A0D0A00000070E900084068002018
:10A540001B5B33316D3078253038783A201B5B3314
:10A55000396D0000253032782000000025630000AE
:10A560002C680020002918BF81600D490A68002A64
:10A5700004BF086070474A68002A04BF48607047FB
:10A580008A68002A04BF88607047CA68002A04BF2E
:10A59000C86070470A69002A08BF08617047000058
:10A5A0002C68002000B583B000281EBF417103B0A5
:10A5B00000BD5022134806A10090CDE901120121EF
:10A5C000002311A2881E00F03FF803B000BD000078
:10A5D0002E2E5C447269766572735C6C657474656A
:10A5E000722D7368656C6C2D332E302E365C657859
:10A5F00074656E73696F6E735C6C6F675C6C6F67AC
:10A600002E63000087E200081B5B33316D4528256F
:10A6100064292025733A1B5B33396D20226C6F67E8
:10A620002220617373657274206661696C656420B1
:10A6300061742066696C653A2025732C206C696E04
:10A64000653A2025640D0A000FB42DE9F0410E464D
:10A65000044609ABFF211C48089AF5F7FBFE07B238
:10A66000B4F1FF3F04BF0024184D16D0002C19BFD1
:10A6700020790028BDE8F0015DF814FB6079B04254
:10A680003CBFBDE8F0015DF814FB394622680E4876
:10A690009047BDE8F0015DF814FB55F82400002850
:10A6A0001CBF0179002906D04179B14203D3026869
:10A6B000394605489047601C04B2052CEDDBBDE827
:10A6C000F0015DF814FB0000406800202C680020B9
:10A6D000F9F7E0FBFCF72EFCFCF7BAF9FCF79AF966
:10A6E000FCF766F8FCF712F9FCF7FCF9FCF71AFA2C
:10A6F000FCF738FAFCF7ACFAFCF7C2FBFCF78CFA73
:10A70000FCF750FAFCF74EFBFEF724FD02F0CAFB03
:10A71000FEF748FDFCE7000070B5B7EE080A2DED26
:10A72000068BB6EE009A00F524740546D0ED720A49
:10A7300090EDB41A00F5E07660EE801AD0ED710A63
:10A7400060EE800A90EDB30A61EE219A20EE202A95
:10A7500020EE21AA61EE202A90ED730AD0EDAA0A1C
:10A76000607820EE000A20EE891A98BBD4ED031A17
:10A77000D4ED040A31EECA3A70EEE90A63EE033A08
:10A7800040EEA03A30EE630AB5EEC00AF1EE10FAE0
:10A79000C4BFDFED513A20EE230AD5EDC93A23EECE
:10A7A000013A60EE810A33EEC22A95F85C00002877
:10A7B00003EE002A95EDCA3A73EE622A40EE802A33
:10A7C0007CD094ED010A84ED030A94ED020A00BFE7
:10A7D00084ED040A94ED030A9FED418BB4EE400A28
:10A7E000F1EE10FA1CBFB0EE480AF0EE680A05D18F
:10A7F00010EE100A03F038FA41EC100B51EC100B7C
:10A8000002F09AFDE06094ED040AB4EE400AF1EE25
:10A8100010FA05D110EE100A03F026FA41EC180BDD
:10A8200051EC180B02F088FD00EE900AC4ED040A0A
:10A8300094ED030A20EE000A00EEA00AF0EE400AB2
:10A84000B1EEE00AB4EE400AF1EE10FA1CBFB0EE31
:10A85000600AFDF7C2F8D6ED030A60EE890AF4EE4D
:10A86000C00AF1EE10FA0DDDD4ED030A9FED1E0AC9
:10A8700060EE800AC4ED030AD4ED040A20EE800ADB
:10A8800084ED040A94ED030A70EE4A0A94ED040A7A
:10A8900030EE690A02F020FAD5EDAB0A95ED971A71
:10A8A00004F1140060EE810A00EE890A84ED050AC5
:10A8B000BDEC068BBDE8704002F060BC95ED970AD8
:10A8C00042EE001AC4ED031A94ED040AD5ED970A7E
:10A8D00002EEA00A7CE70000CDCCCC3D00000000D9
:10A8E0000000000000000000CDCC8C3F0000000004
:10A8F00030B505462DED028B81B090EDAB0A9FED92
:10A90000308B00F52B74B4EE400AF1EE10FA1CBF48
:10A91000B0EE480AF0EE680A05D110EE100A03F016
:10A92000A3F941EC100B51EC100B02F005FD00EE09
:10A93000100A684684ED000AD5EDB50A30EEC00A6B
:10A940008DED000A02F01AFC94ED010AB4EE400A03
:10A95000F1EE10FA05D110EE100A03F085F941EC82
:10A96000180B51EC180B02F0E7FC00EE100A204621
:10A9700084ED010AD4ED020A9DED001A00EE810A71
:10A9800095ED971AD4ED000A40EE010AC4ED000AD5
:10A9900002F0F4FBD4ED030A9DED001A94ED010AD8
:10A9A00060EE810A95ED971A00EE810A84ED010AA6
:10A9B00085ED960A01B0BDEC028B30BD00000000B1
:10A9C0000000000000000000012100F029B8000094
:10A9D00070B500F091FB050008BF70BD0848846B9E
:10A9E000A86E00281ABF2078002870BDC0B2A96EDA
:10A9F00004F10104884720780028F7D170BD0000D9
:10AA00006C00002010B500F077FB002808BF10BDD7
:10AA1000BDE8104000F0DCBE4FF0FF31AFF3008026
:10AA200070B50446B1F1FF3F0CBF01200020E3895F
:10AA3000002B04BF012970BDA289934204BFB1F16C
:10AA4000FF3F70BD4FF00005934208BF01293DD084
:10AA5000A2EB0301A1EB0001002932DD002211F07D
:10AA6000010106D022691A44135C024402F8013C39
:10AA70000122A389B4F80EC0A3EB0C031B1A8B426E
:10AA80001FDD00BF23691FFA8CFC9C448318521CF5
:10AA90001CF803606344891C03F8016CB4F80EC011
:10AAA00023699C448318521C1CF80360634403F818
:10AAB000016CA389B4F80EC0A3EB0C031B1A8B42E4
:10AAC000E0DCA189491EA181E8B916E0581EE081A9
:10AAD000501E80B2A081216900260D541C4DA06E2D
:10AAE00038B100BFA16E15F8010B884728780028FF
:10AAF000F8D1711ECEB2F1D270BDE089401EE08166
:10AB0000A16E08208847A18920694554B4F90E50E8
:10AB1000A089A84208DD2069A16E405D8847681CB5
:10AB200005B2A089A842F6DCA16E20208847A08942
:10AB3000E189401A401C05B2002DD8BF70BD082025
:10AB4000A16E8847681E05B2002DF8DC70BD0000BC
:10AB500080AB000870B50546481EC6B238BF70BD50
:10AB600007A4A86E38B100BFA96E14F8010B88477E
:10AB700020780028F8D1711ECEB2F1D270BD00004D
:10AB8000082008004FF0FF3100F000BC10B504466B
:10AB900000F006F82046BDE81040012101F0F4BBAA
:10ABA0002DE9F04104468089002808BFBDE8F08106
:10ABB00000262169754D0E5494F8600010F0010FC5
:10ABC00000F0B480A4F85460B4F8500058B1B4F860
:10ABD00052002169002808BF052004EB8000806B2B
:10ABE000F5F792FE50B3B4F8521004EB81002169DE
:10ABF000C26B00200B78002B08BF16700DD00B5CC9
:10AC00001354401C80B20B5C002BF8D1165420B1B9
:10AC1000B4F85200401CA4F85200B4F85000401C94
:10AC200081B2A4F85010052984BF0521A4F8501062
:10AC3000B4F85200052828BFA4F8526000216661CC
:10AC4000A661E66126626662A662E6622663E68621
:10AC5000A38901220846002B0AD837E041B12369B5
:10AC600013F800C0BCF1220F0ED0012A11D01AE057
:10AC7000236913F800C0BCF1200F12BFBCF1000F14
:10AC80001E5401221DD0EAE7002914BF0021012132
:10AC9000EBE7E28E082A05D21F1804EB8203521C50
:10ACA000E2865F610022236913F800C0BCF15C0FEB
:10ACB00007D100F1010C13F80C30002B18BF1FFA5C
:10ACC0008CF0401CA38980B28342C7D8E681A6815C
:10ACD000E08E002808BFBDE8F0812DA6A06E30B13F
:10ACE000A16E16F8010B884730780028F8D10023B0
:10ACF0002046A26D616900F035FF28B1014620466B
:10AD0000BDE8F04100F08ABEA06EAD6900281ABF10
:10AD100028780028BDE8F081C0B2A16E05F10105D8
:10AD2000884728780028F7D1BDE8F081206881683D
:10AD30002069F5F7E9FD90B1A06E6D6B00281CBF8E
:10AD40002878002807D0A16EC0B205F10105884718
:10AD500028780028F7D1A681E681BDE8F08194F833
:10AD6000600040F0010084F86000A06E2D680028AB
:10AD70001CBF28780028EED0A16EC0B205F10105F5
:10AD8000884728780028F7D1E5E700006C0000200C
:10AD90000D0A00002DE9F0410B7800240546272B11
:10ADA0001ED02D2B05D000BFA3F13000092800F2E2
:10ADB000AA8000260A250124B44632462D2B06BF60
:10ADC0004FF0FF3401200020084400230778302F83
:10ADD0002ED0401C002F41D007782E2F3BD133E0DE
:10ADE0004A78002AE0D00020491C5C2A1CBF10468B
:10ADF000BDE8F08149786E2904BF0A20BDE8F081E2
:10AE000009DC302908BFBDE8F081622904BF0820B1
:10AE1000BDE8F08109E0722904BF0D20BDE8F08192
:10AE2000742904BF0920BDE8F0810846BDE8F0811F
:10AE30004378782B14BF582B0323CAD0622B16BF3C
:10AE4000422B01230223C4E790F80180B8F1000FE0
:10AE500001D0042310E0401C002FBDD1012B08BFFE
:10AE6000022508D0022B04BF0825012604D0032B9D
:10AE700008BF102500D102268819B4F1FF3F0CBF8E
:10AE80000121002108440178C1B3C9B22E2908BFAD
:10AE9000012218D0A1F13006092E98BFF1B20DD9C8
:10AEA000A1F16106052E98BF573906D9A1F14106D7
:10AEB000052E94BF3739002100D8C9B20CFB051C00
:10AEC00002EB82014A0010F8011F0029DDD1042B9A
:10AED00015D19AB100EE10CAB8EE401A00EE102A51
:10AEE000B8EE400AC1EE000A00EE104AB8EEC00A01
:10AEF00020EE800A10EE100ABDE8F081FFE70CFB9F
:10AF000004F0BDE8F081242B0DD0002B04BF0020FD
:10AF1000BDE8F08108460022222B04BF481C0146F0
:10AF20000B78A3B920E048780028F3D00023284606
:10AF3000491CAA6D00F016FE002804BF2046BDE89B
:10AF4000F08101462846BDE8F04100F001B9DBB2CE
:10AF50005C2B0CD0222B0CBF84548354521C11F850
:10AF6000013F92B2002BF2D18454BDE8F08191F8F8
:10AF700001C00023BCF16E0F08BF0A2314D008DC07
:10AF8000BCF1300F10D0BCF1620F08BF08230BD00A
:10AF900009E0BCF1720F08BF0D2305D0BCF1740F9E
:10AFA00008BF092300D063468354491CD6E72DE926
:10AFB000F0478CB0824600200490059006900790E0
:10AFC000089009900A900B908878561E00F00F08A0
:10AFD0001F460D46B045D8BFB0460024002EC8BF5E
:10AFE0000DF110090ADD07EB840041685046FFF7B8
:10AFF000D1FE49F82400641CA642F4DCB8F1080F25
:10B000004FD2DFE808F004090F161E27323FA86868
:10B0100080470CB0BDE8F087A968049888470CB059
:10B02000BDE8F087DDE90401AA6890470CB0BDE8EF
:10B03000F087DDE90401AB68069A98470CB0BDE8DB
:10B04000F08704ACD5F808C094E80F00E0470CB0D6
:10B05000BDE8F0870898009004ACD5F808C094E8E3
:10B060000F00E0470CB0BDE8F087DDE90801CDE94D
:10B07000000104ACD5F808C094E80F00E0470CB01C
:10B08000BDE8F087DDE908010A9A0292CDE90001E6
:10B0900004ACD5F808C094E80F00E0470CB0BDE858
:10B0A000F0870CB04FF0FF30BDE8F08710B50446D4
:10B0B00010483021FCF770FC607800F00F00012888
:10B0C00084BF07280828606898BF10BD094B082274
:10B0D0000021197258B100BF00F00F0109298CBF7F
:10B0E00057313031521ED2B200099954F4D101487F
:10B0F00010BD0000B46500201449086800281EBF78
:10B1000090F8602012F0020F7047486800281EBFB8
:10B1100090F8602012F0020F7047886800281EBF68
:10B1200090F8602012F0020F7047C86800281EBF18
:10B1300090F8602012F0020F7047086900281ABFCB
:10B1400090F8601011F0020F00207047A0650020F9
:10B150004A78002002F00F02921E062A28BF70478C
:10B16000DFE802F003060A0D0D0F886800687047DB
:10B170008868B0F900007047886800787047886870
:10B18000704788684168002904BF00207047006844
:10B1900008470000002908BF70472DE9F05F04460A
:10B1A000806B18224FF0000C10F47F4F1CBF002260
:10B1B0006FF0FF0C0CD110F47F0F1CBF0822DFF8DA
:10B1C000DCC005D110F07F4F1CBF10224FF07F4C28
:10B1D0000020B4F85C90A56D0646B9F1000F48DD7B
:10B1E000FF27A2F1080307FA02FB07FA03FE00BFDC
:10B1F00005EB001393F8018008F00F07092F33D1F6
:10B2000093F800A0BAF1000F18BF082F04D02768E8
:10B210003F781AEA070F27D094F8607017F0010FF3
:10B2200008BF18F0100F1FD05F68D4F8388007EA05
:10B230000C0AC24518D107EA0B0A01FA02F7BA450F
:10B2400012D148EA0701A1630021002A1CBF5B68F4
:10B2500013EA0E0F08D105EB0010816800291CBF0E
:10B2600020468847A6630EE0401C00B28145BFDC43
:10B2700049B1A66394F86020204622F0040284F8C5
:10B28000602000F0B1F9F8F7F7FD002808BFBDE82D
:10B29000F09FF8F7F1FD6060BDE8F09F0000FFFF50
:10B2A00070B50B460546FFF727FF040008BF70BDC9
:10B2B000012D53D0D8BF70BDA26D59684FF0000367
:10B2C00000F050FC2F4906004CD0A06ECD6A00283B
:10B2D0001CBF2878002807D0A16EC0B205F1010577
:10B2E000884728780028F7D13046FFF7DFFE05466B
:10B2F000A06E00281CBF2878002807D0A16EC0B21D
:10B3000005F10105884728780028F7D1A06E1EA511
:10B3100038B100BFA16E15F8010B884728780028C6
:10B32000F8D1A06EF56800281CBF2878002807D047
:10B33000A16EC0B205F10105884728780028F7D131
:10B34000A06E11A5002808BF70BD00BFA16E15F842
:10B35000010B884728780028F8D170BDBDE87040FF
:10B3600000F036BAA06E8D6900281ABF2878002830
:10B3700070BDC0B2A16E05F101058847287800288C
:10B38000F7D170BD6C0000200D0A00002DE9F041DE
:10B3900000260446002917DDB4F95420A2F101006B
:10B3A000A4F85400B4F85010B4F8520081428CBF95
:10B3B0000B4603465B429A4215DC814288BF084631
:10B3C0004042A4F854000EE0A8BFBDE8F081B4F8F4
:10B3D0005400401C00B2A4F854000028C4BFA4F8D4
:10B3E0005460BDE8F081A089E189401A05B2002DC2
:10B3F00006DDA16E20208847681E05B2002DF8DC0E
:10B40000207B411ECFB20DD3254DA06E38B100BFB9
:10B41000A16E15F8010B884728780028F8D1791E0D
:10B42000CFB2F1D2B4F95400002802BFA681E68160
:10B43000BDE8F081B4F85210226908441949401D52
:10B4400081FB00314B10A3EBE171494201EB81011B
:10B45000084404EB8000C16B00200B7833B10B5C17
:10B460001354401C80B20B5C002BF8D11654A08101
:10B47000002808BFBDE8F081E081A06E25690028A2
:10B480001ABF28780028BDE8F081C0B2A16E05F18E
:10B490000105884728780028F7D1BDE8F081000031
:10B4A00080AB00086766666670B504460020A08120
:10B4B000E081A4F85400A4F85000A4F852002060E1
:10B4C00094F8600040F0010084F860004AF6AB2078
:10B4D0005043800C2161A0864218E26301EB4002D8
:10B4E000226400EB40020A44626401EB800200EB3C
:10B4F00080000844C4E91220354A3648A265801A03
:10B500000009A4F85C0034480168002908BF046001
:10B5100012D04168002908BF44600DD0816800291D
:10B5200008BF846008D0C168002908BFC46003D088
:10B530000169002908BF0461002328A1204600F00A
:10B5400011FB05462060806800283BD0F5F710F914
:10B55000002837D0E08E022804D3A169A868F5F747
:10B56000D3F978B394F8600020F001001D4E84F800
:10B570006000A06EB56B00281CBF2878002807D09B
:10B58000A16EC0B205F10105884728780028F7D1DF
:10B5900094F8600010F0010F0ED0A06E35680028FE
:10B5A0001CBF2878002807D0A16EC0B205F10105A4
:10B5B000884728780028F7D12046BDE8704001214F
:10B5C00000F0E2BE94F8600040F00100CEE7000019
:10B5D00004EB0008C4EC0008A065002047342D46A9
:10B5E0004F4300006C0000202DE9F04104468089A3
:10B5F000A28E521E904225DB4C484568A06E002862
:10B600001CBF2878002807D0A16EC0B205F1010543
:10B61000884728780028F7D10121204600F0B4FEA1
:10B62000A06E256900281ABF28780028BDE8F0819F
:10B63000C0B2A16E05F10105884728780028F7D12E
:10B64000BDE8F081B4F80EC00026844510D123690E
:10B6500000F10102A2811954A28920698654E0896F
:10B6600000F10100E0810846A16EBDE8F041084705
:10B6700028BFBDE8F081A0EB0C0002B2002A2ADD51
:10B68000002312F0010009D00CEB02032569A3F19D
:10B69000010C15F80CC005F803C0012390421ADA1A
:10B6A000B4F80EC025699444ACEB030CACF101076F
:10B6B0005B1CEF5D05F80C70B4F80EC0256994446E
:10B6C000ACEB030CACF10107801CEF5D5B1C05F8D3
:10B6D0000C709042E4DBE0892369421CE28119543A
:10B6E000A1892069491C89B2A1814654E089401E84
:10B6F00005B2A089854208DA2069A16E405D8847BD
:10B70000681C05B2A0898542F6DBE18980B2401A47
:10B7100005B2002DD8BFBDE8F0810820A16E884792
:10B72000681E05B2002DF8DCBDE8F0816C00002039
:10B7300070B5FFF7E1FC002808BF70BD0446866DB8
:10B740001B484569A06E00281CBF2878002807D038
:10B75000A16EC0B205F10105884728780028F7D10D
:10B76000B4F85C0000250028D8BF70BD06EB0511B9
:10B77000487800F00F02082A12D9092A10D80A784E
:10B780001AB123681B781A420AD094F8602012F08C
:10B79000010F08BF10F0100F02D0204600F054F83F
:10B7A000681C05B2B4F85C00A842DFDC70BD000084
:10B7B0006C00002010B50446C089002808BF10BDE9
:10B7C0000820A16E8847E089401EE08110BD00007E
:10B7D00070B50446866D1B488568A06E00281CBFA6
:10B7E0002878002807D0A16EC0B205F1010588476E
:10B7F00028780028F7D1B4F85C0000250028D8BFCD
:10B8000070BD00BF06EB0511487800F00F02012A59
:10B8100010D80A781AB123681B781A420AD094F813
:10B82000602012F0010F08BF10F0100F02D0204668
:10B8300000F00AF8681C05B2B4F85C00A842E1DC2C
:10B8400070BD00006C0000202DE9F04104460D465B
:10B850000846FFF72BFC0646A06E0027002816BFFF
:10B8600030780027002809D0A16EC0B206F1010689
:10B870008847781C87B230780028F5D1C7F11600C8
:10B8800006B2002ED8BF04262020A16E8847701E65
:10B8900006B2002EF8D16878574900F00F00012851
:10B8A0000FD8A06E0E6C00281CBF307800284DD039
:10B8B000A16EC0B206F10106884730780028F7D1A2
:10B8C00044E007280FD8A06E4E6C00281CBF3078CB
:10B8D00000283BD0A16EC0B206F10106884730783F
:10B8E0000028F7D132E008280FD8A06E8E6C00280F
:10B8F0001CBF3078002829D0A16EC0B206F1010625
:10B90000884730780028F7D120E009280FD8A06EAA
:10B91000CE6C00281CBF3078002817D0A16EC0B2B2
:10B9200006F10106884730780028F7D10EE0A06EB6
:10B930000E6D00281CBF3078002807D0A16EC0B261
:10B9400006F10106884730780028F7D1A06E2BA6B3
:10B9500038B100BFA16E16F8010B88473078002877
:10B96000F8D107260127287807FA06F1084214BF04
:10B9700078202D20A16E8847701E46B2002EF2DA84
:10B98000A06E1EA638B100BFA16E16F8010B884745
:10B9900030780028F8D1ED68A06E0026D8B111E00B
:10B9A000A16E6D1C8847701C86B2242E0AD368785D
:10B9B00040B1A16E2E208847A16E2E208847A16E2F
:10B9C0002E2088472878002818BF0D2803D00A2881
:10B9D00018BF242EE4D3A06E09A5002808BFBDE837
:10B9E000F08100BFA16E15F8010B88472878002868
:10B9F000F8D1BDE8F08100006C000020202000009C
:10BA00000D0A0000C1898289914228BF70474A1CF3
:10BA10000369C2815A5C816E104608472DE9F041E6
:10BA2000044690F86000002640F0020084F86000B0
:10BA300048780F4610F00F0F0BD000F00F000128D0
:10BA400033D0811E052941D83946204600F07CF9C3
:10BA500076E0E08E0025002888BF4FF0000819D955
:10BA600004EB850670690178222904D180F80080F2
:10BA70007069401C7061F4F77BFE80B27169401EF2
:10BA80000A5C222A08BF01F80080681C85B2E08E9B
:10BA9000A842E5D8BA68E08E04F114019047064642
:10BAA000787810F0200F4BD10BE0E28E04F11403F4
:10BAB00039462046FFF77BFA0646787810F0200FCB
:10BAC0003ED13146204600F01FFD39E0082837D12D
:10BAD0002760B868E8B3F4F74BFED0B3E08E0228D5
:10BAE00004D3A169B868F4F70FFF90B394F860002D
:10BAF00020F001001A4F84F86000A06EBD6B002892
:10BB00001CBF2878002807D0A16EC0B205F101053E
:10BB1000884728780028F7D194F8600010F0010FCA
:10BB20000ED0A06E3D6800281CBF2878002807D0E2
:10BB3000A16EC0B205F10105884728780028F7D129
:10BB400094F8600020F0020084F860003046BDE800
:10BB5000F081FFE794F8600040F00100CAE70000C0
:10BB60006C0000202DE9F04706468946B16DB0F81B
:10BB70005C00511AA0EB11100704984615463F0CC3
:10BB80004FF000042DD000BF05EB0410417801F008
:10BB90000F02092A21D00378002B18BF082A03D0EE
:10BBA00032681278134218D096F8602012F0010F14
:10BBB00008BF11F0100F10D0FFF778FAB8F1000F9E
:10BBC00006D0014642464846F4F7F1FD60B104E074
:10BBD00001464846F4F798FE30B1601C84B2BC427E
:10BBE000D2D30020BDE8F08705EB0410BDE8F08754
:10BBF0002DE9F0410F460546FFF77EFA041E08BF07
:10BC0000BDE8F08100232946A26DFFF7ABFF1F4E70
:10BC1000010025D0487800F00F00801E06282FD3A1
:10BC2000A06E00281CBF2878002807D0A16EC0B2E3
:10BC300005F10105884728780028F7D1A06E756ABC
:10BC400000281CBF2878002807D0A16EC0B205F1DB
:10BC50000105884728780028F7D10020BDE8F08149
:10BC6000A06EB56A00281CBF28780028F5D0A16E08
:10BC7000C0B205F10105884728780028F7D1ECE724
:10BC80003A462046BDE8F04100F002B86C000020C2
:10BC900070B50D46064649782A4811F0400F0FD07E
:10BCA000046AB06E00281CBF2078002843D0B16E13
:10BCB000C0B204F10104884720780028F7D13AE0A7
:10BCC00001F00F01891E062935D2DFE801F00306D5
:10BCD000090C1A2AA86802602DE0A86802802AE0F0
:10BCE000A868027027E01378A968002033B1135CBC
:10BCF0000B54401C80B2135C002BF8D100220A5474
:10BD000019E0C469B06E00281CBF2078002812D04A
:10BD1000B16EC0B204F10104884720780028F7D141
:10BD200009E0A868836833B1006810B111469847EC
:10BD300001E01046984729463046BDE8704000F0C3
:10BD400003B800006C0000202DE9F0437BA283B013
:10BD50000D460746D2E9000192680292CDE9000142
:10BD60006978002001F00F01891E06290FD2DFE853
:10BD700001F003060A0D0D5BA868006807E0A868DB
:10BD8000B0F9000003E0A868007800E0A868D5F8E2
:10BD900004808146B86E00281CBF98F80000002877
:10BDA00006D0B96EC0B2884718F8010F0028F8D144
:10BDB000B86E65A438B100BFB96E14F8010B88479E
:10BDC00020780028F8D1687800F00F00052833D0DB
:10BDD0000B206946B9F10004B8BFC9F10004002581
:10BDE0008DF80B50002C18BF584B13D083FB04C2A6
:10BDF0004FEAA20CACEBE272C2F1000C0CEB8C0C23
:10BE000004EB4C0C401EC0B20CF1300C01F800C029
:10BE10001400EBD1B9F1000F34DAA0F10100C0B287
:10BE20004FF02D020A5432E0A8684168002916BF7D
:10BE3000006800208847AAE7B86E45A438B100BF63
:10BE4000B96E14F8010B884720780028F8D1B86E35
:10BE50004D4600281CBF2878002807D0B96EC0B214
:10BE600005F10105884728780028F7D1B86E38A475
:10BE7000002854D0B96E14F8010B884720780028A8
:10BE8000F8D14CE003D13022401EC0B20A54C0F1B8
:10BE90000B0040B2C0F10B0000EB0108B86E0028A7
:10BEA0001CBF98F80000002806D0B96EC0B28847C1
:10BEB00018F8010F0028F8D1B86E26A438B100BFD9
:10BEC000B96E14F8010B884720780028F8D1302289
:10BED0000B216846F4F7E8FC5FEA09066A464FF072
:10BEE00008018DF808500AD006F00F0009288CBF11
:10BEF00057303030491EC9B236095054F4D1B86EAB
:10BF0000144600281CBF9DF80000002807D000BF81
:10BF1000B96E14F8010B884720780028F8D1B86E64
:10BF20000EA430B1B96E14F8010B884720780028B0
:10BF3000F8D103B04846BDE8F0830000303030301F
:10BF40003030303030303000203D2000676666668B
:10BF5000220000002C203078000000000D0A0000B4
:10BF60002DE9F05F868E4FF0000A81890446D046A5
:10BF700051B32269002083465054B4F85C10D4F8C1
:10BF800058900029D8BFBDE8F09F00BF09EB0B1700
:10BF9000387840B1797801F00F01082903D0216881
:10BFA0000978084267D094F8600010F0010F04BFD0
:10BFB000787810F0100F5ED038462569FFF776F8D4
:10BFC00002460023184612E0FFF702FC012120463A
:10BFD00000F0DAF9F7F750FF002840F03881BDE8AB
:10BFE000F09F61450BD1591C401C8BB280B2295C7B
:10BFF00000291CBF12F800C0BCF1000FF1D1A089CC
:10C00000834238D1B8F1000F2FD0B8F1010F0AD117
:10C01000A06E93A538B100BFA16E15F8010B88473B
:10C0200028780028F8D109EB0A1529462046FFF7A1
:10C030000BFC2846FFF73AF805463846FFF736F876
:10C04000002184460A4605E098420AD1481C81B284
:10C05000501C82B2A85C00281CBF1CF80230002BC8
:10C06000F2D18E4298BF31460E4608F101001FFA08
:10C070008BFA1FFA80F80BF101000FFA80FBB4F87D
:10C080005C00584582DCB8F1000F08BFBDE8F09FA6
:10C09000B8F1010F1ED1A089E189401A05B2002D27
:10C0A00006DDA16E20208847681E05B2002DF8DC51
:10C0B000207B411ECFB20DD36A4DA06E38B100BFB8
:10C0C000A16E15F8010B884728780028F8D1791E51
:10C0D000CFB2F1D209EB0A1948462569FEF7E6FF0F
:10C0E000014600200A7832B10A5C2A54401C80B212
:10C0F0000A5C002AF8D100272F54A081B8F1010F63
:10C1000008D949462046FFF79FFB0121204600F051
:10C110003BF9A681A18920694754A089E081A06EDE
:10C12000256900281CBF2878002807D0A16EC0B25E
:10C1300005F10105884728780028F7D1F7F79CFE1C
:10C14000002808BFBDE8F09FB8F1010F7FD194F837
:10C15000600010F0040F7AD0F7F78EFE6168401A85
:10C16000C82874D2A089E189401A05B2002D06DDE5
:10C17000A16E20208847681E05B2002DF8DC207BC8
:10C18000411ECEB20CD3374DA06E30B1A16E15F862
:10C19000010B884728780028F8D1711ECEB2F2D260
:10C1A000B4F90C00411C00292ADD0022012333EAE6
:10C1B000000106D0226900F1050C135C02F80C3076
:10C1C0000122B4F90C305B1C8B4219DD2369A0EB12
:10C1D000020C521C13F80C500CF1050C891C03F8CE
:10C1E0000C502369A0EB020C521C13F80C500CF1FC
:10C1F000050C03F80C50B4F90C305B1C8B42E5DCE9
:10C2000019A122690B78002033B10B5C1354401C38
:10C2100080B20B5C002BF8D11754216920200871E3
:10C22000A089401DA081E081A06E256900281ABF69
:10C2300028780028BDE8F09FC0B2A16E05F1010585
:10C24000884728780028F7D1BDE8F09FFFE794F8E9
:10C25000600040F0040084F86000BDE8F09F00003A
:10C260000D0A000080AB000868656C7000000000DB
:10C270000121FFF78BB8000070B5FEF73DFF0028E5
:10C2800008BF70BD0446866D1C480569A06E002875
:10C290001CBF2878002807D0A16EC0B205F10105A7
:10C2A000884728780028F7D1B4F85C0000250028DA
:10C2B000D8BF70BD06EB05114A7802F00F000728C1
:10C2C00015D9082813D80B78002B18BF082803D0DD
:10C2D0002068007803420AD094F8600010F0010F43
:10C2E00008BF12F0100F02D02046FFF7ADFA681C0D
:10C2F00005B2B4F85C00A842DCDC70BD6C00002024
:10C3000070B5FEF7F9FE002808BF70BD0446866DC3
:10C310001C48C568A06E00281CBF2878002807D0DC
:10C32000A16EC0B205F10105884728780028F7D131
:10C33000B4F85C0000250028D8BF70BD06EB0511DD
:10C340004A7802F00F00831E052B13D80B78002BC0
:10C3500018BF082803D02068007803420AD094F858
:10C36000600010F0010F08BF12F0100F02D020463D
:10C37000FFF76AFA681C05B2B4F85C00A842DDDC7D
:10C3800070BD00006C00002070B5044690F860009D
:10C3900010F0010FA06E45D000291CBF29A5002870
:10C3A00007D000BFA16E15F8010B88472878002838
:10C3B000F8D120684568A06E00281CBF28780028A6
:10C3C00007D0A16EC0B205F1010588472878002882
:10C3D000F7D1A06E1CA530B1A16E15F8010B8847EE
:10C3E00028780028F8D1A568002D08BF17A5A06EF1
:10C3F00000281CBF2878002807D0A16EC0B205F124
:10C400000105884728780028F7D1A06E10A50028DC
:10C4100008BF70BD15F8010BA16E88472878002869
:10C42000F8D170BD0B4900280D6B1ABF2878002881
:10C4300070BDC0B2A16E05F10105884728780028BB
:10C44000F7D170BD0D0A00003A0000002F00000077
:10C45000242000006C0000202DE9F041044690F8F3
:10C46000600017460E4610F0020F0FD12548C56B2D
:10C47000A06E00281CBF2878002807D0A16EC0B28B
:10C4800005F10105884728780028F7D17D1E05D3DE
:10C49000A16E16F8010B88476D1EF9D294F8600062
:10C4A00010F0020F18BFBDE8F08100212046FFF711
:10C4B0006BFFA089002808BFBDE8F0812569A06E48
:10C4C00000281CBF2878002807D0A16EC0B205F153
:10C4D0000105884728780028F7D1A089E18900253F
:10C4E000401A0028D8BFBDE8F0810820A16E884717
:10C4F000681C05B2A089E189401AA842F5DCBDE8B4
:10C50000F08100006C0000202DE9F0414DA20D46A5
:10C510000646D2E9001084B09268CDE9001002927C
:10C52000B06E4BA738B100BFB16E17F8010B88474A
:10C5300038780028F8D10B2069462C1EB8BF6C4211
:10C540004FF000088DF80B80002C18BF434B13D020
:10C5500083FB04C24FEAA20CACEBE272C2F1000C06
:10C560000CEB8C0C04EB4C0C401EC0B20CF1300CEC
:10C5700001F800C01400EBD1002D06DAA0F1010093
:10C58000C0B24FF02D020A5406E005D1A0F101001F
:10C59000C0B24FF030020A54C0F10B0040B2C0F1FB
:10C5A0000B0000EB0107B06E00281CBF3878002894
:10C5B00007D0B16EC0B207F101078847387800286C
:10C5C000F7D1B06E26A730B1B16E17F8010B8847CE
:10C5D00038780028F8D130220B216846F4F764F946
:10C5E0006A4608218DF808805DB100BF05F00F0094
:10C5F00009288CBF57303030491EC9B22D0950541C
:10C60000F4D1B06E144600281CBF9DF8000000282D
:10C6100007D000BFB16E14F8010B884720780028BE
:10C62000F8D1B06E10A4002804BF04B0BDE8F081BA
:10C6300014F8010BB16E884720780028F8D104B0B7
:10C64000BDE8F081303030303030303030303000C4
:10C6500052657475726E3A20000000006766666667
:10C660002C203078000000000D0A000010B50021D9
:10C6700080F844130C48F9F777FB04210A48F9F7CE
:10C6800073FB08210848F9F76FFB00210648F8F70B
:10C69000F7FB04210448F8F7F3FBBDE8104008213C
:10C6A0000148F8F7EDBB0000BC02002010B50121E5
:10C6B00080F8441300210C48F9F7E2FB04210A48F2
:10C6C000F9F7DEFB08210848F9F7DAFB00210648F4
:10C6D000F8F73AFC04210448F8F736FCBDE81040AE
:10C6E00008210148F8F730BCBC020020F0B4DFEDAF
:10C6F0007A3AF0EE402A40EEE32A20EEA34A9FED7C
:10C70000771AB0EE402AB0EE403A60EE811AB1EEF0
:10C71000401A00EEA32A00EEE31A10EEA33AF5EE5B
:10C72000C00A049FF1EE10FA68DBDFED6D3AB5EE5A
:10C73000C00A60EEA30AF1EE10FA21DBB4EEC40ADF
:10C74000F1EE10FA3ED300EE100A0125B8EE400AD1
:10C7500022EE800ABCEEC00A10EE10CA00EE100AEB
:10C76000A0EB0C00B8EE400A20EE800ABCEEC00A36
:10C7700010EE106A801B4408A4440CEB0600A3E0F2
:10C78000B4EEE10AF1EE10FA1CD200EE100A032515
:10C79000B8EE400A20EE800ABCEEC00A10EE106A25
:10C7A00000EE100A801BB8EE400A21EE000ABCEE33
:10C7B000C00A10EE104A001B4FEA500C0CEB0600AA
:10C7C000044481E000EE100A0225B8EE400A22EE91
:10C7D000000ABCEEC00A10EE106A00EE100A801BC0
:10C7E000B8EE400A23EE000ABCEEC00A10EE104A72
:10C7F000001B4FEA500C6444A01965E0DFED393AA4
:10C80000B5EEC00A60EEA30AF1EE10FA20DBB4EE3A
:10C81000E10AF1EE10FA3CD300EE100A0625B8EE5C
:10C82000400A20EE800AFCEEC00A00EE100A10EE6C
:10C8300090CAB8EE400AA0EB0C0022EE000ABCEE53
:10C84000C00A10EE106A801B4408A01984443BE023
:10C85000B4EEC40AF1EE10FA1BD200EE100A042561
:10C86000B8EE400A23EE000ABCEEC00A10EE104AF1
:10C8700000EE100A001BB8EE400A20EE800ABCEE63
:10C88000C00A10EE10CAA0EB0C00400884446444B7
:10C890001AE000EE100A0525B8EE400A21EE000A63
:10C8A000BCEEC00A10EE104A00EE100A001BB8EEF3
:10C8B000400A22EE800ABCEEC00A10EE10CAA0EBBD
:10C8C0000C0040080444A4440C60C2F800C0186086
:10C8D0003D60F0BC704700003ACD133F3ACD13BF26
:10C8E0003ACD933F3ACD93BFF0B504462DED068B7C
:10C8F00000F5E07500F5247683B090F84403F0EE7F
:10C90000408A012802BF03B0BDEC068BF0BD94F84D
:10C910004D0200279FEDDF9A03281CBF94F84D02BB
:10C92000042800F03F8194F87D00002802BF94EDB8
:10C93000270AB5EEC00AF1EE10FA40F03381D5EDCA
:10C94000160A95ED172A94EDBA0A95ED128A60EE53
:10C95000821A95ED13AAD5ED149AB0EEC00A95EDA2
:10C96000051AF0EE490A00F0FBFB8DED010A95ED8A
:10C97000170A01A800F0A0FC38EE0A1A9DED012A62
:10C980008DED002A71EE299A94ED120A39EEC00A53
:10C99000B4EEC80AF1EE10FA38BF8DED009A0CD350
:10C9A000B4EEC01AF1EE10FA07DDF0EE491AF0EE1F
:10C9B000480A00F0D5FB8DED000A9DED010A68469E
:10C9C00000F07AFC94ED090AF0EE001ADFEDB20AED
:10C9D0009FEDB28AB5EEC00AF1EE10FA9DED000AA5
:10C9E00008DD20EE210A20EE081A81EE200A20EE52
:10C9F000280A09E0B8EE001A20EE010A20EE081A13
:10CA000081EE200A20EE280A9DED012A94EDAC1A51
:10CA100062EE211AB0EEC11A61EE881A81EEA02AE8
:10CA2000B4EEC21AF1EE10FA0DD2D4ED130A95ED60
:10CA3000151AF4EEC10AF1EE10FA3CBFD4ED130A58
:10CA400070EEA80A0BD3D4ED130AF5EEC00AF1EE8E
:10CA500010FAC4BFD4ED130A70EEE80A01DDC4ED8C
:10CA6000130A94F8440301280BD094F8440370B9D6
:10CA7000D4ED090A8A49F0EEE00A10EE900A8842E5
:10CA800005DA84ED139A84ED129A84F85C70D4ED83
:10CA9000130A95ED151A0020F4EEC10AF1EE10FA12
:10CAA00009DBD4ED120A7F4A10EE901A8A42A4BF25
:10CAB000C4ED129A012094F84413002918BF84EDA4
:10CAC000129AD4ED120AF5EEC00AF1EE10FA63DD07
:10CAD000D4ED180A30EE800A84ED180A80B1D4ED46
:10CAE000090A9FED710AF5EEC00AF1EE10FAD4EDD5
:10CAF000180AD4BF30EEC00A30EE800A84ED180A5E
:10CB000004F1600000F03AFB012084F85C0094ED31
:10CB1000120A30EE680A84ED120A84ED139AD4EDFD
:10CB2000090A94ED180AF5EEC00AF1EE10FA34BFC6
:10CB30004FF0FF30012000EE900AF5EE009AF8EE7B
:10CB4000E00A60EE880A00EEA90A00F073F9D4ED5D
:10CB5000090AF0EE408A94ED180AF5EEC00AF1EEEB
:10CB600010FA34BF4FF0FF30012000EE900AF8EECB
:10CB7000E00A60EE880A00EEA90A00F019F9D5ED86
:10CB8000030A20EE800A86ED010A95ED030A20EEE5
:10CB9000280A86ED020A05E094EDB50A84ED180A2C
:10CBA00084F85C7094EDA30ADFED400A95ED042A49
:10CBB00080EE801A94ED090AF0EE490AB0EEC00A40
:10CBC000F0EE601A00F0CCFAD5ED040AB6EE001AC9
:10CBD00060EE810AF4EEC00AF1EE10FA52DC00BFFA
:10CBE000F1EE000A324820EE200A86ED060A94EDA6
:10CBF000A30A10EE101AB1F1824FA8BF07600ADA3B
:10CC00000168491C01600A2905DD2046FFF74EFD39
:10CC1000032084F8500027480168B1F5FA6F1BDC47
:10CC200094F84C129FED240AD1B1012914D1006867
:10CC3000A0F57A7000EE900A04F53F70F8EEE00A75
:10CC400080EE801ADFED1D0A21EE200A84EDBF0A76
:10CC5000B0EE490A00F01AFB03B0BDEC068BF0BD44
:10CC60000068A0F57A7000EE900A04F12800F8EE52
:10CC7000E00A80EE801ADFED120AB0EE490A84ED78
:10CC80000A1AE7E795ED040AF6EE000A20EE200AFC
:10CC9000A6E700000000000000007042DB0F4940E2
:10CCA0006F12833A17B7D138920A863F00002042AC
:10CCB000340000206800002000007A4400409C45B9
:10CCC000CDCC4C3F0A4601460148FFF7C5BB0000EA
:10CCD000C065002000000000F0EEE02AB0EEC02A9F
:10CCE00010B5F4EEC22AF1EE10FA34BFF0EE621A7B
:10CCF000F0EE421ACCBFB0EE621AB0EE421A9FEDCF
:10CD0000243ADFED243AB4EEE22A31EE033A81EE22
:10CD1000831A9FED213A61EE011A01EEA33ADFED8D
:10CD20001F3A53EE213A23EEA13AF0EE411A43EEB8
:10CD3000011AB0EE611AF1EE10FAC4BFDFED181A55
:10CD400031EEC11AF5EEC00AF1EE10FA3CBFDFED8C
:10CD5000150A30EEC11AB5EEC00AF1EE10FA38BF6E
:10CD6000B1EE411AB4EE411AF1EE10FA18BF9FED80
:10CD70000E0B05D111EE100A00F076FF41EC100BFE
:10CD800051EC100B00F0D8FA00EE100A10BD0000B4
:10CD90000000802516733EBD4423233E2CBEA73ED3
:10CDA000DB0FC93FDB0F494000000000000000001E
:10CDB00010EE101A19489FED1A1A814206D900BFC9
:10CDC00030EE010A10EE101A8142F9D810EE101A56
:10CDD0001448814206DD00BF30EE410A10EE101A01
:10CDE0008142F9DCDFED100A70EE200A10EE901A95
:10CDF0008142C8BF70EEC10A9FED0C0A9FED0C1A6C
:10CE0000F5EEC00AF1EE10FA20EE800A20EE811A4B
:10CE100034BF01EE200A01EE600A7047DB0F49C003
:10CE2000DB0FC940DB0F4940DB0FC93F83F9A23F4D
:10CE30007B81CF3E10EE101A1548DFED160A8142B5
:10CE400006D900BF30EE200A10EE101A8142F9D840
:10CE500010EE101A1048814206DD00BF30EE600A65
:10CE600010EE101A8142F9DCB5EEC00ADFED0B0AB4
:10CE70009FED0B1AF1EE10FA60EE200A20EE011A77
:10CE800034BF41EE000A41EE400AB0EE600A70473E
:10CE9000DB0F49C0DB0FC940DB0F494083F9A23FDC
:10CEA0007B81CF3E0C4810B50A4981660B4941662B
:10CEB00001220B490B48F9F76BFB00210A48FDF7EB
:10CEC00051FB0A49BDE810404FF40072A1F16C001B
:10CED000FEF7EABAF5CE0008C0650020F1CE0008E2
:10CEE000C0000020EC030020C40000202C660020BD
:10CEF0007047000001B5FF23012269460148F9F798
:10CF0000EDFB08BDEC03002030EE600A0D48DFEDBC
:10CF10000E0A10EE101A814206D900BF30EE200A28
:10CF200010EE101A8142F9D810EE100A0749884213
:10CF3000D8BF704730EE600A10EE100A8842F9DC64
:10CF400070470000DB0F49C0DB0FC940DB0F4940D1
:10CF50009FED0F0A81ED000A82ED000A1022001FEA
:10CF600091ED000AD0ED010A30EE200A81ED000AB1
:10CF7000D0ED020A0830521E30EE200A81ED000A80
:10CF8000EED1DFED040A20EE200A81ED000A7047A1
:10CF9000000000000000003D10B49FED250ADFF8FE
:10CFA00094C081ED000A102482ED000AACF5807374
:10CFB000B0F1040091ED000AD0ED010A9CED011AD8
:10CFC00000EE810A81ED000A92ED000AD0ED010A1F
:10CFD00093ED011A00EEC10A82ED000A91ED000AFC
:10CFE000D0ED020A9CED021A0CF1080C00EE810A49
:10CFF00081ED000A92ED000AD0ED020A93ED021ACB
:10D000000830083300EEC10A641E82ED000AD1D157
:10D01000D1ED000A9FED080A60EE800AC1ED000A1A
:10D02000D2ED000A20EE800A82ED000A10BC7047A3
:10D030000000000058E000080000003D10B49FED23
:10D04000250ADFF894C081ED000A102482ED000A61
:10D05000ACF58073B0F1040091ED000AD0ED010A47
:10D060009CED011A00EE810A81ED000A92ED000AA2
:10D07000D0ED010A93ED011A00EEC10A82ED000A1B
:10D0800091ED000AD0ED020A9CED021A0CF1080C99
:10D0900000EE810A81ED000A92ED000AD0ED020A4D
:10D0A00093ED021A0830083300EEC10A641E82EDC7
:10D0B000000AD1D1D1ED000A9FED080A60EE800A86
:10D0C000C1ED000AD2ED000A20EE800A82ED000ACE
:10D0D00010BC704700000000D8E000080000003DD0
:10D0E00010B52DED068BB0EE608AF0EE400A9FED94
:10D0F0001B0AF0EEE08AF4EEC18AF1EE10FA9EBF50
:10D10000B7EE000ABDEC068B10BDF4EEC88AF1EE56
:10D1100010FAC4BFBDEC068B10BD38EE410A10EE0C
:10D12000100A00F0A1FD41EC1A0B18EE900A00F075
:10D130009BFD41EC190B18EE100A00F095FD53EC25
:10D14000192B00F0A7FC53EC1A2B00F0DBF900F0D0
:10D15000F3F8BDEC068B00EE100A10BD00000000D5
:10D1600030EE600A32EE612A31EE601A20EE020AD9
:10D17000C0EE010A30EEA10A7047000010490268B3
:10D180009FED100A8A4209D9D0ED000A70EE800A9C
:10D1900010EE902AC0ED000A8A42F5D80A490268CA
:10D1A0008A42D8BF704700BFD0ED000A70EEC00AB7
:10D1B00010EE902AC0ED000A8A42F5DC70470000AC
:10D1C000DB0F49C0DB0FC940DB0F494070B50026BB
:10D1D0002DED028BB0EE408A90ED000A0C4605461C
:10D1E00060EE000A91ED000A40EE000AB1EEE00A9E
:10D1F000B4EE400AF1EE10FA1CBFB0EE600AFAF786
:10D20000ECFBF0EEC80A10EE100A0F49884217DB5B
:10D21000B4EEE00AF1EE10FA0EDD80EE801A95ED24
:10D22000000A012620EE010A85ED000A94ED000AAD
:10D2300020EE010A84ED000A3046BDEC028B70BD81
:10D240009FED020AE4E70000FFE6DB2EFFE6DB2E9F
:10D2500090ED001AB4EEC01AF1EE10FA0CD271EE95
:10D26000200AF4EEC00AF1EE10FA02D2C0ED000A74
:10D27000704780ED000A7047D8BF704771EE600AB2
:10D28000F4EEC00AF1EE10FAF3DDEFE790ED001ACC
:10D290000021B4EEE01AF1EE10FAC8BFC0ED000AAA
:10D2A00007DCB4EEC01AF1EE10FA38BF80ED000AC8
:10D2B00000D2012108467047D0ED000A0021F4EEAB
:10D2C000C00AF1EE10FA06DCB1EE400AF4EEC00A34
:10D2D000F1EE10FA02D280ED000A012108467047F3
:10D2E00010B500290AD00878002807D005487844EE
:10D2F000F3F70AFB002801D0002010BD0248784453
:10D3000010BD0000EA160000E216000010B500296A
:10D310000AD00878002807D005487844F3F7F4FAD3
:10D32000002801D0002010BD0248784410BD000044
:10D33000DA160000D216000021F00042A2F160527D
:10D34000B2F5801F01F0004328BFD2F17F6C0BD9EA
:10D350005FEA001C43EAC20242EB507018BF7047FC
:10D3600028BF20F001007047B2F5801FBCBF1846EF
:10D3700070474FEA410C1CF5001F02D2084600F02E
:10D38000E9BC70B500F0FCFA00000089FFF7F6BFB9
:10D390004FF00040A0F580007047000010B591EA02
:10D3A000030F48BF83F0004300F17C83841A71EBC4
:10D3B000030C05D2121943EB0C03001B61EB0C01AB
:10D3C000DFF824E14FEA1154A4EB135C1EEA430F8B
:10D3D00018BF9EEA445F73D023EA0E03DCF1200EEF
:10D3E00021EA045143F4801332D322FA0CFE10EBED
:10D3F0000E0023FA0CFE41EB0E01CCF1200E03FAD5
:10D400000EFE10EB0E0051F10001B1F5801FCCF1C2
:10D41000200E32D201EB045112FA0EF2BDE8104098
:10D4200058BF7047401C38BF5FEA420218BF7047C0
:10D43000002814BF20F0010041F100014FEA410330
:10D4400013F5001F38BF7047A1F1C04100F0E6BAE4
:10D45000012A43EB0302ACF1200CDCF11F0E32BFBA
:10D460004FF0000E23FA0CF310EB030041EB0451D4
:10D47000B4EB115FD0D0A1EB045101F58011490844
:10D480005FEA300001EB04510ED350F1000038BFC9
:10D4900012FA0EFE08D1BDE81040C9E7401C38BFA3
:10D4A0005FEA4202CAD1C3E7BDE810404FEA410338
:10D4B00013F5001F38BF7047A1F1C04100F0AEBAAC
:10D4C0009EEA445F08D011EA5E0FBDE8104004BF39
:10D4D00001F0004100207047BDE8104070B500F039
:10D4E0004FFA00BF64FBBE3E0000E0FF491058BF8A
:10D4F000C1F140415B1058BFC3F140438B42EFF391
:10D50000008070472DE9C04130B4DFF8A0C23CEA8A
:10D51000111418BF3CEA131400F0EC8081EA0305F3
:10D520001CEA111444EAD57418BF1CEA131500F064
:10D53000C780A4EB05044FF0004545EAC12145EA48
:10D54000C32341EA505143EA525304F17F74994294
:10D5500004F500344FEAC0204FEAC22208BF9042CF
:10D5600000F09C804FEA13650FF24016765D4FEA9B
:10D57000134506FB05F7C7F1807706FB07F74FEA6F
:10D58000D737A7FB03687642C8F58038A7FB06CEDD
:10D5900038BFA8F1010807FB08E64FF0000EA6FB14
:10D5A000028CE6FB03CEDCF1000CCEF1004E38BF5E
:10D5B000AEF1010EA6FB0C584FF000074FF000052E
:10D5C000E6FB0E87A1FB08C6A0FB07CE16EB0E06F6
:10D5D00045F10005E1FB076515F1E04E7EBFA4F5BE
:10D5E00080345FEA46066D4116F1800745F100057B
:10D5F0004FEA17274FEA066647EA0567A6F1DE46B7
:10D60000B6F1805F4FEA15251FD9384624F0010C8A
:10D6100005EBC471BCF1FE6F01EB0C1102D8F0BC3C
:10D62000BDE8008124425CBF01F5801E9EEAC47FF4
:10D6300002D4F0BCBDE80081244238D4F0BCA1F192
:10D64000C041BDE8004100F0E9B94FEAD22242EA08
:10D6500043524FEAD323A7FB02864FEAD02040EA89
:10D66000415007FB03661EEA0E0F4FEAD12105FB6E
:10D67000026658BFA6EB0056B6EB00564FEA520EB4
:10D680004EEAC37E18EB0E0E56EB530EBDD518EBCB
:10D6900002085E417F1C55F10005B6E74FF4801586
:10D6A0004FF000074FF000064FF00008ADE7F0BC68
:10D6B0004FF0000001F1C04101F00041BDE80081E0
:10D6C00011EA0C1F0CEA131500D00CE013EA0C1F32
:10D6D00000F025804FF00000F0BC81EA030101F06A
:10D6E0000041BDE80081F0BCBDE8004181EA0301D2
:10D6F00000F094B9F0BCBDE8004170B500F040F90D
:10D70000097EFC3E00F007B881EA03014FF00000FB
:10D7100001F00041704781EA030100F07FB9F0BCDD
:10D72000BDE800414FF0000021497047FFFDFBF9C3
:10D73000F7F5F4F2F0EEEDEBE9E8E6E4E3E1E0DE44
:10D74000DDDBDAD8D7D5D4D3D1D0CFCDCCCBCAC8B6
:10D75000C7C6C5C4C2C1C0BFBEBDBCBBBAB9B8B7DD
:10D76000B6B5B4B3B2B1B0AFAEADACABAAA9A8A8D0
:10D77000A7A6A5A4A3A3A2A1A09F9F9E9D9C9C9B9E
:10D780009A99999897979695959493939291919049
:10D790008F8F8E8E8D8C8C8B8B8A898988888787DA
:10D7A0008685858484838382828181800000FF074F
:10D7B0000000F87F51EA030C17D41CF5801F58BFF6
:10D7C000BCF5801F00F10680994218BF704708BF62
:10D7D0009042704707D711F5801F58BF13F5801F7F
:10D7E00019D499427047894270471CF5801F08D5AB
:10D7F000BCF5801FF7D58B4218BF704708BF824227
:10D8000070474FF4001C1CEB410F38BF1CEB430F5B
:10D8100001D28B42704770B500F0B2F892244900F3
:10D820004FF000514FF08053FFF760BEDFF848C162
:10D8300070B51CEA111E1EBF1CEA13159EEA0C0FE0
:10D8400095EA0C0F00F06F8081EA030423EA4C1381
:10D850004EEAD47E21EA4C1141F4801143F4801346
:10D86000AE44A1FB024CA0FB0365AEF17F7E3619EE
:10D8700055EB0C05A1FB034C4CF10003A0FB021C73
:10D8800016EB0C06654153F10003094218BF46F040
:10D89000010613F4007F0BD14FEA03314FEA053044
:10D8A000340341EA155140EA16506FF003020AE0D2
:10D8B0004FEAC3214FEAC520F40241EA555140EA3C
:10D8C00056506FF0020202EB2E4201EB025585EA40
:10D8D000CE710AD05FEA440C18BF24F0004450F126
:10D8E000000041F1000120EAD47040F2FE7C624564
:10D8F00000D270BDA84214BF4FF080444FF04044A6
:10D90000002E08BF0024BEF1806FA8BFA1F1C04166
:10D91000BDE8704080F282804FF0000001F1C0410C
:10D9200001F0004170479EEA0C0F0CEA131518BF76
:10D9300095EA0C0F06D04FF0000081EA030E0EF0BE
:10D94000004170BD00F01CF88900013E00F007B8EE
:10D9500000F009B84FEA430C5FEA5C5C08D081EA4A
:10D96000030100F05BB84FEA410C5FEA5C5CF6D162
:10D970004FF00000014970470000FF070000F87FEA
:10D980000EF1020E2EF0030E5EF8046B364205D443
:10D99000012A43EB030515F5001F12D8012841EBBE
:10D9A000010C1CF5001F0CD80ED14FEAD17C15F5E7
:10D9B000001F0CEB4C0C0CF1020C08BF4CEBD37CA1
:10D9C00004E04FF0080C01E04FEAD37C0CEB4C056F
:10D9D00026FA05F606F00706B6F1040C06D20EEBA1
:10D9E000860CBDE870404CF0010C6047DFE80CF09D
:10D9F000090B02024FF000414FF00000A1F5002199
:10DA000070BD19461046012851EB010418BFD4F52A
:10DA1000001484BF002001F0004170BD0808A0F58B
:10DA200000114FEA3101704753EA010C17D41CF57D
:10DA3000801F58BFBCF5801F00F106808B4218BFC5
:10DA4000704708BF8242704707D713F5801F58BF41
:10DA500011F5801F19D48B4270479B4270471CF50B
:10DA6000801F08D5BCF5801FF7D5994218BF7047B5
:10DA700008BF904270474FF4001C1CEB430F38BFA7
:10DA80001CEB410F01D2994270470FB40CBC03BC90
:10DA9000FFF7C1BE10B591EA030F48BF83F0004302
:10DAA0003FF584AC841A71EB030C07D212198CF089
:10DAB000004C43EB0C03001B61EB0C01DFF8A4E10D
:10DAC0004FEA1154A4EB135C1EEA430F18BF9EEA01
:10DAD000445F00F0B08023EA6E03524221EA045111
:10DAE000C3EB6E0338BF5B1EDCF1200E25D322FA98
:10DAF0000CFE10EB0E0043FA0CFE41EB0E01CCF1D4
:10DB0000200E03FA0EFE10EB0E0051F10001CCF1D5
:10DB1000200E29D412FA0EF201EB0451BDE8104098
:10DB200058BF7047401C1CBFB2F1004F704700281F
:10DB30000CBF491C20F00100704712EB020E43EBB2
:10DB4000030218BF4FF0010E4EEA4202ACF1200C66
:10DB5000DCF11E0E54D943FA0CFE10EB0E0051F10D
:10DB6000FF31CCF11E0ED5D50EF1010E12FA0EFECC
:10DB7000404141EB010101EB445C5FEA5C5C10D980
:10DB800010EBDE7001EB045138BFBEF1004FBDE871
:10DB9000104018BF704700280CBF491C20F001003E
:10DBA000704730D24FEAD42C11F5001124F40064F0
:10DBB0001BD0B1FA81F20B3AA41AA41ED2F12003B1
:10DBC000914030FA03F31943904001EBCC71002CE3
:10DBD00001EB0451BDE81040A8BF704701F1C041FE
:10DBE0004FF0000001F000417047B0FA80F310FAE6
:10DBF00003F100D110BDE41A173C4805C90AE4E757
:10DC000001EB045110BD491001EB0451BDE8104077
:10DC10004FEA300002E04FF0000170474A0008BFB1
:10DC20000042F8D0B2F5001F28BF704701F0004154
:10DC30004FF0000070479EEA445F07D011EA5E0F84
:10DC4000BDE8104004BF002100207047BDE810402F
:10DC500070B5FFF795FE00BF40DFF63E83F0004150
:10DC6000104670470000E0FF43004FEAD30C4FEA34
:10DC70003C0C43401FBF40070CF1605113F0FE4FB6
:10DC800070471CF0006F03D100200CF0004170477A
:10DC90000CF0004343EA507010B540EACC0000F0AD
:10DCA0000EF800BF000000924FEA0001FFF7B6BE79
:10DCB0004FF000414FF00000A1F5002170470EF138
:10DCC000020E2EF0030E5EF8044B244204D44FEAF9
:10DCD0004102B2F17F4F11D84FEA4003B3F17F4FB9
:10DCE0000CD80ED14FEAD07CB2F17F4F0CEB4C0C2C
:10DCF0000CF1020C08BF4CEBD17C04E04FF0080C97
:10DD000001E04FEAD17C0CEB4C0324FA03F404F05D
:10DD10000704B4F1040C06D20EEB840CBDE81040ED
:10DD20004CF0010C6047DFE80CF0070802024FF0EE
:10DD30000040A0F5800010BD0846420018BFD2F197
:10DD4000807288BF00F0004010BD4FF04070E1EEDF
:10DD5000100A7047FF2141EAD050C0057047F3F721
:10DD600031B9F3F765BA01000200040006000800AB
:10DD70000A000C001000200040008000000100009C
:10DD8000000000000000010203040607080900006B
:10DD9000000001020304636D645F6D656173757259
:10DDA000655F696E640053544F50204D4F544F527D
:10DDB00020494E5354414E5400636D645F73657443
:10DDC0005F73706565645F6D310053544F50204D33
:10DDD0004F544F5220494E5354414E5400636D648A
:10DDE0005F7365745F6D6F64655F6D310053544F91
:10DDF00050204D4F544F5220494E5354414E5400E1
:10DE0000636D645F73746F705F6D6F746F720053D6
:10DE1000544F50204D4F544F5220494E5354414E71
:10DE20005400636D645F73746172745F6D6F746FBF
:10DE300072005354415254204D4F544F5220494E7A
:10DE40005354414E5400636D645F746573745F6D29
:10DE50006F746F725F706172616D6574657200548A
:10DE6000455354204D4F544F5220504152414D453F
:10DE700054455200666F635F6465746563745F61E7
:10DE800070706C795F616C6C5F666F6300666F6366
:10DE90005F6D61696E5F6C6F6F7000636D645F6D65
:10DEA0006561737572655F696E6400636D645F734D
:10DEB00065745F73706565645F6D3100636D645F89
:10DEC0007365745F6D6F64655F6D3100636D645F72
:10DED00073746F705F6D6F746F7200636D645F73E6
:10DEE000746172745F6D6F746F7200636D645F74E0
:10DEF0006573745F6D6F746F725F706172616D6571
:10DF000074657200636D645F736176655F636F6EE5
:10DF1000666967005445535420464C41534800639A
:10DF20006D645F726561645F636F6E6669670054FC
:10DF300045535420464C41534800636D645F736100
:10DF400076655F636F6E66696700636D645F7265B7
:10DF500061645F636F6E6669670000000000000027
:10DF6000ACC5473E07EFC33ED6390E3FF704353FF9
:10DF700038DB543F66836C3FBA147B3F0000803F20
:10DF8000BA147B3F66836C3F38DB543FF704353F60
:10DF9000D6390E3F07EFC33EACC5473E0000000038
:10DFA000ACC547BE07EFC3BED6390EBFF70435BFB9
:10DFB00038DB54BF66836CBFBA147BBF000080BFE0
:10DFC000BA147BBF66836CBF38DB54BFF70435BF20
:10DFD000D6390EBF07EFC3BEACC547BE0000000078
:10DFE00007EFC33EF704353F66836C3F0000803F78
:10DFF00066836C3FF704353F07EFC33E0000000027
:10E0000007EFC3BEF70435BF66836CBF000080BF57
:10E0100066836CBFF70435BF07EFC3BE0000008006
:10E0200007EFC33EF704353F66836C3F0000803F37
:10E0300066836C3FF704353F07EFC33E00000000E6
:10E0400007EFC3BEF70435BF66836CBF000080BF17
:10E0500066836CBFF70435BF07EFC3BE0000803F87
:10E06000BA147B3F66836C3F38DB543FF704353F7F
:10E07000D6390E3F07EFC33EACC5473E0000000057
:10E08000ACC547BE07EFC3BED6390EBFF70435BFD8
:10E0900038DB54BF66836CBFBA147BBF000080BFFF
:10E0A000BA147BBF66836CBF38DB54BFF70435BF3F
:10E0B000D6390EBF07EFC3BEACC547BE0000008017
:10E0C000ACC5473E07EFC33ED6390E3FF704353F98
:10E0D00038DB543F66836C3FBA147B3F0000803FBF
:10E0E00066836C3FF704353F07EFC33E0000000036
:10E0F00007EFC3BEF70435BF66836CBF000080BF67
:10E1000066836CBFF70435BF07EFC3BE0000008015
:10E1100007EFC33EF704353F66836C3F0000803F46
:10E1200066836C3FF704353F07EFC33E00000000F5
:10E1300007EFC3BEF70435BF66836CBF000080BF26
:10E1400066836CBFF70435BF07EFC3BE00000080D5
:10E1500007EFC33EF704353F66836C3F47342D46D7
:10E160004F43000064656661756C74207573657259
:10E170000073657456617200736574207661720075
:10E18000757000646F776E007269676874006C6503
:10E19000667400746162006261636B7370616365D1
:10E1A000006261636B73706163650064656C6574C4
:10E1B0006500656E74657200656E746572006865F1
:10E1C0006C700073686F7720636F6D6D616E642093
:10E1D000696E666F0D0A68656C70205B636D645DC7
:10E1E000007573657273006C69737420616C6C20C8
:10E1F0007573657200636D6473006C69737420617C
:10E200006C6C20636D640076617273006C6973746A
:10E2100020616C6C20766172006B657973006C69AB
:10E22000737420616C6C206B657900636C6561723E
:10E2300000636C65617220636F6E736F6C65006C58
:10E240006F675365744C6576656C00736574206CFC
:10E250006F67206C6576656C0068657864756D70B5
:10E26000006865782064756D700D0A2068657864B3
:10E27000756D70205B6C6F675D205B626173655DBF
:10E28000205B6C656E5D006C6F675365744C6576E2
:10E29000656C0030313233343536373839414243DA
:10E2A0004445464030580030313233343536373803
:10E2B00039616263646566403078000400000800DC
:10E2C000000000000000020001000010000000003B
:10E2D000000000003031323334353637383961626E
:10E2E00063646566787000303132333435363738E0
:10E2F0003941424344454658500000000240000066
:10E30000000000A00000000005400000000000C860
:10E31000000000000C4000000000409C00000000D5
:10E32000194000000020BCBE000000003440000086
:10E33000BFC91B8E00000004B5400000504BCFD079
:10E340006607E2CF010000006C4100003E8251AA46
:10E35000DFEEA73401000000D9420000DCB5A0E2E6
:10E360003A301F97FFFFFFFFB4450000FD25A0C80E
:10E37000E9A3C14FFFFFFFFFFF3F00000000008047
:10E3800000000000FF3F00000000008000000000CF
:10E390001B5B33346D44282564292025733A1B5BAD
:10E3A00033396D20536F72727921484649206D616F
:10E3B00079206E6F7420636F6D706163742077696C
:10E3C000746820796F7572206D6F746F722E4E6F46
:10E3D000726D616C2073656E736F726C6573732000
:10E3E0006D6F646520697320656E61626C65642180
:10E3F0004846492063757272656E743A252E303234
:10E400006C662C646966663A252E30326C660D0A9D
:10E410000D0A0D0A000000001B5B33346D442825F3
:10E4200064292025733A1B5B33396D20436F6E6777
:10E43000726174756C6174696F6E21596F757220A9
:10E440006D6F746F7220697320737570706F727462
:10E45000204846492073656E73696E6721484649B6
:10E46000206D6F646520697320616C7265616479E9
:10E470002073746172746564214846492063757223
:10E4800072656E743A252E30326C662C646966664D
:10E490003A252E30326C660D0A0D0A0D0A00000076
:10E4A0001B5B33316D45282564292025733A1B5B9E
:10E4B00033396D20556E64657220766F6C746167B8
:10E4C000652070726F74656374696F6E2054524971
:10E4D0004747455245442C7573652027636D645F3B
:10E4E00073746172745F6D6F746F7227206F722026
:10E4F00027636D645F73746F705F6D6F746F7227E5
:10E5000020746F2072657374617274206D6F746F04
:10E5100072210D0A000000001B5B33316D45282578
:10E5200064292025733A1B5B33396D204F76657261
:10E5300020706F7765722070726F74656374696F95
:10E540006E205452494747455245442C7573652007
:10E5500027636D645F73746172745F6D6F746F7243
:10E5600027206F722027636D645F73746F705F6D17
:10E570006F746F722720746F207265737461727488
:10E58000206D6F746F72210D0A0000001B5B333128
:10E590006D45282564292025733A1B5B33396D208E
:10E5A0004F7665722063757272656E742070726F3B
:10E5B00074656374696F6E205452494747455245EC
:10E5C000442C7573652027636D645F737461727486
:10E5D0005F6D6F746F7227206F722027636D645FA9
:10E5E00073746F705F6D6F746F722720746F207219
:10E5F000657374617274206D6F746F72210D0A00FF
:10E600001B5B33336D57282564292025733A1B5B28
:10E6100033396D204D313A696E643A252E30346CB1
:10E62000662C6D61785F637572723A252E30346C9A
:10E63000662C6C645F6C715F646966663A252E3087
:10E64000346C660D0A0000001B5B33346D442825D2
:10E6500064292025733A1B5B33396D204D313A769E
:10E660006275733A252E30326C662C69717265665C
:10E670003A252E30326C662C69713A252E30326C78
:10E68000662C5345545F4552504D3A252E30326C1E
:10E69000662C4552504D3A252E30326C662C44552E
:10E6A00054595F5345543A252E30326C662C4455EC
:10E6B00054593A252E30326C662C706572696F643D
:10E6C0003A256475730D0A000D0A436F6D6D616E16
:10E6D00064204C6973743A0D0A0000000D0A5661FB
:10E6E00072204C6973743A0D0A0000000D0A5573CC
:10E6F0006572204C6973743A0D0A00000D0A4B656F
:10E7000079204C6973743A0D0A000000436F6D6DF7
:10E71000616E64206E6F7420466F756E640D0A0022
:10E720000D0A5761726E696E673A20436F6D6D61B5
:10E730006E6420697320746F6F206C6F6E670D0AB2
:10E7400000000000206973206E6F742061207661E4
:10E75000720D0A0063616E27742073657420726500
:10E760006164206F6E6C79207661720D0A00000082
:10E7700063616E27742073657420706F696E7465B1
:10E78000720D0A000D0A205F20202020202020206A
:10E79000205F2020205F20202020202020202020FB
:10E7A00020202020202020205F202020202020202A
:10E7B0002020205F205F200D0A7C207C202020204C
:10E7C0005F5F5F7C207C5F7C207C5F205F5F5F20E1
:10E7D0005F205F5F2020205F5F5F7C207C5F5F2089
:10E7E00020205F5F5F7C207C207C0D0A7C207C20C9
:10E7F00020202F205F205C205F5F7C205F5F2F2028
:10E800005F205C20275F5F7C202F205F5F7C2027BC
:10E810005F205C202F205F205C207C207C0D0A7C08
:10E82000207C5F5F7C20205F5F2F207C5F7C207CD2
:10E830007C20205F5F2F207C202020205C5F5F20D9
:10E840005C207C207C207C20205F5F2F207C207C33
:10E850000D0A7C5F5F5F5F5F5C5F5F5F7C5C5F5F3B
:10E860007C5C5F5F5C5F5F5F7C5F7C202020207C46
:10E870005F5F5F2F5F7C207C5F7C5C5F5F5F7C5FA6
:10E880007C5F7C0D0A0D0A4275696C643A20202079
:10E89000202020204A756E20203420323032312052
:10E8A00032313A33363A31350D0A56657273696F33
:10E8B0006E3A2020202020332E302E360D0A436F52
:10E8C000707972696768743A2020202863292032A1
:10E8D000303230204C65747465720D0A00000000FF
:10E8E0000D0A70617373776F7264206572726F7254
:10E8F0000D0A0000566172206E6F7420466F756EAF
:10E90000740D0A001B5B324B0D000000434D442088
:10E910000000000056415220000000004B455920E5
:10E9200000000000636F6D6D616E642068656C703F
:10E93000206F6620000000000D0A506C6561736551
:10E9400020696E7075742070617373776F72643AAA
:10E95000000000004E4F4E45000000001B5B324A95
:10E960001B5B314800000000555345520000000079
:10E970001B5B33316D202020204F66667365743A2F
:10E9800020303020303120303220303320303420DD
:10E9900030352030362030372030382030392030A4
:10E9A0004120304220304320304420304520304642
:10E9B0001B5B33396D0D0A00C4EC00080000002019
:10E9C000D00000001402000894ED0008D0000020E0
:10E9D000D06E0000300200081C0000004300000060
:10E9E000F8FFFFFF0C0000000E0000000F00000009
:10E9F0002E0000001001000043000000F8FFFFFFA0
:10EA00000040404040404040404041414141414041
:10EA100040404040404040404040404040404040F6
:10EA20004005020202020202020202020202020285
:10EA3000022020202020202020202002020202028A
:10EA400002029090909090901010101010101010E2
:10EA500010101010101010101010101002020202EE
:10EA60000202888888888888080808080808080832
:10EA7000080808080808080808080808020202022E
:10EA80004000000000000000000000000000000046
:10EA90000000000000000000000000000000000076
:10EAA0000000000000000000000000000000000066
:10EAB0000000000000000000000000000000000056
:10EAC0000000000000000000000000000000000046
:10EAD0000000000000000000000000000000000036
:10EAE0000000000000000000000000000000000026
:10EAF0000000000000000000000000000000000016
:10EB0000000000000001000096DD00080D7F0008F5
:10EB1000A6DD000800010000B9DD00082981000819
:10EB2000CADD000800010000DDDD00088980000862
:10EB3000EDDD00080001000000DE0008F1810008A2
:10EB40000FDE00080001000022DE0008A18100089D
:10EB500032DE00080001000046DE000841820008A5
:10EB60005FDE00080001000004DF0008FD7F0008F0
:10EB700014DF0008000100001FDF00089D7F00086F
:10EB80002FDF0008000800005CE1000863E10008D6
:10EB900064E100080021000071E10008F1BB0008F9
:10EBA00078E100080009000000415B1B71C2000809
:10EBB00080E100080009000000425B1B85AB0008F3
:10EBC00083E100080019000000435B1B05BA000840
:10EBD00088E100080019000000445B1BB5B700087D
:10EBE0008EE10008000900000000000961BF000874
:10EBF00093E100080019000000000008C9A90008FE
:10EC000097E10008001900000000007FC9A9000872
:10EC1000A1E10008001900007E335B1B19AA00085F
:10EC2000ABE10008001900000000000A8DAB0008ED
:10EC3000B2E10008001900000000000D8DAB0008D3
:10EC4000B8E1000800200000BEE10008A1B2000801
:10EC5000C3E1000800210000E1E1000879C20008DA
:10EC6000E7E1000800210000F5E1000805AA00081E
:10EC7000FAE100080021000007E2000801C30008D3
:10EC80000CE200080021000019E2000831B700087A
:10EC90001EE20008002100002BE20008D1A90008B4
:10ECA00031E20008000100003FE20008A5A50008CD
:10ECB0004BE200080021000059E20008C5A300084B
:10ECC00061E20008000000001000000001000000E8
:10ECD0000000000000000000000000000000000034
:10ECE0000000000001000000000000000000000023
:10ECF000000000000024F400000000007804002060
:10ED0000C407002000000000000000000000000018
:10ED100000000000780400200000000078040020BB
:10ED20000000000078040020000000000000000047
:10ED300084E7000820E70008C8E60008DCE60008D1
:10ED4000ECE60008FCE600080CE7000870E70008A5
:10ED500054E7000844E70008F4E8000824E9000844
:10ED600038E90008E0E800085CE9000804E9000868
:10ED70000CE9000814E9000868E900081CE900082B
:10ED800054E9000800000000C5CC000801040000A0
:04ED9000000000007F
:04000005080001D915
:00000001FF
